:020000040800F2
:10000000400B0020356B0008356A0008376A00088D
:10001000396A00083B6A00083D6A000800000000D9
:100020000000000000000000000000003F6A00081F
:10003000416A000800000000436A0008456A0008A1
:10004000676B00086B6B00086F6B0008736B000830
:10005000776B00087B6B00087F6B0008836B0008E0
:10006000876B00088B6B00088F6B0008936B000890
:10007000976B00089B6B0008536A00089F6B000891
:10008000A36B0008A76B0008AB6B0008AF6B000800
:10009000596A0008B36B0008B76B0008BB6B000817
:1000A000BF6B0008C36B0008C76B0008CB6B000870
:1000B000CF6B0008D36B0008D76B0008DB6B000820
:1000C000DF6B0008E36B0008E76B0008EB6B0008D0
:1000D000EF6B00085F6A0008F36B0008F76B00081D
:1000E000FB6B0008FF6B0008036C0008076C00083E
:1000F0000B6C00080F6C0008136C0008176C0008EC
:100100001B6C00081F6C0008236C0008276C00089B
:100110002B6C00082F6C0008336C0008376C00084B
:100120003B6C00083F6C0008436C0008476C0008FB
:1001300081B000F5E0700268914203D343681A442D
:10014000914202D380680028F5D101B07047DFF8F2
:100150006817086890B94FF4805048604FF48032B7
:100160004FF0FF308A60C86008610420DFF84C2738
:10017000DFF84C374861C2F8BC010B6001207047C2
:1001800001F1080313F0070F0EBF0023C3F10803AA
:1001900003F007031944D21A8161C26042F00103DF
:1001A0004B60091D28238B50DFF80C170A69C261C8
:1001B00070472DE9FC4B074601F1080010F0070FCE
:1001C0000FBF8946C0F1080000F0070001EB0009ED
:1001D00002F1080111F0070F06D002F10800C0F18A
:1001E000080000F0070002441546A5EB090009EBE2
:1001F0000306A0EB030B43F00303C9F80430AE423F
:1002000028BF01F0FFF92879C10758BF01F0FAF9BA
:10021000BBF1100F38BF01F0F5F9B869854207D17D
:10022000F8685844F860BE6140F00100706050E129
:10023000786985420AD1B8688344C7F808B07E61FE
:100240004BF00100706046F80BB042E1686800F0C6
:100250000301012940F0AB80C008C0000190C00834
:100260001F2839D8AC68D5F80C800090454508BFE8
:1002700001F0C8F9A54208BF01F0C4F96868009907
:10028000C008C000B0EBC10F18BF01F0BBF9009966
:1002900007F1280000EBC100844206D03A6994427D
:1002A000C0F08080E168A9427CD1A04506D10098C9
:1002B0003968012282409143396075E0804506D05B
:1002C000386980456ED3D8F80800A8426AD1C4F8CE
:1002D0000C80C8F8084067E0EC68D5F81880AC429C
:1002E0000CD0A8683969884222D3C168A94204BFEA
:1002F000A168A9421CD1C460A0601BE005F11402F2
:10030000146834B905F1100214689CB101E01A4672
:10031000146804F114031968002902BF04F11003E2
:1003200018680028F3D139698A4228BF106001D2C9
:1003300001F068F9B8F1000F36D0E96907F5987057
:1003400000EB81000268954208D10460A4B9E86915
:100350007968012282409143796025E038698045BF
:1003600008D3D8F81000A84214BFC8F81440C8F841
:10037000104001E001F046F9B4B139698C4211D363
:10038000C4F81880286928B1884226BF206184619A
:1003900001F038F9686938B13969884202D360617F
:1003A000846101E001F02EF901982D1883446868FA
:1003B0004008400068604BF0010171604FEADB04C7
:1003C00046F80BB01F2C23D807F1280000EBC40817
:1003D0004546BBF1100F38BF01F014F9386820FA18
:1003E00004F1C90705D4012101FA04F404433C6077
:1003F00007E0D8F80800396988422CBF054601F0AB
:1004000001F9C8F80860EE60B560C6F80C8060E0DD
:100410005FEA1B2008BF002123D0B0F5803F28BF32
:100420001F211ED2A0F58072120C02F0080290402B
:10043000A0F58051090C01F004018840A0F580432B
:100440001B0CC2F10E0203F00203521AD21A98409A
:1004500002EBD032D01D2BFA00F101F0010101EBCB
:10046000420107F5987202EB8100F161002272618E
:1004700032617A6822FA01F3DB0707D4012303FA19
:1004800001F1114379600660B0611DE002681F2927
:100490001DBF4908C1F119010BFA01F1594600E0ED
:1004A00002465068C008C000584516D002F110033B
:1004B000CC0F03EB8403490018680028F0D1386999
:1004C000834204D31E60B261F660B66001E001F0C1
:1004D00099F809F10800BDE8F68B396990688A42FD
:1004E00028BF8842F3D3C6609660B060F2600020F7
:1004F000B061EEE72DE9FE4F04468B46A5692E4616
:10050000904699463146FFF713FEA8F1280201688C
:10051000406801EB000AAAF1270111F007000EBFA5
:100520000021C1F1080101F007010AEB0100A0F16F
:100530002F0706F11000874238BF374607F1180031
:1005400001905946002000902046FFF719FE07F160
:10055000080010F0070F18BF01F054F81B20786056
:1005600007F1080104F5E07090E80C5081E80C50A8
:10057000C0F800B0C0F80480C0F80C908160019809
:10058000009900E0001D07224260491C00F10802AA
:100590005245F7D30129D8BF01F034F8B74200F033
:1005A0009580BF1B301D311DC05940084000C85107
:1005B00047F0010171604FEAD70BF751BBF11F0FF4
:1005C00021D804EBCB0000F12805A846102F38BF36
:1005D00001F018F8206820FA0BF1C90705D40121B1
:1005E00001FA0BF10843206006E0A86821698842FF
:1005F0002CBF804601F006F8AE60C8F80C60C6F863
:100600000880F5606FE0380A08BF002123D0B0F5FC
:10061000803F28BF1F211ED2A0F58072120C02F06D
:1006200008029040A0F58051090C01F004018840B7
:10063000A0F580431B0CC2F10E0203F00203521A14
:10064000D21A984002EBD032D01D27FA00F101F007
:10065000010101EB420104EB8102002302F59870D5
:10066000F16173613361626822FA01F3DB0707D439
:10067000012303FA01F1114361600660B0611DE0DE
:1006800002681F291DBF4908C1F1190107FA01F1CC
:10069000394600E002465068C008C000B84216D093
:1006A00002F11003C80F03EB80034900186800280B
:1006B000F0D12069834204D31E60B261F660B56058
:1006C00011E003B0BDE8F04F00F09CBF0BE02169E2
:1006D00090688A4228BF8842F3D3C6609560B060B4
:1006E000F2600020B06103B0BDE8F08F2DE9F04169
:1006F000714F05463868884608B9FFF728FDB96884
:1007000001EB08002F30491E20EA010188457DD207
:1007100005F5D876B06828B1326889188A4275D252
:10072000884273D300F080FF01001CBF0C6811F1F8
:10073000010F6BD03068201805F5D872306053680F
:10074000984238BF18467060A86960BB286908B134
:10075000814200D22961316174610020F06105F1AC
:100760002802386868624FF0FF3028620020D260AB
:10077000926002F1080353611361801C103220283B
:10078000F5D34E48854208BFA4F1280228D055F879
:10079000040CC00805EBC002A2F108000A19121AE5
:1007A000283A01461CE005F5E070024600E0926838
:1007B0007AB3136857683B449942F8D1137B1F07FB
:1007C00027D4AB691768BB4223D3D2F804C067446F
:1007D000BB421ED2A444C2F804C0E868A96922182A
:1007E0002846FFF7CDFC1FE08068C0B10368934244
:1007F000FAD1027B130712D4026801604368E4183F
:10080000446043462846BDE8F041D2E40020BDE8FC
:10081000F0812A69914238BF29610A19E5E700236E
:1008200022462846FFF766FEE8688045EED2A0EB38
:100830000800A969E86001EB0802AA6140F0010024
:10084000506048F00300486001F10800BDE8F08105
:1008500038B4194B1A6882B94FF480525A604FF479
:1008600080344FF0FF329C60DA601A610422134C2E
:10087000134D5A61C4F8BC211D6011F1400F17D20D
:100880008269AAB1C368283199420BD200F5E071A0
:100890000C68A24203D34D682C44A24202D389685B
:1008A0000029F5D1C16999423CBF4FF0FF31C161C8
:1008B00032BC002070470000100700201C020020FE
:1008C0006859883C2DE9F84F00258946090AC9F185
:1008D000000B08BF002323D0B1F5803F28BF1F23A2
:1008E0001ED2A1F58072120C02F008029140A1F50F
:1008F00080531B0C03F004039940A1F58044240CA1
:10090000C2F10E0204F00204D21A121BA14002EB43
:10091000D132D11D29FA01F303F0010303EB4203A5
:10092000074607F5987858F8230030B31F2B0FBF00
:100930004C465C08C4F1190409FA04F4AC46594663
:1009400000E064004268D208D200A2EB09028A42A9
:1009500003D21100054600F06881426910304FEA69
:10096000D47B50F82B00002A1CBF824294460028FA
:10097000E7D18B466046B0BBBDBB012000FA03F354
:100980005B00584203437868034000F04D815842B1
:1009900003405B1E180B00F01000C340590901F022
:1009A0000801CB409A0802F00402D3405C0804F02E
:1009B00002040818E3401018C3F34006201830441E
:1009C000F3401B1858F823000DE008464168C90899
:1009D000C900A1EB090159453CBF8B460546016999
:1009E0000029F2D140690028F0D1002D00F01C81CF
:1009F000B868A0EB0900834580F01681386985420C
:100A0000C0F010816868C008C00009EB0B01884283
:100A100018BF00F0F7FD05EB0906B54280F0028132
:100A2000EC68D5F818A0AC420CD0A86839698842A7
:100A300022D3C168A94204BFA168A9421CD1C460E5
:100A4000A0601BE005F11402146834B905F110022E
:100A500014689CB101E01A46146804F11403196883
:100A6000002902BF04F1100318680028F3D1396986
:100A70008A4228BF106001D200F0C4FDBAF1000F15
:100A800036D0E96908EB81000268954209D104601B
:100A9000200014D1E869796801228240914379608D
:100AA00026E03869824508D3DAF81000A84214BF5E
:100AB000CAF81440CAF8104001E000F0A3FDBCB130
:100AC0003869844212D3C4F818A0286930B1396952
:100AD000884226BF2061846100F094FD686938B1C6
:100AE0003969884202D36061846101E000F08AFDC7
:100AF000BBF1100F0CD2D94449F003006860291DE6
:100B0000281D50F8090040F0010041F8090088E074
:100B100049F0030068604BF0010070604FEADB00B1
:100B200046F80BB01F281DD807EBC00101F12804BF
:100B3000396821FA00F2D207A34605D4012202FA4D
:100B400000F00843386006E0A068396988422CBF8D
:100B5000834600F057FDA660CBF80C60C6F808B0DD
:100B6000F4605EE05FEA1B2008BF002123D0B0F5EF
:100B7000803F28BF1F211ED2A0F58072120C02F008
:100B800008029040A0F58051090C01F00401884052
:100B9000A0F580431B0CC2F10E0203F00203521AAF
:100BA000D21A984002EBD032D01D2BFA00F101F09E
:100BB000010101EB4201F16100227261326108EB37
:100BC00081007A6822FA01F3DB0707D4012303FAD4
:100BD00001F1114379600660B0611DE002681F29D0
:100BE0001DBF4908C1F119010BFA01F1594600E096
:100BF00002465068C008C000584518D002F11003E2
:100C0000CC0F03EB8403490018680028F0D1386941
:100C1000834204D31E60B261F660B66001E000F06A
:100C2000F1FC13E100F0EEFC0DE18B46A3E639691F
:100C300090688A4228BF8842F1D3C6609660B0604F
:100C4000F2600020B061ECE72DE9F84F06468846D7
:100C5000716848420140491E080B00F01000C14075
:100C60004A0902F00802D1408B0803F00403D9407E
:100C70004D0805F002051018E9401818C1F34004AA
:100C8000281806F5987A2044E14009185AF82110EE
:100C90004868C008C0000D46A0EB080909E00146FD
:100CA0004868C008C000A0EB080048453CBF81462A
:100CB0000D4608690028F2D149690029F0D1306950
:100CC0008542C0F0BE806868C00808EB090BC00010
:100CD000584518BF00F096FC05EB080085420090CF
:100CE00080F0AF80EF68AC69AF420CD0A868316982
:100CF000884222D3C168A94204BFB968A9421CD165
:100D0000C760B8601BE005F11402176837B905F138
:100D1000100217689FB101E01A46176807F1140323
:100D20001968002902BF07F1100318680028F3D1E1
:100D300031698A4228BF106001D200F063FC002CA8
:100D400031D0E9690AEB81000268954208D1076059
:100D50008FB9E8697168012282409143716022E095
:100D60003069844205D32069A84214BF67612761B6
:100D700001E000F047FCB7B13069874211D3BC6194
:100D8000286930B13169884226BF3861876100F037
:100D900039FC686938B13169884202D3786187616A
:100DA00001E000F02FFCB9F1100F0BD24BF0030063
:100DB0006860291D281D50F80B0040F0010041F823
:100DC0000B003DE048F00301696049F00100291D76
:100DD00041F80800009840F80990D6F808804FEADA
:100DE000D80BBBF1200F28BF00F00CFCB8F1000FAE
:100DF00022D006EBCB00776900F12804A246B8F1B7
:100E0000100F38BF00F0FEFB306820FA0BF1C90765
:100E100005D4012101FA0BF10843306006E0A06817
:100E2000316988422CBF824600F0ECFBA760CAF80B
:100E30000C70C7F808A0FC60C6F8089000987061B4
:100E400004E000F0DFFB0020BDE8F28F05F10800B0
:100E5000BDE8F28F2DE9FE4F0546AFF30080F52D7A
:100E6000DFF89C6780F004810B2D31BF10250B3516
:100E7000ED08ED003068EC08E04010F0030F46D0BC
:100E8000C04300F00100041906F1280000EBC4087B
:100E9000E700D8F808506868C008C000B84218BF1A
:100EA00000F0B0FBD5F80890454508BF00F0AAFB5C
:100EB0004D4508BF00F0A6FB6868C008C000B842F6
:100EC00018BF00F09FFBC84507D13168012000FA28
:100ED00004F421EA040434600DE03069814508D34C
:100EE000D9F80C00A84204D1C8F80890C9F80C80C1
:100EF00001E000F087FB47F003006860291D281D12
:100F000005F10804C05940F00100C851F8E0B1688B
:100F1000A94280F0BE80002800F0A1804FF00108B7
:100F200008FA04F1490000FA04F4484201430C4075
:100F300060420440641E200B00F01000C4406109B0
:100F400001F00801CC40A20802F00402D44063087A
:100F500003F002030818DC401018C4F34007181807
:100F60003818FC40241806F1280000EBC40AE700FA
:100F7000DAF80890D9F80400C008C000B84218BFD9
:100F800000F040FBD9F808B0D14508BF00F03AFBAB
:100F9000D94508BF00F036FBD9F80400C008C000EE
:100FA000B84218BF00F02EFBDA4506D1316808FAC6
:100FB00004F421EA040434600DE03069834508D369
:100FC000DBF80C00484504D1CAF808B0CBF80CA0F7
:100FD00001E000F017FB45F00300C9F804007F1B97
:100FE00009F1040147F00100485109EB05000190A7
:100FF000C751B4684FEAD40ABAF1200F28BF00F0F5
:1010000001FB34B3CDF800A006F12800756900EBB0
:10101000CA0AD346102C38BF00F0F4FA31680098A1
:1010200021FA00F2D30704D408FA00F00843306034
:1010300007E0DAF80800316988422CBF834600F0E7
:10104000E1FACAF80850CBF80C50C5F808B0C5F85A
:101050000CA0B76009F108040198706150E0706855
:10106000C0B329463046FFF7EFFD040011D047E03A
:1010700015F1400F28BF4FF0FF350AD20B35ED08B0
:101080007068ED0028B129463046FFF71BFC0400CC
:1010900036D1B068A8421DD3411B726910290AD30A
:1010A00050197061B16041F001034360415045F057
:1010B000030555600BE00021B1607161131D40F024
:1010C00003015160111D095841F00101195002F14D
:1010D000080415E0F06885420DD2401BB169F0604C
:1010E0004A19B26140F00100506045F003054D60BF
:1010F00001F1080404E029463046FFF7F7FA0446F8
:10110000AFF300802046FFF7EEBA002800D1704709
:101110002DE9FC47A0F10805AFF30080DFF8E0649B
:1011200032699542C0F05982686800F003010129D4
:1011300000F05382C1084FEAC109C10705EB090855
:1011400039D42C6810F0030F00F049826042054446
:101150009542A144C0F041827069854200F0C78089
:10116000E408202C5ED2D5F80CA0AF68554508BF26
:1011700000F048FABD4208BF00F044FA6868C008B1
:10118000C000B0EBC40F18BF00F03CFA06F1280015
:1011900000EBC400874205D031698F423FD3F96824
:1011A000A9423CD1BA452CD13068012101FA04F49E
:1011B00020EA04043460454580F00F82D8F80440EA
:1011C000E00740F10A82A00700F16881B06980451C
:1011D00040F0A080F068B5618144C6F80C9049F0F9
:1011E000010068607069854202D100207061B060C2
:1011F000F069484580F0F38100213046FFF728FB75
:10120000EDE1824506D03069824508D3DAF808005E
:10121000A84204D1C7F80CA0CAF80870CBE700F0C8
:10122000F1F9C8E7EC68AF69AC420BD0A86890420E
:1012300023D3C168A94204BFA168A9421DD1C460DB
:10124000A0601CE005F114031C6834B905F110031B
:101250001C68A4B101E063461C6804F1140CDCF8BE
:101260000010002902BF04F1100CDCF80000002877
:10127000F1D1934228BF196001D200F0C3F9002FC9
:1012800099D0E96906F5987000EB810002689542F3
:1012900009D10460200011D1E869716801228240FF
:1012A0009143716087E73069874205D33869A84266
:1012B00014BF7C613C6101E000F0A4F9002C3FF414
:1012C0007AAF31698C42AAD3A761286928B18842D4
:1012D00026BF2061846100F095F9686900283FF419
:1012E0006AAF316988429AD36061846163E798F894
:1012F000040000F0030003287FF45DAFC6F80890F7
:1013000049F00101D8F8040040084000C8F8040082
:1013100069600AE0706980450AD1B06875618144EE
:10132000C6F8089049F00100686045F8099056E158
:10133000E408E400A144E408202C3AD2D8F80CA038
:10134000D8F80870D04508BF00F05CF9B84508BF70
:1013500000F058F9D8F80400C008C000B0EBC40F82
:1013600018BF00F04FF906F1280000EBC4008742D7
:1013700007D031698F42C0F08480F968414540F060
:101380008080BA4507D13068012101FA04F420EACF
:101390000404346077E0824506D031698A4570D311
:1013A000DAF8080040456CD1C7F80CA0CAF80870FC
:1013B00069E0D8F80C40D8F8187044450DD0D8F83A
:1013C00008003169884222D3C168414504BFA16841
:1013D00041451CD1C460A0601BE008F114021468F0
:1013E00034B908F1100214689CB101E01A4614687F
:1013F00004F114031968002902BF04F110031868EE
:101400000028F3D131698A4228BF106001D200F070
:10141000F9F8002F37D0D8F81C1006F5987000EBBB
:101420008100026890450AD10460200012D1D8F8EA
:101430001C007168012282409143716023E0306991
:10144000874205D33869404514BF7C613C6101E0A7
:1014500000F0D8F8BCB131698C4212D3A761D8F83A
:10146000100028B1884226BF2061846100F0CAF8CC
:10147000D8F8140038B13169884202D360618461C0
:1014800001E000F0BFF849F00100686045F80990FC
:10149000706985420BD1C6F80890A0E0640864002A
:1014A000C8F8044049F00100686045F809904FEA27
:1014B000D907202F22D206F1280000EBC704A0464E
:1014C000B9F1100F38BF00F09DF8306820FA07F12D
:1014D000C90705D4012101FA07F70743376006E081
:1014E000A068316988422CBF804600F08BF8A56067
:1014F000C8F80C50C5F80880EC6070E05FEA19206D
:1015000008BF002123D0B0F5803F28BF1F211ED285
:10151000A0F58072120C02F008029040A0F58051F4
:10152000090C01F004018840A0F580431B0CC2F1B6
:101530000E0203F00203521AD21A984002EBD03284
:10154000D01D29FA00F101F0010101EB420106F57D
:10155000987202EB810000226A612A61E961726877
:1015600022FA01F3DB0707D4012303FA01F1114347
:1015700071600560A8611DE002681F291DBF490850
:10158000C1F1190109FA01F1494600E0024650682B
:10159000C008C000484526D002F11003CC0F03EB71
:1015A0008403490018680028F0D13069834204D3CD
:1015B0001D60AA61ED60AD6001E000F023F8306AC3
:1015C000401E30620BD1D6F8C80100E080680028C8
:1015D000FCD14FF0FF30306201E000F013F8AFF3C0
:1015E0000080BDE8F387316990688A4228BF88424D
:1015F000E3D3C5609560A860EA600020A861DEE7DB
:101600001C020020012000F025B8B1F5807F02D334
:101610004FF0FF3070470170012070470078401E86
:101620008041C043C00F70470749086808B10020D7
:1016300070470648C008C00008600549C908C900CD
:10164000091A0160704700BF30070020470B0020D7
:10165000400D002080B5AFF30080024A1100182031
:10166000ABBEFBE7260002002DE9F84F74A7A2B03D
:10167000D7E90045CDE900452C9EDFF8307C049188
:101680008DF843605FF000016FA40D9112944FF04C
:10169000FF368246904699460FE0C3462C461BF81B
:1016A000011B0498D0470028049000F0B2800D98E8
:1016B000401C641E0D90F2D1A84498F80000252823
:1016C00007D100210791089109910A910B910C9182
:1016D0000DE06A463146404600F0E6FF050001D1C4
:1016E0000D98B5E0D9D50125E6E741F0010118F8DC
:1016F000010F2028F9D023280CD02B2804D02D2826
:1017000005D0302809D086E041F00201EFE741F032
:101710000401ECE741F00801E9E741F01001E6E7D8
:1017200000200F900AE00F98B84205DA00EB800322
:1017300002EB4302303A0F9208F1010898F80020BA
:10174000A2F130000A28EED398F800002E2818BF26
:101750000E9629D118F8010F2A280BD1D9F80000CC
:10176000C9F8000008F1010850F8042BC9F800007E
:101770000E9219E02D280CBF18F8010B0020002252
:101780000E920BE040B90E9ABA4205DA02EB8204DF
:1017900003EB4403303B0E9308F1010898F8003046
:1017A000A3F130020A2AEDD3ADF84010129898F850
:1017B000001000F083FF08B118F8010B8DF842000B
:1017C0009DF84200682804BF98F80010682903D1EA
:1017D00062208DF8420008E06C2804BF98F80000F1
:1017E0006C2804D171218DF8421008F1010813A86A
:1017F00006904A4618F8013B02A9504600F068F8E6
:1018000038B913AA02A9504600F0CAF900287FF59A
:1018100054AF30461CE02A2882D1D9F80020C9F8FC
:10182000002052F8040BC9F8002000280F9003D5BF
:1018300040420F9041F0040108F1010884E70000E4
:101840000000000000000000686A6C747A4C000020
:1018500023B0BDE8F08F622820D0682811D06A2814
:1018600003D06C2827D0712825D10868C01D20F02E
:1018700007000860D0E900230830086019461046C8
:101880007047002A0A680A60106803D0121D0A60B7
:1018900000B217E0121D0A6080B217E0002A0A6841
:1018A0000A60106803D0121D0A6040B20AE0121DDF
:1018B0000A60C0B20AE0002A0A680A60106803D011
:1018C000121D0A60C1177047121D0A60002170477F
:1018D0007CB50D4611461C462E69B4F1250200F078
:1018E0004D811C3A00F08680121F022A40F282804D
:1018F0000E3A00F00781521F5AD0093A7AD0921E50
:1019000016D0521E35D0521E022A73D9121F30D063
:10191000521F00F09A80521E4AD0521E00F0E480FE
:10192000D21E00F0FD80921E42D0D21E40D02BE18C
:1019300095F83A206C2A09D06869421C6A610A68E5
:101940000A6052F8043B0A60335427E10A680A60CF
:1019500052F8043B0A600021009301914FF0FF32DE
:101960002A6329466A4600F096F9002840F116815C
:1019700001E195F83A000122FFF76DFFC5E900018A
:101980000023994204DA6869411C69612D210DE048
:10199000288F810704D56869411C69612B2105E006
:1019A000C00722D56869411C6961202131541CE0BF
:1019B00095F83A000022FFF74EFFC5E9000195F8BF
:1019C0003800010711D5D5E900230020834208BF64
:1019D00082420AD044F02000782806D1686930217C
:1019E0003154401C411C69613454214668693044BB
:1019F000E86083E00868C01D20F007000860D0E9B7
:101A0000002308300860C5E90023D5E90001C80FAC
:101A100004D06869411C69612D210DE0288F810780
:101A200004D56869411C69612B2105E0C00704D514
:101A30006869411C69612021315468693044E8605B
:101A40002146284600F032FAA8E005F13A02507823
:101A500020B14FF0FF340FF6243070E01078622888
:101A600008D0682824D06A2812D06C282ED071287B
:101A70000ED02BE00A680A6052F8040B0A6020B905
:101A80004FF0FF340FF60C3059E0E96A017085E041
:101A90000A680A6052F8040B0A6020B94FF0FF345C
:101AA0000FF6F0204BE0EA6AD317C0E9002375E097
:101AB0000A680A6052F8040B0A6020B94FF0FF343C
:101AC0000FF6D0203BE0E96A018067E00A680A600F
:101AD00052F8040B0A6020B94FF0FF340FF6B4201F
:101AE0002DE0E96A016059E00A680A6052F8040BC7
:101AF0000A600021C5E90001EE607821284600F067
:101B000029F94BE06C2285F83A200B680B6053F8FA
:101B1000042B0B6052BB4FF0FF340FF6AC200EE0ED
:101B200095F83A206C2AF0D00868086050F8044B09
:101B30000860EC603CB94FF0FF340FF6702000F005
:101B4000C9FD201A76BD2E6B002E04D5204600F06C
:101B5000E1FD044608E032460021204600F0F6FD93
:101B6000002814BF041B3446AC6117E0294600F07E
:101B700092F8002812D54FF0FF3076BD6869411CFD
:101B800069612521315409E06969481C6861252291
:101B90007254210002D0411C69613454002076BD8A
:101BA0002DE9F0410E460546716B7069B46A091A59
:101BB000306A091AB069091A706A091AF069091AB3
:101BC00096F838000C1B410790460DD4002C0BDD15
:101BD0002746B0682021A8470028B06057D0F06A97
:101BE000401C7F1EF062F4D173694246314628469C
:101BF00000F0ACFC00284AD1376A002F0ADDB0683B
:101C00003021A8470028B06041D0F06A401C7F1EF8
:101C1000F062F4D1B369F2683146284600F096FCD0
:101C2000A8BB776A002F09DDB0683021A847B060F3
:101C300068B3F06A401C7F1EF062F5D1F068B169AC
:101C4000F36942183146284600F080FCF8B9B76ABB
:101C5000002F09DDB0683021A847B060B8B1F06A44
:101C6000401C7F1EF062F5D196F8380041070BD575
:101C7000002C09DDB0682021A847B06038B1F06AB7
:101C8000401C641EF062F5D10020BDE8F0814FF0E9
:101C9000FF30BDE8F0812DE9F8470D46A3B02F6B6A
:101CA000002F8146904648BF6FF0004700F07AFD54
:101CB000696B40180FF62C118128D1E90023CDE97A
:101CC000012328BF4FF0FF303ED20024002F2FDD2C
:101CD000D8F8001001AA684600F0E8FC0646002E7D
:101CE00035D4D8F8000008B9761E30D4B7421FDBCF
:101CF0006869301881280AD30020686303AA29463E
:101D00004846FFF74DFF040012D40020686103A885
:101D1000D5F814A032466946504400F049FDB2445B
:101D2000C5F814A058F8040B002818BFBF1BCDD16C
:101D30002CB903AA29464846FFF732FF044614B9D6
:101D4000002068616863204624B0BDE8F0874FF04A
:101D5000FF34F8E72DE9FC4707468A463E69BAF1A9
:101D60006F0F08BF082405D04AF02001782914BF5E
:101D70000A2410243C25D7E90023BAF1640F18BFC8
:101D8000BAF1690F9046994606D100218B4203DAD9
:101D9000D8F1000869EB49090020814508BF80455A
:101DA0001FD1386BE8B9082C4CD197F838000107DF
:101DB00048D530203B2586F83B0043E000280ED56F
:101DC00097F8380000F01400102808D17A6B786971
:101DD000121A386A121A511A0029C8BF3962BDE8AE
:101DE000F3878DF800A0404649462246E31700F0ED
:101DF00033FD3032D0B26D1E3A28019504DB9DF8D8
:101E00000000A0F151018A18725540464946224609
:101E1000E31700F021FD804689460020814508BF78
:101E2000804503D0F86871198842DCD3082C09D1A9
:101E300097F83800010705D5715D302902D06D1E75
:101E400030207055C5F13C01B9617019F860386BEC
:101E50008142B3DA411A39624FF6EF70398F01408F
:101E60003987BDE8F3872DE9D04306460F4614466F
:101E70004FF00008DFF8389412E0E00707D542463B
:101E80004B463046394600F0FFFD06460F464046B9
:101E9000494642464B4600F0F7FD641080468946AD
:101EA000002CEAD130463946BDE8D0832DE9F34F06
:101EB000054641F020048DB0D5E90089612C02AEC1
:101EC00009D0286B002848BF062003D408BF672C20
:101ED00001D101202863D5E9002358004015401C9A
:101EE0000ED119030CD00320A8619DF83800613889
:101EF0001A2802D20FF2F46111E00FF2F4610EE041
:101F000058004015401C0FD119030DD10320A861C2
:101F10009DF8380061381A2814D30FF2DC61E868A4
:101F2000032200F045FCD3E1194621F00043B3F54C
:101F3000801F10460DD20027BB4208BFBA4201974E
:101F400003D111E00FF2AC61E9E701AA00F06EFEE7
:101F50000AE0DFF8607307EB1352DFF85C3301929D
:101F60001940DFF858331943C5E90001612C0ED13F
:101F7000E86830210170811CE9609DF83810612902
:101F80000CBF7821582141706869801C6861D5E9CF
:101F900000AB2BF0004300202AF00002834204BF74
:101FA0008242002300F05A81612C40F0A980286B06
:101FB00000284CBF2120401C00904046009F7F1C01
:101FC00049460022002300F069FED94601988DF8A9
:101FD000082038BF89F00049001F0190002FD0462B
:101FE0000DF1090040F3498140F2FF71DFF8D0B2F2
:101FF0000C910646404649460022002300F066FE4A
:1020000080F03A814800400D00F11C0210D0002AF7
:102010000EDD0C98824205DB09F0004040EA0B011E
:10202000002013E0A448084040EA025140460DE079
:1020300029F00043002028F00002834208BF8242BA
:102040000FBF40461C22404600F058FE804689469D
:1020500000F0F2FEFF1F002F044609DD00F00AFF2A
:1020600002460B464046494600F016FF8046894628
:10207000F01D072104E004F00F0200F8012D2411E7
:10208000002C01DD491EF6D5491E5CBF002200F878
:10209000012DF9D5ECE00020194602AA0A4400E01F
:1020A0005B1E12F80149491E8442F9D00F2804D161
:1020B0000DF10900425C521C4254002904D50198DC
:1020C000001D02AE5B1C0190591E12D49DF8380011
:1020D0007218147804F130085FFA88F4392CC4BF00
:1020E000A0F13A04A044491E02F80189F1D58DF807
:1020F0003800286B002840F1B080591E2963ACE0FD
:10210000404649460022002300F0C8FD019938BF2F
:1021100089F0004947F2975041436A4A91FBF2F235
:102120000192D2F1070204DD40464946FFF79BFECB
:102130000AE0524200206449FFF795FE02460B4632
:102140004046494600F01AFF8046662C286BDFF8AF
:102150007CB106BF019F0A3706273F18142FC8BF5E
:10216000142730208DF8080089460DF1090000E0A1
:102170003046002F34DD06464046494601F022F83D
:1021800001460A4606F1080304200A26B2FBF6F6C9
:1021900006EB860EA2EB4E02303203F8012C0A2227
:1021A000B6FBF2F202EB820EA6EB4E063036401E74
:1021B00003F8026DE9D1083F002F03F10806D7DDCF
:1021C000084601F013F802460B464046494600F027
:1021D00063FE00225B4600F057FC80468946CBE751
:1021E0000DF10901401A0DF1090604E00199491E9B
:1021F000401E0191761C31783029F7D0662C02D12F
:102200000199491C03E0652C0CBF012100212B6BB7
:10221000CB189842B8BF431E002B1ED4834204DA69
:10222000F05C3528A8BF392000DA30201946721E2C
:1022300002EB010800E05B1E18F80199491E814578
:10224000F9D0392802D1705C401C7054002904D5A3
:102250000198401C16465B1C0190019800B200904A
:102260001BB29DF838103246284600F035F82FE0B2
:10227000C61D002F3FF7BEAE30460DF10901401AD2
:10228000009903468842C8BF0B46002B0DF1090692
:102290003FF52FAF8342BFF6FEAE0DF10900C05CE3
:1022A00007287FF7F8AE0F20F6E60000CBCCCC0C69
:1022B0000000244002FCFFFFFFFF0F800000E03F12
:1022C0000000F07FA08601000000F03F84D7974116
:1022D0000FB0BDE8F08F00002DE9F84783B0064647
:1022E0008A461746984600F0E3F9B8F1000F406AB5
:1022F000356B90F8009002DC4FF00108BFA7BDF9E4
:1023000030404AF02000662808BF641C15D06728BA
:1023100040F0848014F1040FC0F28680AC4280F259
:10232000838096F83800641C010702D4A845B8BF22
:10233000454620B22D1A48BF00250FFA84FAF068EE
:10234000B169BAF1000F25DC4A1C30234354002D3B
:1023500003DC96F83800010703D5F06800F8029016
:10236000521C15EB0A0FB8BF6C4220B2441941420F
:102370004445B8BFA046B26171620FFA88F5F561B5
:10238000F068B3692A463946184400F011FA641B14
:10239000B462C4E022B29045084417DA4246394696
:1023A00000F006FAB0694044B061AAEB0801002DC4
:1023B000716203DC96F838100A0705D5F16801F858
:1023C0000090F069401CF061B562A8E0394600F069
:1023D000EFF9B069002D5044A8EB040803DC96F82F
:1023E00038100A0703D5F16801F80090401CB0616D
:1023F0000FFA88F08542F068B369B8BFA8460FFAB3
:1024000088F207EB0A01184400F0D2F9B0690FFA1C
:1024100088F10844B061681A706280E0BAF1610F17
:1024200014D14FF0700A16E0A84504DA96F8381077
:102430000A0758BF45466D1E48BF0025BAF1670F11
:1024400014BF4FF0450A4FF0650A04E0BAF1410F9E
:1024500008BF4FF0500AB169F368481CB061002D05
:1024600017F8012B5A5403DC96F838100A071BD5CD
:10247000F168431CB36101F80090002D14DDA8F150
:1024800001080FFA88F08542F068B8BFA8460FFA35
:1024900088F23946184400F08BF9B0690FFA88F1D8
:1024A00008446D1AB0617562F068B1690844002C87
:1024B00080F800A003D42B214170811C03E02D2162
:1024C00041706442811C00206A460AE023460A24C7
:1024D00093FBF4F404EB8405A3EB450302F8013B02
:1024E000401C24B2002CF1DC012806DC4AF020025A
:1024F000652A04BF302201F8012B48B9302001F8C9
:10250000010B07E0401E1DF80020303201F8012BBE
:102510000028F7DCF068B2691044091AF16196F8F6
:10252000380000F0140010280DD17169B06941180D
:10253000706A4118F0694118B06A4118706B8142A5
:10254000BCBF411A316204B0BDE8F087F8B505465A
:102550000E4617461C46002074B117F8011BB068E0
:10256000A847B06030B1F06A401CF0620020641EE1
:10257000F3D1F2BD4FF0FF30F2BD00007072696E12
:1025800074665F733A20256E20646973616C6C6FAA
:10259000776564007072696E74663A2062616420C7
:1025A000256E20617267756D656E74007072696E5C
:1025B00074665F733A2062616420257320617267DC
:1025C000756D656E740000007072696E74665F737D
:1025D0003A2062616420256C7320617267756D65B5
:1025E0006E74000000000000000000006E616E00CC
:1025F0004E414E00696E6600494E460030008268CA
:10260000521C8260426832B10268531C0360117030
:102610004168491E41607047613807E005E0A0F15C
:1026200061011A2901D20120704741381A288041DE
:10263000C00F7047A0F10901052901D3202801D15D
:1026400001207047002070471A48704730B4536823
:10265000D418042B09DA41B1057804F8015B10F8AD
:10266000015B15B15B1C491EF3E7536030BC70473A
:1026700038B514461D4661B1FFF7E8FF61686A6B23
:10268000204690476FF00102811A02D0491E03D004
:1026900005E06FF0010032BD4FF0FF3032BD002188
:1026A000616032BDDA6B1047024BE1E7014BF9E79D
:1026B00001487047D40100209C0100200278C9B273
:1026C0008A421AB11CBF10F8012FF9E718BF002089
:1026D0007047000080B500B906A005490B681BB122
:1026E00022220021984701E0FEF78CFF222002BD44
:1026F00034070020636F6E73747261696E742068B2
:10270000616E646C65723A20626164206D657373FA
:102710006167650000F10103810704D010F8011B17
:1027200089B18107FAD10268B2F10131914311F008
:10273000803F04BF50F8042FF6E710F8011B11B1D9
:1027400010F8011BFBE7C01A70470000C9B28307ED
:1027500006D0521E22D310F8013B9942F7D11FE058
:10276000083A13D302F1040241EA012141EA01418E
:1027700050F8043B121F21BF4B40A3F1013C2CEA4F
:10278000030C1CF0803FF3D0C9B2001F083210F8D0
:10279000013B521E28BF91EA030FF8D818BF012051
:1027A000401E704780B5FFF74FFF006C02BD000070
:1027B00062B38B0708D0521E11F8013B00F8013BB1
:1027C00000F024808B07F6D1830740F0208000BF03
:1027D000103A07D330B4B1E83810103AA0E83810F6
:1027E000F9D230BC530724BFB1E80810A0E80810A4
:1027F00044BF51F8043B40F8043BD20724BF31F8F2
:10280000022B20F8022B44BF0B7803707047121F75
:1028100017D35B0009D151F8043B20F8023B1B0C95
:10282000121F20F8023BF6D20BE051F8043B00F8EF
:10283000013B1B0A20F8023B1B0C121F00F8013B56
:10284000F3D238BF121D521E24BF11F8013B00F80D
:10285000013BF8D870470000B3BBD9B1B2F5803F57
:102860007DD2022A1ED98C46B1FBF2F102FB11C3C4
:102870001B0443EA1043B3FBF2FC02FB1C3380B29F
:1028800040EA0343B3FBF2F002FB103240EA0C4093
:1028900000237047022A05D98446B0FBF2F002FB00
:1028A00010C270474AB105D100F0010249085FEA41
:1028B0003000704700220023704700F0A5BC0B00D9
:1028C0000200002100207047904271EB030CF6D308
:1028D000B3F5803F2FD2F0B5B3FA83F7B1FA81F4A4
:1028E000A7F10F0E3D1B5340CEF1200602FA0EF267
:1028F000F3415340B5F10F0746D80F3C2C444140FB
:10290000C4F12006A040F1414140B1FBF3F603FBC6
:102910001611A2FB0645001BA94102D2761E8018A3
:10292000594180EA010221FA0EF362FA0EF2002107
:102930005A403046F0BD30B4B1FBF3FC03FB1C1130
:10294000A2FB0C45001BA94103D2ACF1010C80187D
:10295000594130BC02460B46604600217047B2F137
:10296000807F65D3F0B5B2FA82F7B1FA81F4C7F18E
:102970000F063D1B22FA06F307F1110EF241203536
:102980005A40B5F10F07B8D94140C4F12006A04024
:10299000F1414140B1FBF3FC03FB1C11A2FB0C45D0
:1029A000001BA94103D2BCF1010C801859410F2F23
:1029B00012D30F3FC90341EA5041B1FBF3F603FBC9
:1029C0001611A2FB0645D4EBC030A94102D2761EF7
:1029D0008018594146EACC3C07B34140C7F1200674
:1029E000B840F1414140B1FBF3F603FB1611A2FBE5
:1029F0000645001BA94102D2761E8018594180EA83
:102A0000010221FA0EF3C7F1200462FA0EF20CFA69
:102A100007F05A402CFA04F13043F0BD80EA01027D
:102A200021FA0EF3002162FA0EF260465A40F0BD20
:102A30008C46B1FBF2F102FB11C31B0243EA1063A7
:102A4000B3FBF2FC02FB1C331B024CEA002043EAFE
:102A50001063B3FBF2FC02FB1C331B024CEA0020A8
:102A600043EA1063B3FBF2FC02FB1C331B024CEA8B
:102A7000002043EA1063B3FBF2FC02FB1C324CEA79
:102A80000020002370470000B0B581EA030C0CF071
:102A9000004C40F2FF7515EA11541DBF15EA13579B
:102AA000AC42AF4239E0E41923EA455343F48013C2
:102AB000C90241F0004141EA505EC7021100A7FB84
:102AC000020200284FF00000EEFB01204FF0000151
:102AD000E3FB072118BF42F00102401800214941E1
:102AE000E3FB0E01A4F580640F0302D252004041C3
:102AF000494154F101046CDD470872F1004250F184
:102B0000000051EB0451A1F580115CBF41EA0C01BA
:102B1000B0BD4CEA05510020B0BD05EA1357AC42E8
:102B200014BFAF4241E050EA410E1CBF52EA430ECF
:102B300002E061460020B0BD24423C441BD15FEA64
:102B4000070EF6D0090302BF01460020AEF1140EB5
:102B5000B1FA81F7AEEB070401FA07FE0C37C7F1B3
:102B6000200100FA07F7C8404EEA000E23EA455359
:102B700043F48013A2E733F00043B3FA83F704BFB2
:102B8000B2FA82FE77440B3FE41BB7F1200E2FBF51
:102B900002FA0EF3BB40C7F1200E22FA0EFE38BF38
:102BA00043EA0E03BA40641C82E750EA410E14BFA8
:102BB00052EA430E6FF000014FF4001717EB430F7A
:102BC0008ABF194617EB410FB5E74CEA05510020C3
:102BD000B0BDD4F10104B4F120070FDAC4F120072D
:102BE000520828BF42F0010210FA07F501FA07F770
:102BF000E1BF2A43E0403843E1400FE0352C98DC48
:102C0000C7F1200452EA400220FA07F218BF42F04E
:102C1000010231FA07F0A1400A43002172F100429B
:102C200050F1000051EB0C01B0BD000010B514468E
:102C300000F002F8226010BDC1F30A5343B14A000C
:102C400012F5001F28D2A3F2FE32A1EB0251704709
:102C500050EA410C20D001F0004C31EA0C01B1FAED
:102C600081F204BFB0FA80F3D2180B3AB2F120031C
:102C70002CBF00FA03F1914041EA0C013EBFC2F1C2
:102C8000200C20FA0CF319439040524240F2FD33DD
:102C9000D21A01EB03517047002270474FF4001C19
:102CA0001CEB410F94BF1CEB430F09E041EA030CFE
:102CB00050EA4C0C52EA0C0C03D2994208BF9042E5
:102CC000704714BF8B428242704700004FF4001CD3
:102CD0001CEB410F94BF1CEB430F09E041EA030CCE
:102CE00050EA4C0C52EA0C0C03D28B4208BF8242D1
:102CF000704714BF9942904270470000124254D46A
:102D000040F2FF7C1CEA11530FD0634531D09B1871
:102D100063453CBF01EB0251704701F0004141EABD
:102D20000C510020AFF30080704750EA410320D0DF
:102D300001F0004C91EA0C011CD0B1FA81F30B3B7D
:102D40009A420DD9D21A994051EA0C01C3F1200CD4
:102D500020FA0CFC61449840531C40F2FF7CD7E7FA
:102D6000914041EA0C01C2F1200C20FA0CF3194306
:102D700090407047B0FA80F31533202BE0D3202A1F
:102D8000EED3203A203B9A4209D9D21A00FA03F135
:102D900041EA0C010020531C40F2FF7CB8E700FA26
:102DA00002F141EA0C0100207047524240F2FF7CE0
:102DB0001CEA11530DD06345DBD0B2EB030C3CBFD2
:102DC000A1EB025170470CF1010221EA035141F4D9
:102DD000801150EA410CCCD001F0004C352A27DCA0
:102DE00030B481EA0C01B2F1200309DAC2F1200308
:102DF000044601FA03F5D0402843D1409C400CE042
:102E0000C3F12002450020FA03F418BF44F0010486
:102E100021FA03F091400C43002174F1004550F178
:102E2000000051EB0C01244230BC7FF47BAF7047B3
:102E30006146002076E70000C1F30A5340F2FE32FB
:102E40009B1A14DDD3F120034FEAE17208DDC902B9
:102E500041EA505141F00040D8408018504070473E
:102E600003F2E13010B1D24382F0004070470020FD
:102E700070470000C11768B14840401AB0FA80F2AC
:102E80009040D21CC907C2F5846241EA025202EBAB
:102E9000D02140057047000070B44FF0004591EA22
:102EA000030F40F1BB816B40841A71EB030603D220
:102EB000001BB141121973414FF4001C1CEB410F70
:102EC00034BF7CEB430442E00C0DA4EB1356352ECB
:102ED0004FDC45EAC323DB0A45EAC121C912B6F13A
:102EE00020050DDD63FA05F6EB4086EA0305124284
:102EF00018BF45F00105C01851F100010CD213E0D4
:102F000062FA06F5F2405540F3415A40B340F340AF
:102F10005A408018594107D349085FEA30005FEAF8
:102F2000350528BF45F0010501F58011420875F10E
:102F3000004250F1000041EB04514E0016F5001F15
:102F400070BC38BF70470020090D090570471CEBA5
:102F5000410F10D252EA43060BD0BCEB410F05D80B
:102F60000C0DAB43661E342EB6DD02E0AB43801879
:102F7000594170BC704770BC70470000F0B540F21A
:102F8000FF7581EA030C0CF0004C15EA11541DBFCB
:102F900015EA1357AC42AF42E5E0BC41C1F313015F
:102FA000C3F31303801A994143F4801304D2641EBF
:102FB0004000494180185941C90241EA5051B1FBD2
:102FC000F3F603FB1611A2FB0675D7EBC020A9414F
:102FD00002D2761E80185941C90241EA5051B1FB14
:102FE000F3FE03FB1E11A2FB0E75D7EBC020A94117
:102FF00003D2AEF1010E80185941890241EA905185
:10300000760546EA8E2EB1FBF3F603FB1611A2FB02
:103010000675D7EB8020A94102D2761E801859414F
:10302000C90241EA50514EEA060EB1FBF3F603FB2A
:103030001611A2FB0675D7EBC020A94102D2761E5D
:1030400080185941C90241EA5051B1FBF3F703FB23
:103050001711A2FB0735D3EBC020A94167F1000788
:103060000CBF004247F0010766F3D5274FEA1E3137
:10307000B80814F5806412DDBD0775F1004250EB0D
:103080000E5051EB045111F5801F5CBF41EA0C0159
:10309000F0BD4CF07F6141F0E0410020F0BDBD0784
:1030A0006D0840EA0E5041F48011D4F10104B4F1EE
:1030B00020060ADAC4F120060200E04001FA06F315
:1030C000E1401843B24015430EE0342C13DCC6F146
:1030D000200445EA40056D0820FA06F2154321FA5E
:1030E00006F0A1400D43002175F1004250F10000AF
:1030F00051EB0C01F0BD00205FEA0C01F0BDCFB92F
:1031000092185B41B3FA83F704BFB2FA82F6BF1993
:103110000B3FB7F120062FBF02FA06F3BB40C7F101
:10312000200622FA06F638BF3343BA401CB1E41930
:10313000641E33E77F4231F00041B1FA81F404BFED
:10314000B0FA80F6A4190B3CB4F120062FBF00FAA8
:1031500006F1A140C4F1200620FA06F638BF31433B
:10316000A0403C1B1AE7AC421ABF05EA1357AF4216
:1031700012E050EA41061CBF52EA4306BFE750EA9C
:103180004107304661461CBF41EA0551F0BD52EA95
:10319000430C08BFC143F0BD00204FF4001616EBEE
:1031A000410F98BF16EB430F08BF16EB410F24BF2A
:1031B000C14305E016EB430F0CBF61464CEA0551D5
:1031C000F0BD0000400D491840EA81200CD2490DA5
:1031D000A1F58061491C40F0004005DBD1F11F01E1
:1031E00054BFC840C017704700207047014648B11F
:1031F000B0FA80F18840C91CC1F58461090501EB72
:10320000D0214005704700007047000070B44FF0B7
:10321000004591EA030F7FF547AE6B40841A71EBCE
:10322000030604D26E40001BB141121973414FF4E2
:10323000001C1CEB410F34BF7CEB430682E00C0DFD
:10324000A4EB1356362E7BDC012E45EAC32341DC6A
:1032500043EA525312BFD20292025B08240545EAA8
:10326000C12141EA5051D2EBC020994125D407D168
:10327000B0FA80F610FA06F162D00020203608E09D
:10328000B1FA81F6B140C6F1200220FA02F21143F0
:10329000B0404FEAF474B4EB465434F001064FEA00
:1032A00074040AD8D6F50016760D04F00044F040F8
:1032B00061FA06F25040F1404840C00A40EA4150ED
:1032C00021F0004128BF5FEA500550F1000044EBB7
:1032D000D12135E0DB0A45EAC121C90AB6F1200552
:1032E0000EDD42EA0242120CC5F1200603FA06F690
:1032F000EB4042EA06056D42984161F100010DE0A4
:1033000062FA06F5F240554063FA06FC82EA0C02C6
:10331000F3405A406D42904161EB030111F4801F6C
:1033200005D1641E620502D06D004041494121F47F
:103330008011430875F1004350F1000041EB045146
:1033400070BC70471CEB410F15D223F0004352EACA
:1033500043060BD04FEA4C0CBCEB410F04D80C0DCC
:10336000661E342EB7DDEBE7801A994150EA41061C
:1033700008BF0021E4E708BF1CEB430F28BF6FF034
:103380000001DDE738B5040001D1012032BD04F1B0
:103390003805687820B900212970204600F0A0FA8D
:1033A000242068702068C16821F40051C160204663
:1033B00000F0F7F92068016921F49041016120686B
:1033C000416921F02A01FFE741612068C16841F4A9
:1033D0000051C1600020686020206870A870002043
:1033E00032BD30B400F138035C78202C16D109B11D
:1033F000140000D13BE01C78012C0FD001251D707A
:1034000001628284C2840021596021215970002107
:1034100019700068C16841F080012EE02AE030B4E4
:1034200000F138039C78202C20D109B1140000D180
:103430001DE01C78012C19D001251D708162828548
:10344000C2850021596022219970002119700168FC
:10345000CA6842F48072CA6001684A6942F0010297
:103460004A610068C16841F0200106E002E030BC1A
:103470000120704730BC02207047C160002030BC82
:10348000704770B5044604F1380513466878202863
:1034900031D109B1180001D1012070BD287801286F
:1034A00029D001222A702162A384E384002068606D
:1034B00021206870226B0FF29D109062226B0FF238
:1034C000C110D062226B0FF2C11010630020266B76
:1034D00070632068021D206B00F01AFB21686FF0FA
:1034E00040000860002028702068416941F0800198
:1034F0004161002070BD022070BD38B504462568CA
:103500002968EA686B6911F00F0007D1880660D559
:1035100090065ED52046BDE83240F7E0D80702D4D9
:1035200012F4907F55D0C80705D5D00503D5E06BC0
:1035300040F00100E063480705D5D80703D5E06BEC
:1035400040F00200E063880705D5D80703D5E06B9B
:1035500040F00400E063080705D5D80703D5E06B09
:1035600040F00800E063E06B002871D0890604D5C4
:10357000900644BF204600F0C9F820684069E16B1E
:103580000A0701D440061ED5204600F0ABF820689B
:1035900041694A0612D5416921F040014161606BE1
:1035A00060B10FF25D114163606B00F0FBFA00281F
:1035B0004ED0606B416BBDE8344008472046BDE803
:1035C000324000F05BBC204600F058FC0020E06375
:1035D00031BD08062CD510062AD594F839002128CB
:1035E00036D1A168206AB1F5805F0DD10188C1F3A1
:1035F00008016960206918B9216A881C206207E007
:10360000206A411C216203E0411C2162007868604D
:10361000E08C401EE08480B2D0B92068C16821F0FF
:103620008001C1602068C16841F04001C16031BDC6
:1036300048060DD550060BD5E86820F04000E8603C
:10364000202184F839102046BDE8324000F017BC34
:1036500031BD0000416A00680268930644BF084615
:1036600000F00DBC0020C8840868426922F0800286
:1036700042610868C16841F04001C16070470000C4
:10368000406A00F0FDBB000018B4406A026853694C
:1036900000F139010C78212C09D11B0607D5002334
:1036A000C384D36823F0C003D36020220A70026869
:1036B00053694C78222C0ED15B060CD50023C385B0
:1036C000D36823F49073D360026853695B085B008E
:1036D000536120224A70C16B41F01001C16312BCDA
:1036E00000F0CCBB0168CA6822F49072CA6001681D
:1036F0004A69520852004A61202180F83A10704706
:10370000406A0021C185C18400F0B8BB80B590F843
:103710003A10222943D18268B2F5805F14D1826ABF
:10372000016941B903685968C1F308011180826ACF
:10373000911C816218E001684B6803F0FF0313805D
:10374000816A4A1C82620FE001690029816A04D102
:103750004A1C82620268536805E04A1C8262026861
:10376000536803F07F030B70C18D491EC18589B278
:1037700099B90168CA6822F02002CA600168CA6863
:1037800022F48072CA6001684A69520852004A6194
:10379000202180F83A1000F0FAF8002002BD022043
:1037A00002BD2DE9F0470446642521680A69E068F6
:1037B00022F4405202430A611926CA683148024085
:1037C000A06802432069024360690243CA604A69F3
:1037D000A06922F4407202432B484A6181420ED113
:1037E00000F0A6FD074600F0A3FD804600F0A0FD16
:1037F000814600F09DFD824600F09AFD0DE000F04C
:103800008FFD074600F08CFD804600F089FD814663
:1038100000F086FD824600F083FD06FB09F9616831
:1038200089007743B7FBF1F206FB08F7B7FBF1F32A
:10383000B9FBF1F7B7FBF5F705FB17331B01323383
:10384000B3FBF5F3B2FBF5F203F0F00303EB021365
:1038500006FB0AF74643B7FBF1F2B6FBF1F0642131
:10386000B0FBF1F005FB10252D0132356420B5FBCE
:10387000F0F0216800F00F00C3188B60BDE8F087FE
:1038800000000000F3E9FFFF0038014010B5614C73
:103890006148E0634FF4E130206400206064A0647C
:1038A000E0640C20206500206065A06504F13C0008
:1038B000FFF768FD18B149215CA000F007FE002267
:1038C0000221252000F011FE252000F037FE04F132
:1038D000180104F13C00BDE810400122FFF79FBD34
:1038E00030B5044685B020684B49884239D14B48F1
:1038F0004B4D016841F4804101604FF40071006854
:1039000000F480400090022200980191032004906E
:10391000029201A9284600F04BFE4FF4806000217E
:10392000019002910391284601A900F041FE3D4D0E
:103930003D482860102068600020A8608020E86072
:10394000002028616861A8614FF40050E8612846B2
:1039500000F098F818B1772134A000F0B7FD256386
:103960006C6205B030BD0EB430B52A4C024604F18D
:10397000800503AB6521284600F002FF82B229468C
:1039800004F13C00FFF72DFD30BC5DF810FB006832
:103990002149884200D0704718B41E48C26F017E8A
:1039A0008318DC7E19770D2C08BF0A2906D1012166
:1039B00041760021D976C16711BC7047521CC2679D
:1039C00000F1180118BC01223C30FFF728BD0FB5EB
:1039D00010490D20087581B00A2048750A1D01A8FC
:1039E0000368136002A801F108020368136003A8CA
:1039F00001F10C020368136004A801F110020368CE
:103A00001360162201F13C00FFF73BFD05B000BD3D
:103A100000000000B40000200038014018100240EF
:103A200000080140CC05002044000240433A5C55A8
:103A3000736572735C6E6365725C446F63756D650C
:103A40006E74735C54656E63656E742046696C6554
:103A5000735C3336313336393439395C46696C65D9
:103A6000526563765C656E636F6465722D7A687506
:103A7000615C616161615C5372635C7573617274F6
:103A80002E63000030B410B930BC012070470268CA
:103A9000DFF8A4138A4200F128030AD2DFF89C134E
:103AA0008C181425B4FBF5F4A4009C61DFF8901386
:103AB00009E0DFF890138C181425B4FBF5F4A4008A
:103AC0009C61DFF884135961022180F82110146889
:103AD00041686FF30D140C4381680C43C1680C43BB
:103AE00001690C4341690C4381690C43C1690C4372
:103AF00014600021196059609960D9601961012131
:103B000080F82110002180F82010002030BC704780
:103B1000F0B490F820500024012D08BF02203FD0BF
:103B200090F821500126012D80F8206034D1022622
:103B300080F8216000F12C06F46005682F687F088A
:103B40007F002F6001277569AF4035696F60076896
:103B50007B604368102B04D10568AA600268D160BD
:103B600003E0036899600568EA600268316821B182
:103B7000136843F00E03136008E0116821F004019C
:103B8000116001680A6842F00A020A600068016870
:103B900041F00101016002E080F82040022420464B
:103BA000F0BC70471CB590F821100024022904D005
:103BB000343004224260012463E001680A6822F084
:103BC0000E020A600168DFF884220B685B085B0064
:103BD0000B60016891421DD9DFF85C22914208BF59
:103BE000012114D0DFF86822914208BF10210ED0C5
:103BF000DFF86022914208BF4FF4807107D0DFF8F0
:103C0000582291420CBF4FF480514FF48031DFF8BD
:103C10004C222DE0DFF84832994221D0DFF84432BF
:103C200099421FD0DFF8403299421DD0DFF83C3274
:103C3000994208BF4FF4805118D0DFF834329942CE
:103C40000BD0DFF83032994208BF4FF480110DD00D
:103C5000914208BF4FF0807108D04FF4803105E0E9
:103C6000012103E0102101E04FF48071DFF8082208
:103C70001160012180F8211080F82040416B01B1D2
:103C80008847204616BD78B400F128020426516901
:103C90000B6801680C689569AE40334252D06607E4
:103CA00050D50B689C0603D40C6824F004040C6007
:103CB0000168664B994218D95F4B994208BF0421AD
:103CC00011D0634B994208BF40210CD0614B9942FF
:103CD00008BF4FF4806106D05F4B99420CBF4FF490
:103CE00080414FF480215D4B26E05D4CA1421CD009
:103CF0005C4CA1421BD05C4CA1421AD05B4CA1424F
:103D000008BF4FF4804116D0594CA1420AD0594CFB
:103D1000A14208BF4FF480010DD0994208BF4FF077
:103D2000806108D04FF4802105E0042103E04021A8
:103D300001E04FF48061504B19605168002978D040
:103D400074BC08470226AE40334257D0A60755D56B
:103D50000B689C0606D40C6824F00A040C60012150
:103D600080F82110036839498B4218D932498B42B7
:103D700008BF022111D036498B4208BF20210CD048
:103D800034498B4208BF4FF4007106D032498B4250
:103D90000CBF4FF400514FF40031304B26E0304C53
:103DA000A3421CD02F4CA3421BD02F4CA3421AD0AD
:103DB0002E4CA34208BF4FF4005116D02C4CA34206
:103DC0000AD02C4CA34208BF4FF400110DD08B42F7
:103DD00008BF4FF0007108D04FF4003105E0022118
:103DE00003E0202101E04FF40071234B1960002112
:103DF00080F820101168E1B174BC0847082606FA63
:103E000005F52B4215D0230713D50B6823F00E03BD
:103E10000B60012491698C4051694C6001230021A1
:103E2000136180F8201080F82130916809B174BCCA
:103E3000084771BC7047000008040240F8FFFDBF4E
:103E400000000240F8FBFDBF000402408000024079
:103E50001C040240300402404404024004040240B6
:103E6000080002401C0002403000024044000240B2
:103E7000580002406C000240040002407047704746
:103E8000704700002DE9FC410546DFF8B86428784A
:103E9000C10740F1DD80706800F00C00042807D0F5
:103EA000706800F00C0008280DD17068C1030AD5B5
:103EB0003168880340F1CC806868002840F0C880F1
:103EC0000120BDE8F6816868B0F5803F0FD038B9B1
:103ED000316821F480313160306820F4802009E0BD
:103EE000B0F5A02F316807D141F4802131603068EE
:103EF00040F48030306006E021F480313160326877
:103F000022F480223260686870B100F057FC0446E9
:103F10003168880300F19C8000F050FC001B65288C
:103F2000F6D30320BDE8F68100F048FC0446306873
:103F3000810340F18D8000F041FC001B6528F6D321
:103F4000EFE700F03BFC001B022840F2AE80E8E700
:103F50002869DFF8FC1370B101220A6000F02EFC22
:103F600004463068810700F1DA8000F027FC001B6E
:103F70000228F6D9D5E7086000F020FC0446306836
:103F8000810740F1848000F019FC001B0228F6D95B
:103F9000C7E7086000F012FC0446706A810740F130
:103FA000978000F00BFC001B0228F6D9B9E708B98E
:103FB000306A09E00528306A06D140F0040030621A
:103FC000306A40F0010005E0400840003062306A8D
:103FD00020F004003062E86870B100F0EFFB0746A3
:103FE00041F28938306A810700F1A98000F0E6FBD0
:103FF000C01B4045F6D394E700F0E0FB074641F2D2
:104000008938306A810740F19A8000F0D7FBC01BE5
:104010004045F6D385E700F0D1FBC01B022840F2F3
:10402000A4807EE700F0CAFB401B022840F2B88063
:1040300077E70020206600F0C1FB0446306881016C
:1040400040F1B28000F0BAFB001B0228F6D968E705
:10405000287881071BD5706810F00C0F09D07068A4
:1040600000F00C0008287FF473AF7068C1033FF5BF
:104070006FAF3168880703D5286901287FF420AF26
:104080003168686921F0F80141EAC001316029789E
:1040900008071DD5A869DFF8BC1200283FF479AFE6
:1040A00001220A6000F08AFB0446706A81077FF5EE
:1040B00048AFDFF894120868C0084FF47A72B0FB7A
:1040C000F2F2009200BF0098411E00280091F9D141
:1040D0002878410738D5F0690024C10009D4F06977
:1040E00040F08050F0610124F06900F080500090B1
:1040F0000098DFF864723968C80518D4386840F44D
:104100008070386000F05AFB80463968C8050ED4CC
:1041100000F054FBA0EB08006528F6D301E73068F7
:10412000696920F0F80040EAC1003060AFE7E86854
:1041300001287FF43CAF306A40F001004AE71CB12F
:10414000F06920F08050F061E86968B3716801F0AF
:104150000C0108293FF4B4AE02287D4C7FF469AF0E
:104160000020206600F02AFB0746306881013FF5F9
:1041700052AF286AB0F5803F05D17168A86821F474
:104180000031014371607168286A21F474110143A0
:10419000686A014371600120206600F00FFB05464C
:1041A000306881017FF53EAF0020BDE8F6812DE942
:1041B000F0416A4F05463868884600F007004045E0
:1041C00009D23968C90848EAC1013960386800F085
:1041D0000700404576D129785A4C880705D5616893
:1041E000A86821F0F001014361602878C1075AD521
:1041F0006868012802D121688A0303E0022803D1FC
:1042000021688A0103D45DE0226891075AD561686C
:10421000890840EA8100606000F0D0FA06466868CC
:1042200001280ED1606800F00C0004283BD000F09B
:10423000C5FA801B41F289318842F3D30320BDE8DF
:10424000F081022841D1606800F00C0008282AD0D3
:1042500000F0B4FA801B41F289318842F3D3EDE7D4
:104260002878410705D56168E86821F4E0610143D9
:1042700061602878010706D56068296920F46050DC
:1042800040EAC100606000F02DF862683449C2F372
:104290000312895C2C4AC8401060002000F094FA98
:1042A0000020BDE8F081386800F007008045D7D2D3
:1042B0003968C90848EAC1013960386800F0070068
:1042C0004045CDD00120BDE8F081606810F00C0FB2
:1042D000E9D000F073FA801B41F289318842F4D3AF
:1042E000ACE700001F490A6802F00C00082812D150
:1042F0001FA3C2F38340D203185C09D50A6813498F
:104300001FA34843C2F34041595CB0FBF1F0704732
:104310001549484370470D4870470B48006870477F
:104320000948104A006813681049C3F3022206E0E6
:1043300005480C4A006813680C49C3F3C222895C23
:10434000C840704700100240B000002000127A0000
:1043500000004242800442420070004000200240BF
:10436000885B00080410024000093D00586B0008FB
:1043700002030405060708090A0B0C0D0E0F1010A6
:104380000102000070B500F03FFA00F038F800F0CC
:104390004DFA00F0BDFAFFF779FA00F009FB00F0E2
:1043A000CFFA00F02BFC00F04FFB00F06FFB002277
:1043B0000121252000F099F8252000F0BFF8002207
:1043C0000021142000F091F8142000F0B7F800F05C
:1043D00097FC394C394D3A4E01206070307820B14D
:1043E000284600F0CBFD0021317020780028F5D060
:1043F00000F050FE00F08FFE00202070EEE700B5C8
:1044000000218FB001200791059002210C914FF4FB
:104410008030069001220D904FF4E01109920E9128
:1044200005A8FFF72FFD00B1FEE70F210220009144
:10443000019000214FF4806002910390049168463E
:104440000221FFF7B4FE00B1FEE7FFF766FF4FF46D
:104450007A71B0FBF1F000F07BF8042000F089F8ED
:10446000002200214FF0FF3000F03FF80FB000BDF8
:10447000114A5078002800D1704718B451680520BF
:10448000491C91FBF0F000EB80005160081A04BF5A
:104490000123137001EBD1704010B1EB400109D141
:1044A0000848094C0168206801B010BC00230022B4
:1044B000FFF78DBA11BC704728070020D0000020FC
:1044C000CD0000205800002054000020FEE700002E
:1044D0002F4A13684FF6FF0100020B4000F4E06022
:1044E00018432C4908431060704738B4284B1C68A7
:1044F000C4F30223C3F10704052C28BF04241D1DA7
:10450000072D34BF0023DB1E012505FA04F4641EC9
:104510002140994005FA03F35B1E1A40114309013B
:10452000020007D51C4A00F00F00104400F8041CDC
:1045300031BC7047194B195431BC7047012200F04F
:104540001F01174BFFE78A40400943F820207047BE
:10455000401EB0F1807F01D3012070471149124AFB
:104560004860F020107000228A6007200860002058
:10457000704704280B4904D1086840F00400086023
:1045800070470A6822F004020A60704700000000C9
:104590000CED00E00000FA0518ED00E000E400E09A
:1045A00000E100E010E000E023ED00E0FFF760BF75
:1045B0002DE9F84F8346002086466FF01F08614AB8
:1045C000614BDFF888914FF00F0A01240F6804FA5D
:1045D0000EF63740B74240F0A4804C683CB3012C43
:1045E0001AD0022C1DD0032C2ED0112C16D0122C38
:1045F0001AD0574DAC421CBF564DAC4217D0564D49
:10460000AC421CBF554DAC4211D0554DAC421CBF05
:10461000544DAC420BD018E0C86816E0C868001DC5
:1046200013E0C868083010E0C8680C300DE08868F6
:1046300008B9042009E0012819BF0820CBF814604C
:104640000820CBF8106000E00020B7F5807F39BF6C
:10465000DC464FEA8E040BF1040C44460AFA04F6D9
:10466000DCF80050B54300FA04F42C43CCF80040C9
:104670004C68E40055D5D9F8004044F00104C9F86D
:1046800000404FEA9E0CD9F8005005F00105009556
:10469000009C53F82C6008F00C040AFA04F526EA92
:1046A0000505314EB34508BF002618D02F4EB3453F
:1046B00008BF012613D02E4EB34508BF02260ED0E8
:1046C0002C4EB34508BF032609D02B4EB34508BF77
:1046D000042604D0294EB3450CBF0526062606FA4B
:1046E00004F42C4343F82C404C68E40314684CBF9A
:1046F0003C43BC4314604C68A40354684CBF3C4327
:10470000BC4354604C68E40294684CBF3C43BC43D7
:1047100094604C68A402D4684CBF274324EA07077E
:10472000D7600EF1010EBEF10F0F08F104087FF6FD
:104730004CAFBDE8F18F81B002B90904016101B04D
:1047400070470000000401400800014018100240BA
:1047500000001110000012100000211000002210B3
:10476000000031100000321000080140000C014030
:10477000001001400014014000180140001C0140DD
:1047800008B584B00023039300290EBF0193019064
:10479000491E0291009301A904AB074878441830E0
:1047A000FCF762FF019909B100220A70002858BF86
:1047B000039805B000BD00BF47DEFFFF0148406819
:1047C000704700BFA400002038B50D4D0D4A297870
:1047D00004464FF47A70B0FBF1F11068B0FBF1F0D1
:1047E000FFF7B6FE50B9102C08D2002221464FF038
:1047F000FF30FFF77AFEAC60002032BD012032BDF1
:10480000A4000020B000002080B50748016841F0F6
:10481000100101600320FFF75BFE0020FFF7D4FFCB
:1048200000F0A8FC002002BD00200240F0B5344892
:10483000344C354E354F85B0016841F020010160A0
:1048400048F60465026802F02002049204990168A7
:1048500041F004010160026802F00402049204992C
:10486000016841F008010160026802F00802049248
:1048700000220499016841F01001016040210068A4
:1048800000F01000049004982046FFF754FF002227
:1048900029463046FFF74FFF002280213846FFF7B8
:1048A0004AFF402001210090019100200221029046
:1048B000039120466946FFF77BFE8020002100908F
:1048C0000191029120466946FFF772FE0120019096
:1048D0000021022002910390009569463046FFF7BF
:1048E00067FE8020012100900191002002210290AA
:1048F000039138466946FFF75BFE05B0F0BD00BF87
:104900001810024000080140000C01400010014056
:1049100080B50A48016841F0010101600022006889
:1049200000F001000090002100980E20FFF7DDFD4F
:10493000BDE802400E20FFF701BE00BF1410024088
:104940004FF0804018B58D4C206000206060A06062
:104950008BB04FF6FF70E060002100202061A06165
:104960000391032002900591012004900691079184
:10497000089009910A91204602A900F090FC20B10C
:104980005FF04D0187A0FFF7A1FD0020009001908E
:104990006946204600F064FE18B1542181A0FFF75B
:1049A00095FD1821204600F0C5FC0CB010BD00009C
:1049B000734818B5734C20600120606089B00020F6
:1049C000A06040F6B830E06000202061A061204681
:1049D00000F043FC18B1682172A0FFF777FD0020BA
:1049E000009001906946204600F03AFE18B16F2110
:1049F0006CA0FFF76BFD6020029000210220039164
:104A000004900691002202A9204600F0BBFC20B1D0
:104A10005FF0780163A0FFF759FD042202A9204648
:104A200000F0B0FC18B17D215EA0FFF74FFD2046DD
:104A300000F091F80021204600F01EFC04212046E1
:104A400000F01AFC0AB010BD1CB54F4C4F48206056
:104A5000472060600020A0604FF6FF70E0600020FB
:104A6000A061204600F0D4FB18B191214DA0FFF7C2
:104A70002DFD0020009001906946204600F0F0FDD9
:104A800018B1982147A0FFF721FD13BD1CB5404C7C
:104A90004048206000206060A060E060A061204687
:104AA00000F0B6FB18B1A8213EA0FFF70FFD0020D3
:104AB000009001906946204600F0D2FD18B1AF2168
:104AC00038A0FFF703FD13BD0068B0F1804F00D0A0
:104AD000704700B5304885B0016841F001010160C0
:104AE0000321006800F001000090002200982B488C
:104AF00001910292039201A93BE081B00068204934
:104B0000884209D12448016841F00401016000682D
:104B100000F004000090009801B0704781B0006878
:104B20001A49884208D11C48016841F0100101600F
:104B3000006800F010000AE01649884209D11648C2
:104B4000016841F020010160006800F02000009041
:104B5000009801B0704700680949884200D070474A
:104B600080B584B0C0210220009101900390694675
:104B70000B48FFF71DFD05B000BD0000100600202A
:104B80000008004050060020900600200010004061
:104B9000D0060020001400401C1002400008014014
:104BA000000C0140433A5C55736572735C6E63653B
:104BB000725C446F63756D656E74735C54656E638F
:104BC000656E742046696C65735C333631333639F3
:104BD0003439395C46696C65526563765C656E6331
:104BE0006F6465722D7A6875615C616161615C53A7
:104BF00072635C74696D2E630000000080B5264806
:104C0000264901600321416000218160C1604FF4A9
:104C1000002101614FF48011416100218161012176
:104C2000C16100210162416281620121C16200F023
:104C30003DFD30B1BDE804405FF045011AA0FFF72B
:104C400045BC01BD00681549884200D0704718B5C1
:104C50001348144C85B0016841F0007101604FF4B5
:104C60000061006800F0007000900022009801913F
:104C70000292039201A92046FFF79AFC4FF480505C
:104C80000190022103200291049001A92046FFF720
:104C90008FFC06B010BD00008805002000640040B5
:104CA0001C10024000080140433A5C557365727362
:104CB0005C6E6365725C446F63756D656E74735C86
:104CC00054656E63656E742046696C65735C33363B
:104CD000313336393439395C46696C6552656376EF
:104CE0005C656E636F6465722D7A6875615C616185
:104CF00061615C5372635C63616E2E63000000004F
:104D00002DE980400FF21901C4A000F0EDF8BE4972
:104D1000C4A000F0E9F8BDE80440BC49C3A0E3E04A
:104D20002DE9F04105460E46174600BFC2A0FEF72A
:104D30001AFE2946C5A0FEF716FE05F0FF04012C59
:104D40000CDB0FF2183857F8040B00F0C9FE0246CE
:104D50000B464046FEF707FE641EF4D12D12012DCE
:104D6000C0F20880C0A456F8041B2046FEF7FBFDE5
:104D70006D1EF8D1BDE8F0812DE9FC4B8146002085
:104D8000009080468B4614461020FCF763F82060A4
:104D90001020FCF75FF807461420FCF75BF838603A
:104DA0001420FCF757F878601420FCF753F8B8602B
:104DB0001420FCF74FF8F8601020FCF74BF806467B
:104DC0001420FCF747F830601420FCF743F87060BB
:104DD0001420FCF73FF8B0601420FCF73BF8F060BB
:104DE000CBF800600022009D00200FE001280AD1CE
:104DF000381F50F8250004E00228F7D1301F50F882
:104E0000280000218154002009F1010999F80010BF
:104E1000002918BF0D2961D0042DDCBFB8F1040FA3
:104E2000142A5BDA2029E7D0B0B9084600F07CFEEE
:104E300040B1321F08F1010899F8001052F82820FB
:104E4000022006E03A1F6D1C99F8001052F8252048
:104E5000012011700122D7E7022807BF331F53F842
:104E600028303B1F53F825309954521CCCE70128B9
:104E700004D1381F50F825000021815445EA082547
:104E8000386801F095F801F0BBF8216808603868CF
:104E900001F0EAF8786801F08BF801F0B1F82168C8
:104EA0004860786801F0E0F8B86801F081F801F036
:104EB000A7F821688860B86801F0D6F8F86801F0B2
:104EC00077F801F09DF82168C860F86801F0CCF827
:104ED000384601F0C9F828B2BDE8F68B0228C6D1E1
:104EE000301F50F82800C7E7494AD2F8C830322BA3
:104EF0000CDA42F82300D2F8C80002EB8003C3F8B2
:104F0000CC10D2F8C800401CC2F8C800704778B472
:104F1000044600200D4623786BB12A785AB114F864
:104F2000013B15F8016BB34208BF401CF3D008E009
:104F300072BCC0B27047095C20291CBF00290D2932
:104F4000F6D072BC0020704770B4002203460C46B5
:104F50001D782678B54207D113F8015B25B114F806
:104F6000016B0EB1521CF3E7805C002803BF895C23
:104F700000290120002070BC70470000FEB5244EBF
:104F800004460025374600E06D1CD6F8C80085426F
:104F90002FDA57F8040B2146FFF7B9FF0028F3D0AA
:104FA00001AA69462044FFF7E7FE06EB8503019A54
:104FB0000099D3F8CC40A047019801F055F800982B
:104FC000006801F051F80098406801F04DF8009831
:104FD000806801F049F80098C06801F045F8009831
:104FE00001F042F801220B490B48FEF718FA03B012
:104FF000F0BD012207490848FEF711FA20A0FEF78C
:10500000B2FC03B0F0BD0000F5680008A569000817
:10501000F4030020CC000020F000002074657374BD
:10502000000000007365745F76616C007365745FE7
:10503000737065656400000074686973206973208B
:10504000746573746B6B0D0A00000000692067655E
:105050007420256420617267730D0A006F6E6520ED
:1050600069732025660D0A00737472696E675F703C
:1050700072616D732069732025730D0A00000000B2
:105080006572726F7220636F6D6D616E64210D0ABF
:1050900000000000F8B52F4C2F4E206800B200F041
:1050A000E5FF0746776000202060B06800F018FD3B
:1050B00004460D46384600F013FD284A284BFDF7FC
:1050C000E3FC22462B46FEF7A1F800F099FFB06002
:1050D000F1BD10B5244900F0DBFF98BF234812D979
:1050E000234900F0E7FF0AD208461E4C0021616008
:1050F00080F0004000F0F0FF80B2206010BD002181
:1051000000F0C6FFF1D2174C0021216000F0E4FF4F
:1051100080B2606010BD10B50F4C2078022804D119
:10512000A268216904F134000EE0C10711D580079F
:1051300006D5A268216904F1340000F0E3FFE060C5
:105140006268E16804F1140000F0DCFFBDE8104083
:10515000BFE710BD24000040500000207B14AE4784
:10516000E17A743F3408004001C0284500C028455A
:1051700000C028C580B52448016841F001010160E4
:10518000026802F0010200920099416841F08051EA
:105190004160406800F08050009000980320FFF7C5
:1051A00097F9002200216FF00B00FFF79EF9002213
:1051B00000216FF00A00FFF798F9002200216FF03C
:1051C0000900FFF792F9002200216FF00400FFF7B9
:1051D0008CF9002200216FF00300FFF786F900220E
:1051E00000216FF00100FFF780F9002200214FF04D
:1051F000FF30FFF77AF90548016821F0E06141F0DE
:105200000071016001BD00BF1810024004000140A0
:1052100038B5040001D1012032BD04F13C056878A5
:1052200020B9002129702046FFF778FCFFE7022013
:105230006870211D206800F017F9012068700020B7
:1052400032BD03D1416C41F400414164026842F037
:1052500001020260002001B0704738B5040001D19E
:10526000012032BD04F13C05687820B90021297085
:105270002046FFF742FCDAE781B00068012202FA1B
:1052800001F1026A8A430262026A11430162DFF895
:105290009C1088421CBFDFF898108842D1E7F8B50F
:1052A00004000E4601D10120F2BD04F13C056878EE
:1052B00020B9002129702046FFF706FC0220687003
:1052C00020688168C908C9008160211D206800F03C
:1052D000CBF82168DFF87C018A688F690B6A074088
:1052E000B0680743B06947EA0027DFF87801074054
:1052F000F0680743F06947EA0027306947EA00177A
:10530000306A47EA0037706823F0AA0303437069E4
:1053100043EA0013306802438A60206887610120F5
:1053200021680B6268700020F2BD0000002C014073
:105330000034014081B011B1042909D00AE00168AC
:105340000A6A520852000A620A6A42F0010211E037
:10535000016808E001680A6A520852000A620A6A93
:1053600042F001020A620A6A22F010020A620A6A24
:1053700042F010020A620068016841F00101016018
:10538000FFF768BF70B5064606F13C040D4620786D
:10539000012801D1022070BD01212170022060701E
:1053A00032B1042A18D0082A2BD00C2A3DD050E064
:1053B0003068294600F098F83068816941F00801AA
:1053C00081613068816921F00401816131688A69F5
:1053D000286902438A613CE03068294600F0B0F851
:1053E0003068816941F4006181613068816921F42C
:1053F00080618161306881692A6941EA02218161A5
:1054000027E03068294600F0CDF83068C16941F0E6
:105410000801C1613068C16921F00401C1613168CE
:10542000CA6928690243CA6113E03068294600F05E
:10543000E8F83068C16941F40061C1613068C16950
:1054400021F48061C1613068C1692A6941EA0221A1
:10545000C16101E0FCFCFFFF0120607000202070B2
:1054600070BD00000303FFFF18B4784B0468984236
:105470001CBF774A90420BD0B0F1804F1CBF754AD9
:10548000904205D0744A90421CBF744A904210D199
:105490004A6824F07004144398421CBF6C4A90423E
:1054A0000AD0B0F1804F1FBF6A4A90426A4A9042C8
:1054B00002D06A4A904203D1CA6824F4407414436B
:1054C0004A6924F080041443046098428A68C262E6
:1054D0000A68826219BF5E4A90420969016301212C
:1054E000416111BC7047000078B4026A574E5208FF
:1054F00052000262056A436884690A6824F07304F2
:1055000014438A6825F002051543B0421CBF504A77
:10551000904207D1CA6825F008051543B04225F02E
:10552000040502D04A4EB04205D14A6923F44073C3
:1055300013438A69134343608461496841632EE0E1
:1055400078B4026A22F010020262056A4368846934
:105550000A6824F4E64444EA02248A6825F0200517
:1055600045EA0215394A90421CBF394EB04208D173
:10557000CE6825F0800545EA0615904225F04005E5
:1055800002D0334A904206D14E698A6923F44063BF
:10559000164343EA86034360846149688163056278
:1055A00071BC704778B4026A22F480720262056AA4
:1055B0004368C4690A6824F0730414438A6825F4B4
:1055C000007545EA0225214A90421CBF204EB04298
:1055D00008D1CE6825F4006545EA0625904225F4F9
:1055E000806502D01A4A904206D14E698A6923F436
:1055F0004053164343EA06134360C4614968C163DC
:10560000CDE770B4026A114E22F480520262B042B9
:10561000046A4268C3690D6823F4E64343EA05233C
:105620008D6824F400541CBF094EB04244EA05348E
:1056300004D14D6922F4804242EA85124260C3617E
:1056400049680164046270BC70470000002C01408E
:10565000003401400004004000080040000C0040FD
:1056600030B400F13C031A78012A08BF02201BD095
:1056700001241C7002225A700268546824F07004DD
:105680005460046865680A68154365600268946838
:1056900024F080049460026894684868044394602D
:1056A000012058700020187030BC7047F8B50446CF
:1056B00000266CB304F13C05287818B96E702046BA
:1056C000FFF7C0FA022028702068016821F002016B
:1056D00001602068026842F001020260FFF76EF884
:1056E000074620684168CA0714D4FFF767F8C01B53
:1056F0000B28F6D303202870002068700320F2BD29
:10570000FFF75CF8801B0B283DD3F3E704202870DB
:105710000120F2BD4168CA07F8D5A1690129E169F4
:1057200008BF80260129216A08BF46F040060129EA
:10573000616A08BF46F020060129A16A08BF46F049
:1057400010060129E16A026808BF46F0080601292F
:1057500008BF46F0040622F0FC0216430660A1686A
:10576000E068226801432069014360690143606881
:10577000401E0143D1612068016849084900016069
:10578000FFF71CF8064620684168CA07B8D440688D
:10579000C107BBD400216960012028700020F2BD40
:1057A000F8B5044600202268D56800210026536918
:1057B000ED0605D51B0703D510234FF40076D36003
:1057C000226815695369ED0605D55B0603D51023DC
:1057D00046F48066136104F13C0522685369DF07D3
:1057E00048D597686C4B1F409F429768694B08BF2C
:1057F00001201F409F429768684B08BF01211F404E
:105800009F420CBF012300230843184332D0906805
:10581000916893684008490A00F0010001F0010115
:10582000084303F0010318431DD0506940084000AD
:1058300050612978122904D12068416921F40F416F
:1058400041612878422808D0522804D072280CBF21
:105850006220012002E0322000E022202870204651
:1058600000F09AFC01E046F4006621684C488A6822
:1058700002438A602068C168406911F0030F05D0B7
:10588000800703D50021204600F08EF820680169CA
:10589000406911F0030F05D0C00603D50121204651
:1058A00000F082F8686806436E6020688369416989
:1058B0004269DB0707D5C90505D5110403D5696819
:1058C00041F0010169608369416942699B0707D51D
:1058D000890505D5110403D5696841F002016960A5
:1058E0008369416942695B0707D5490505D51104FC
:1058F00003D5696841F004016960816901F07001B4
:105900004B1E416942699B41DB0F2FD109052DD503
:1059100011042BD5816901F0700110290AD02029CA
:105920000CD030290ED0402910D0502912D0602937
:1059300014D017E0696841F0080112E0696841F08D
:1059400010010EE0696841F020010AE0696841F049
:10595000400106E0696841F0800102E0696841F4B5
:1059600080716960816921F070018161686870B13E
:1059700022680421516001202870216809484A6981
:1059800002404A612046BDE8F24000F006BCF1BD8D
:1059900000000000000100080100000400000110E8
:1059A00009050100A470FFFF38B50A0002680CBFAA
:1059B000436B836B0C0102F5D8752A5912F004026F
:1059C0009A60056805F5D87503D12A59520D1A60F9
:1059D00002E02D59ED085D60026802F5D8752D5979
:1059E00005F00205DD6002682244D2F8B421196294
:1059F00002F00F021A6102682244D2F8B421C2F305
:105A00000722DA6102682244D2F8B8211A750268C6
:105A10002244D2F8B821120A5A7505682A19D2F818
:105A2000B821120C9A7505682A19D2F8B821120EFD
:105A3000DA7505682A19D2F8BC211A760268224460
:105A4000D2F8BC21120A5A7605682A19D2F8BC216C
:105A5000120C9A7605682A19D2F8BC21120EDA7651
:105A60000B00026806D12023D3600268536923F03B
:105A70000A0305E0202414610268536923F05003EF
:105A8000536190F83C20222A18BF322A04D10268C0
:105A9000536923F40F435361002990F83C100AD155
:105AA00042290FD0622902D0722902D010E032219F
:105AB0000FE052210DE0522904D0622904D072294E
:105AC00004D005E0122104E0222102E0422100E09E
:105AD000012180F83C1000F061FB002032BD000085
