:020000040800F2
:10000000600E0020D1620008096200080B6200083F
:100010000D6200080F620008116200080000000075
:100020000000000000000000000000001362000853
:10003000156200080000000017620008196200083D
:10004000FB620008FF620008036300080763000802
:100050000B6300080F6300081363000817630008B0
:100060001B6300081F630008236300082763000860
:100070002B6300082F630008336200083363000815
:10008000376300083B6300083F63000843630008D0
:1000900027620008476300084B6300084F630008AD
:1000A00053630008576300085B6300085F63000840
:1000B00063630008676300086B6300086F630008F0
:1000C00073630008776300087B6300087F630008A0
:1000D000836300082D620008876300088B630008B3
:1000E0008F63000893630008976300089B63000810
:1000F0009F630008A3630008A7630008AB630008C0
:10010000AF630008B3630008B7630008BB6300086F
:10011000BF630008C3630008C7630008CB6300081F
:10012000CF630008D3630008D7630008DB630008CF
:100130002DE9F84F74A7A2B0D7E90045CDE90045F5
:100140002C9EDFF8307C04918DF843605FF0000155
:100150006FA40D9112944FF0FF3682469046994657
:100160000FE0C3462C461BF8011B0498D04700281B
:10017000049000F0B2800D98401C641E0D90F2D1E6
:10018000A84498F80000252807D10021079108917C
:1001900009910A910B910C910DE06A463146404657
:1001A00001F01CF8050001D10D98B5E0D9D5012565
:1001B000E6E741F0010118F8010F2028F9D02328C3
:1001C0000CD02B2804D02D2805D0302809D086E06B
:1001D00041F00201EFE741F00401ECE741F00801D2
:1001E000E9E741F01001E6E700200F900AE00F98E0
:1001F000B84205DA00EB800302EB4302303A0F927B
:1002000008F1010898F80020A2F130000A28EED386
:1002100098F800002E2818BF0E9629D118F8010F63
:100220002A280BD1D9F80000C9F8000008F101080C
:1002300050F8042BC9F800000E9219E02D280CBFCD
:1002400018F8010B002000220E920BE040B90E9A24
:10025000BA4205DA02EB820403EB4403303B0E930F
:1002600008F1010898F80030A3F130020A2AEDD312
:10027000ADF84010129898F8001000F0B9FF08B1DE
:1002800018F8010B8DF842009DF84200682804BF61
:1002900098F80010682903D162208DF8420008E028
:1002A0006C2804BF98F800006C2804D171218DF8E7
:1002B000421008F1010813A806904A4618F8013BBD
:1002C00002A9504600F068F838B913AA02A95046AE
:1002D00000F0CAF900287FF554AF30461CE02A2808
:1002E00082D1D9F80020C9F8002052F8040BC9F8CF
:1002F000002000280F9003D540420F9041F00401E8
:1003000008F1010884E70000000000000000000080
:10031000686A6C747A4C000023B0BDE8F08F6228E4
:1003200020D0682811D06A2803D06C2827D07128E3
:1003300025D10868C01D20F007000860D0E900231F
:1003400008300860194610467047002A0A680A609B
:10035000106803D0121D0A6000B217E0121D0A6077
:1003600080B217E0002A0A680A60106803D0121DE4
:100370000A6040B20AE0121D0A60C0B20AE0002A18
:100380000A680A60106803D0121D0A60C11770471E
:10039000121D0A60002170477CB50D4611461C46AF
:1003A0002E69B4F1250200F04D811C3A00F08680E0
:1003B000121F022A40F282800E3A00F00781521F7B
:1003C0005AD0093A7AD0921E16D0521E35D0521EFB
:1003D000022A73D9121F30D0521F00F09A80521E89
:1003E0004AD0521E00F0E480D21E00F0FD80921E22
:1003F00042D0D21E40D02BE195F83A206C2A09D089
:100400006869421C6A610A680A6052F8043B0A6023
:10041000335427E10A680A6052F8043B0A6000215D
:10042000009301914FF0FF322A6329466A4600F09B
:1004300096F9002840F1168101E195F83A00012271
:10044000FFF76DFFC5E900010023994204DA6869EE
:10045000411C69612D210DE0288F810704D5686951
:10046000411C69612B2105E0C00722D56869411C48
:100470006961202131541CE095F83A000022FFF711
:100480004EFFC5E9000195F83800010711D5D5E9FF
:1004900000230020834208BF82420AD044F020009B
:1004A000782806D1686930213154401C411C6961AB
:1004B0003454214668693044E86083E00868C01D10
:1004C00020F007000860D0E9002308300860C5E983
:1004D0000023D5E90001C80F04D06869411C696197
:1004E0002D210DE0288F810704D56869411C6961C1
:1004F0002B2105E0C00704D56869411C69612021F2
:10050000315468693044E8602146284600F032FAE8
:10051000A8E005F13A02507820B14FF0FF340FF611
:10052000243070E01078622808D0682824D06A2827
:1005300012D06C282ED071280ED02BE00A680A60E9
:1005400052F8040B0A6020B94FF0FF340FF60C305C
:1005500059E0E96A017085E00A680A6052F8040B04
:100560000A6020B94FF0FF340FF6F0204BE0EA6A42
:10057000D317C0E9002375E00A680A6052F8040B3B
:100580000A6020B94FF0FF340FF6D0203BE0E96A53
:10059000018067E00A680A6052F8040B0A6020B91B
:1005A0004FF0FF340FF6B4202DE0E96A016059E006
:1005B0000A680A6052F8040B0A600021C5E90001CC
:1005C000EE607821284600F029F94BE06C2285F88E
:1005D0003A200B680B6053F8042B0B6052BB4FF0B2
:1005E000FF340FF6AC200EE095F83A206C2AF0D0DC
:1005F0000868086050F8044B0860EC603CB94FF0A4
:10060000FF340FF6702000F00DFE201A76BD2E6B21
:10061000002E04D5204600F025FE044608E03246B0
:100620000021204600F046FE002814BF041B34467B
:10063000AC6117E0294600F092F8002812D54FF07F
:10064000FF3076BD6869411C69612521315409E09C
:100650006969481C686125227254210002D0411C3E
:1006600069613454002076BD2DE9F0410E460546FF
:10067000716B7069B46A091A306A091AB069091A8B
:10068000706A091AF069091A96F838000C1B4107BC
:1006900090460DD4002C0BDD2746B0682021A847DA
:1006A0000028B06057D0F06A401C7F1EF062F4D181
:1006B000736942463146284600F0ACFC00284AD116
:1006C000376A002F0ADDB0683021A8470028B060E3
:1006D00041D0F06A401C7F1EF062F4D1B369F26829
:1006E0003146284600F096FCA8BB776A002F09DD4A
:1006F000B0683021A847B06068B3F06A401C7F1E24
:10070000F062F5D1F068B169F369421831462846C4
:1007100000F080FCF8B9B76A002F09DDB06830211D
:10072000A847B060B8B1F06A401C7F1EF062F5D1F6
:1007300096F8380041070BD5002C09DDB068202160
:10074000A847B06038B1F06A401C641EF062F5D171
:100750000020BDE8F0814FF0FF30BDE8F0812DE9C9
:10076000F8470D46A3B02F6B002F8146904648BF37
:100770006FF0004700F0CAFD696B40180FF62C11AE
:100780008128D1E90023CDE9012328BF4FF0FF30B4
:100790003ED20024002F2FDDD8F8001001AA6846B1
:1007A00000F01EFD0646002E35D4D8F8000008B92A
:1007B000761E30D4B7421FDB6869301881280AD30F
:1007C0000020686303AA29464846FFF74DFF04004E
:1007D00012D40020686103A8D5F814A032466946F7
:1007E000504400F099FDB244C5F814A058F8040B29
:1007F000002818BFBF1BCDD12CB903AA29464846F3
:10080000FFF732FF044614B9002068616863204690
:1008100024B0BDE8F0874FF0FF34F8E72DE9FC473E
:1008200007468A463E69BAF16F0F08BF082405D013
:100830004AF02001782914BF0A2410243C25D7E966
:100840000023BAF1640F18BFBAF1690F90469946B8
:1008500006D100218B4203DAD8F1000869EB49097F
:100860000020814508BF80451FD1386BE8B9082CAE
:100870004CD197F83800010748D530203B2586F841
:100880003B0043E000280ED597F8380000F0140034
:10089000102808D17A6B7869121A386A121A511A1C
:1008A0000029C8BF3962BDE8F3878DF800A0404633
:1008B00049462246E31700F083FD3032D0B26D1E68
:1008C0003A28019504DB9DF80000A0F151018A1837
:1008D0007255404649462246E31700F071FD8046B6
:1008E00089460020814508BF804503D0F86871190A
:1008F0008842DCD3082C09D197F83800010705D5C8
:10090000715D302902D06D1E30207055C5F13C015B
:10091000B9617019F860386B8142B3DA411A3962F3
:100920004FF6EF70398F01403987BDE8F3872DE925
:10093000D04306460F4614464FF00008DFF83894BF
:1009400012E0E00707D542464B463046394600F0F4
:100950004FFE06460F464046494642464B4600F08B
:1009600047FE641080468946002CEAD1304639465D
:10097000BDE8D0832DE9F34F054641F020048DB04A
:10098000D5E90089612C02AE09D0286B002848BF48
:10099000062003D408BF672C01D101202863D5E9C4
:1009A000002358004015401C0ED119030CD0032021
:1009B000A8619DF8380061381A2802D20FF2F4615C
:1009C00011E00FF2F4610EE058004015401C0FD109
:1009D00019030DD10320A8619DF8380061381A2849
:1009E00014D30FF2DC61E868032200F095FCD3E138
:1009F000194621F00043B3F5801F10460DD20027A1
:100A0000BB4208BFBA42019703D111E00FF2AC61BB
:100A1000E9E701AA00F0BEFE0AE0DFF8607307EB29
:100A20001352DFF85C3301921940DFF85833194351
:100A3000C5E90001612C0ED1E86830210170811CEC
:100A4000E9609DF8381061290CBF78215821417068
:100A50006869801C6861D5E900AB2BF00043002079
:100A60002AF00002834204BF8242002300F05A8130
:100A7000612C40F0A980286B00284CBF2120401C2D
:100A800000904046009F7F1C49460022002300F052
:100A9000B9FED94601988DF8082038BF89F0004981
:100AA000001F0190002FD0460DF1090040F349814D
:100AB00040F2FF71DFF8D0B20C910646404649463D
:100AC0000022002300F0B6FE80F03A814800400D7D
:100AD00000F11C0210D0002A0EDD0C98824205DBCA
:100AE00009F0004040EA0B01002013E0A448084050
:100AF00040EA025140460DE029F00043002028F072
:100B00000002834208BF82420FBF40461C2240467B
:100B100000F0A8FE8046894600F042FFFF1F002F2C
:100B2000044609DD00F05AFF02460B46404649469E
:100B300000F066FF80468946F01D072104E004F0BE
:100B40000F0200F8012D2411002C01DD491EF6D5FD
:100B5000491E5CBF002200F8012DF9D5ECE0002011
:100B6000194602AA0A4400E05B1E12F80149491E18
:100B70008442F9D00F2804D10DF10900425C521CC7
:100B80004254002904D50198001D02AE5B1C01905F
:100B9000591E12D49DF838007218147804F13008E8
:100BA0005FFA88F4392CC4BFA0F13A04A044491E6E
:100BB00002F80189F1D58DF83800286B002840F142
:100BC000B080591E2963ACE040464946002200230C
:100BD00000F018FE019938BF89F0004947F297509C
:100BE00041436A4A91FBF2F20192D2F1070204DD1D
:100BF00040464946FFF79BFE0AE052420020644906
:100C0000FFF795FE02460B464046494600F06AFF54
:100C10008046662C286BDFF87CB106BF019F0A373F
:100C200006273F18142FC8BF142730208DF808005E
:100C300089460DF1090000E03046002F34DD0646FC
:100C40004046494601F072F801460A4606F108039B
:100C500004200A26B2FBF6F606EB860EA2EB4E0245
:100C6000303203F8012C0A22B6FBF2F202EB820EBC
:100C7000A6EB4E063036401E03F8026DE9D1083F60
:100C8000002F03F10806D7DD084601F063F802469D
:100C90000B464046494600F0B3FE00225B4600F09A
:100CA000A7FC80468946CBE70DF10901401A0DF1FA
:100CB000090604E00199491E401E0191761C317815
:100CC0003029F7D0662C02D10199491C03E0652C2C
:100CD0000CBF012100212B6BCB189842B8BF431EDB
:100CE000002B1ED4834204DAF05C3528A8BF3920DB
:100CF00000DA30201946721E02EB010800E05B1E8C
:100D000018F80199491E8145F9D0392802D1705C43
:100D1000401C7054002904D50198401C16465B1CE9
:100D20000190019800B200901BB29DF83810324635
:100D3000284600F035F82FE0C61D002F3FF7BEAE65
:100D400030460DF10901401A009903468842C8BF98
:100D50000B46002B0DF109063FF52FAF8342BFF67E
:100D6000FEAE0DF10900C05C07287FF7F8AE0F203A
:100D7000F6E60000CBCCCC0C0000244002FCFFFFC8
:100D8000FFFF0F800000E03F0000F07FA086010021
:100D90000000F03F84D797410FB0BDE8F08F00000E
:100DA0002DE9F84783B006468A461746984600F074
:100DB00019FAB8F1000F406A356B90F8009002DC28
:100DC0004FF00108BFA7BDF930404AF02000662867
:100DD00008BF641C15D0672840F0848014F1040F0C
:100DE000C0F28680AC4280F2838096F83800641CA2
:100DF000010702D4A845B8BF454620B22D1A48BF06
:100E000000250FFA84FAF068B169BAF1000F25DC09
:100E10004A1C30234354002D03DC96F838000107A8
:100E200003D5F06800F80290521C15EB0A0FB8BF0A
:100E30006C4220B2441941424445B8BFA046B26159
:100E400071620FFA88F5F561F068B3692A46394690
:100E5000184400F061FA641BB462C4E022B2904509
:100E6000084417DA4246394600F056FAB069404461
:100E7000B061AAEB0801002D716203DC96F838100E
:100E80000A0705D5F16801F80090F069401CF0618F
:100E9000B562A8E0394600F03FFAB069002D504431
:100EA000A8EB040803DC96F838100A0703D5F168AC
:100EB00001F80090401CB0610FFA88F08542F0689C
:100EC000B369B8BFA8460FFA88F207EB0A011844C5
:100ED00000F022FAB0690FFA88F10844B061681A8C
:100EE000706280E0BAF1610F14D14FF0700A16E021
:100EF000A84504DA96F838100A0758BF45466D1E13
:100F000048BF0025BAF1670F14BF4FF0450A4FF0F4
:100F1000650A04E0BAF1410F08BF4FF0500AB16909
:100F2000F368481CB061002D17F8012B5A5403DCFC
:100F300096F838100A071BD5F168431CB36101F815
:100F40000090002D14DDA8F101080FFA88F0854209
:100F5000F068B8BFA8460FFA88F23946184400F086
:100F6000DBF9B0690FFA88F108446D1AB061756257
:100F7000F068B1690844002C80F800A003D42B214C
:100F80004170811C03E02D2141706442811C0020CE
:100F90006A460AE023460A2493FBF4F404EB840532
:100FA000A3EB450302F8013B401C24B2002CF1DC0A
:100FB000012806DC4AF02002652A04BF302201F82D
:100FC000012B48B9302001F8010B07E0401E1DF845
:100FD0000020303201F8012B0028F7DCF068B269FC
:100FE0001044091AF16196F8380000F01400102836
:100FF0000DD17169B0694118706A4118F0694118E2
:10100000B06A4118706B8142BCBF411A316204B0B2
:10101000BDE8F087F8B505460E4617461C46002089
:1010200074B117F8011BB068A847B06030B1F06A1E
:10103000401CF0620020641EF3D1F2BD4FF0FF307F
:10104000F2BD00007072696E74665F733A20256E9F
:1010500020646973616C6C6F776564007072696E8F
:1010600074663A2062616420256E20617267756D36
:10107000656E74007072696E74665F733A206261A7
:101080006420257320617267756D656E74000000C1
:101090007072696E74665F733A2062616420256CB9
:1010A0007320617267756D656E740000000000004A
:1010B000000000006E616E004E414E00696E6600D9
:1010C000494E46003000F0B4024610689568131887
:1010D000506803EB5004C00721D54D441FE0F0BC1D
:1010E00002F10C00704713F8017B05F8017B491EE3
:1010F000F9D1A0B1B60813F8011B06F00306032EC0
:1011000008BF13F8016B01EB06214942801C2944FA
:1011100005D011F8016B05F8016B401EF9D1A3420F
:10112000DDD013F8016B16F0030104BF13F8011BA7
:10113000C91C30090F28DAD113F8010B0F30D6E79C
:10114000613807E005E0A0F161011A2901D2012010
:10115000704741381A288041C00F7047A0F109013B
:10116000052901D3202801D10120704700207047B4
:10117000A0F141011A2938BF203070471A48704742
:1011800030B45368D418042B09DA41B1057804F857
:10119000015B10F8015B15B15B1C491EF3E753605E
:1011A00030BC704738B514461D4661B1FFF7E8FF03
:1011B00061686A6B204690476FF00102811A02D085
:1011C000491E03D005E06FF0010032BD4FF0FF3043
:1011D00032BD0021616032BDDA6B1047024BE1E79E
:1011E000014BF9E7014870478005002048050020C1
:1011F0000278C9B28A421AB11CBF10F8012FF9E770
:1012000018BF00207047B1F5807F02D34FF0FF3048
:1012100070470170012070470078401E8041C04334
:10122000C00F704780B500B906A005490B681BB117
:1012300022220021984701E000F099FD222002BD02
:10124000540A0020636F6E73747261696E74206853
:10125000616E646C65723A20626164206D657373BF
:101260006167650000F10103810704D010F8011BDC
:1012700089B18107FAD10268B2F10131914311F0CD
:10128000803F04BF50F8042FF6E710F8011B11B19E
:1012900010F8011BFBE7C01A70478268521C82607D
:1012A000426832B10268531C036011704168491EE4
:1012B00041607047C9B2830706D0521E22D310F88E
:1012C000013B9942F7D11FE0083A13D302F104021F
:1012D00041EA012141EA014150F8043B121F21BFBC
:1012E0004B40A3F1013C2CEA030C1CF0803FF3D0EF
:1012F000C9B2001F083210F8013B521E28BF91EA04
:10130000030FF8D818BF0120401E704780B5FFF7C3
:1013100035FF006C02BD000062B38B0708D0521E7F
:1013200011F8013B00F8013B00F024808B07F6D157
:10133000830740F0208000BF103A07D330B4B1E8F3
:101340003810103AA0E83810F9D230BC530724BF47
:10135000B1E80810A0E8081044BF51F8043B40F879
:10136000043BD20724BF31F8022B20F8022B44BFE4
:101370000B7803707047121F17D35B0009D151F827
:10138000043B20F8023B1B0C121F20F8023BF6D254
:101390000BE051F8043B00F8013B1B0A20F8023B2C
:1013A0001B0C121F00F8013BF3D238BF121D521E56
:1013B00024BF11F8013B00F8013BF8D8704700004A
:1013C000B3BBD9B1B2F5803F7DD2022A1ED98C467B
:1013D000B1FBF2F102FB11C31B0443EA1043B3FB60
:1013E000F2FC02FB1C3380B240EA0343B3FBF2F091
:1013F00002FB103240EA0C4000237047022A05D954
:101400008446B0FBF2F002FB10C270474AB105D12E
:1014100000F0010249085FEA300070470022002313
:10142000704700F0A7BC0B000200002100207047AD
:10143000904271EB030CF6D3B3F5803F2FD2F0B599
:10144000B3FA83F7B1FA81F4A7F10F0E3D1B5340B5
:10145000CEF1200602FA0EF2F3415340B5F10F0728
:1014600046D80F3C2C444140C4F12006A040F14135
:101470004140B1FBF3F603FB1611A2FB0645001B2E
:10148000A94102D2761E8018594180EA010221FA50
:101490000EF362FA0EF200215A403046F0BD30B42D
:1014A000B1FBF3FC03FB1C11A2FB0C45001BA94183
:1014B00003D2ACF1010C8018594130BC02460B46F6
:1014C000604600217047B2F1807F65D3F0B5B2FA73
:1014D00082F7B1FA81F4C7F10F063D1B22FA06F339
:1014E00007F1110EF24120355A40B5F10F07B8D976
:1014F0004140C4F12006A040F1414140B1FBF3FC62
:1015000003FB1C11A2FB0C45001BA94103D2BCF13B
:10151000010C801859410F2F12D30F3FC90341EA24
:101520005041B1FBF3F603FB1611A2FB0645D4EBC9
:10153000C030A94102D2761E8018594146EACC3CFF
:1015400007B34140C7F12006B840F1414140B1FB2B
:10155000F3F603FB1611A2FB0645001BA94102D2BC
:10156000761E8018594180EA010221FA0EF3C7F174
:10157000200462FA0EF20CFA07F05A402CFA04F139
:101580003043F0BD80EA010221FA0EF3002162FA35
:101590000EF260465A40F0BD8C46B1FBF2F102FB00
:1015A00011C31B0243EA1063B3FBF2FC02FB1C33C2
:1015B0001B024CEA002043EA1063B3FBF2FC02FB7F
:1015C0001C331B024CEA002043EA1063B3FBF2FC1D
:1015D00002FB1C331B024CEA002043EA1063B3FBFE
:1015E000F2FC02FB1C324CEA002000237047000092
:1015F000B0B581EA030C0CF0004C40F2FF7515EA1F
:1016000011541DBF15EA1357AC42AF4239E0E4193B
:1016100023EA455343F48013C90241F0004141EAF3
:10162000505EC7021100A7FB020200284FF0000025
:10163000EEFB01204FF00001E3FB072118BF42F051
:101640000102401800214941E3FB0E01A4F580642A
:101650000F0302D252004041494154F101046CDDB4
:10166000470872F1004250F1000051EB0451A1F51E
:1016700080115CBF41EA0C01B0BD4CEA055100206D
:10168000B0BD05EA1357AC4214BFAF4241E050EA87
:10169000410E1CBF52EA430E02E061460020B0BD7D
:1016A00024423C441BD15FEA070EF6D0090302BF77
:1016B00001460020AEF1140EB1FA81F7AEEB07043B
:1016C00001FA07FE0C37C7F1200100FA07F7C840FE
:1016D0004EEA000E23EA455343F48013A2E733F0A9
:1016E0000043B3FA83F704BFB2FA82FE77440B3F9C
:1016F000E41BB7F1200E2FBF02FA0EF3BB40C7F177
:10170000200E22FA0EFE38BF43EA0E03BA40641CD4
:1017100082E750EA410E14BF52EA430E6FF0000117
:101720004FF4001717EB430F8ABF194617EB410F11
:10173000B5E74CEA05510020B0BDD4F10104B4F185
:1017400020070FDAC4F12007520828BF42F0010237
:1017500010FA07F501FA07F7E1BF2A43E0403843E2
:10176000E1400FE0352C98DCC7F1200452EA40023A
:1017700020FA07F218BF42F0010231FA07F0A14047
:101780000A43002172F1004250F1000051EB0C01BC
:10179000B0BD000010B5144600F002F8226010BD84
:1017A000C1F30A5343B14A0012F5001F28D2A3F235
:1017B000FE32A1EB0251704750EA410C20D001F0FB
:1017C000004C31EA0C01B1FA81F204BFB0FA80F3A7
:1017D000D2180B3AB2F120032CBF00FA03F191406A
:1017E00041EA0C013EBFC2F1200C20FA0CF3194370
:1017F0009040524240F2FD33D21A01EB0351704740
:10180000002270474FF4001C1CEB410F94BF1CEBEF
:10181000430F09E041EA030C50EA4C0C52EA0C0C6D
:1018200003D2994208BF9042704714BF8B42824254
:10183000704700004FF4001C1CEB410F94BF1CEBE1
:10184000430F09E041EA030C50EA4C0C52EA0C0C3D
:1018500003D28B4208BF8242704714BF9942904224
:1018600070470000124254D440F2FF7C1CEA11532E
:101870000FD0634531D09B1863453CBF01EB02514B
:10188000704701F0004141EA0C510020AFF30080A5
:10189000704750EA410320D001F0004C91EA0C015E
:1018A0001CD0B1FA81F30B3B9A420DD9D21A994060
:1018B00051EA0C01C3F1200C20FA0CFC6144984061
:1018C000531C40F2FF7CD7E7914041EA0C01C2F182
:1018D000200C20FA0CF3194390407047B0FA80F3C3
:1018E0001533202BE0D3202AEED3203A203B9A4216
:1018F00009D9D21A00FA03F141EA0C010020531C65
:1019000040F2FF7CB8E700FA02F141EA0C01002046
:101910007047524240F2FF7C1CEA11530DD06345E0
:10192000DBD0B2EB030C3CBFA1EB025170470CF1D2
:10193000010221EA035141F4801150EA410CCCD05C
:1019400001F0004C352A27DC30B481EA0C01B2F1F9
:10195000200309DAC2F12003044601FA03F5D0405E
:101960002843D1409C400CE0C3F12002450020FAFE
:1019700003F418BF44F0010421FA03F091400C4332
:10198000002174F1004550F1000051EB0C0124429C
:1019900030BC7FF47BAF70476146002076E70000E3
:1019A000C1F30A5340F2FE329B1A14DDD3F1200337
:1019B0004FEAE17208DDC90241EA505141F00040AE
:1019C000D84080185040704703F2E13010B1D24344
:1019D00082F000407047002070470000C11768B1D6
:1019E0004840401AB0FA80F29040D21CC907C2F5B4
:1019F000846241EA025202EBD021400570470000A8
:101A000070B44FF0004591EA030F40F1BD816B4087
:101A1000841A71EB030603D2001BB1411219734102
:101A20004FF4001C1CEB410F34BF7CEB430442E03D
:101A30000C0DA4EB1356352E4FDC45EAC323DB0A0D
:101A400045EAC121C912B6F120050DDD63FA05F69C
:101A5000EB4086EA0305124218BF45F00105C018A5
:101A600051F100010CD213E062FA06F5F240554044
:101A7000F3415A40B340F3405A408018594107D3CC
:101A800049085FEA30005FEA350528BF45F00105E7
:101A900001F58011420875F1004250F1000041EB60
:101AA00004514E0016F5001F70BC38BF704700206F
:101AB000090D090570471CEB410F10D252EA43068D
:101AC0000BD0BCEB410F05D80C0DAB43661E342E7A
:101AD000B6DD02E0AB438018594170BC704770BC62
:101AE00070470000F0B540F2FF7581EA030C0CF07E
:101AF000004C15EA11541DBF15EA1357AC42AF4212
:101B0000E5E0BC41C1F31301C3F31303801A99410B
:101B100043F4801304D2641E4000494180185941A7
:101B2000C90241EA5051B1FBF3F603FB1611A2FBC7
:101B30000675D7EBC020A94102D2761E8018594104
:101B4000C90241EA5051B1FBF3FE03FB1E11A2FB97
:101B50000E75D7EBC020A94103D2AEF1010E80185B
:101B60005941890241EA9051760546EA8E2EB1FB31
:101B7000F3F603FB1611A2FB0675D7EB8020A941F3
:101B800002D2761E80185941C90241EA50514EEAEC
:101B9000060EB1FBF3F603FB1611A2FB0675D7EB9D
:101BA000C020A94102D2761E80185941C90241EADB
:101BB0005051B1FBF3F703FB1711A2FB0735D3EB31
:101BC000C020A94167F100070CBF004247F00107A0
:101BD00066F3D5274FEA1E31B80814F5806412DD8C
:101BE000BD0775F1004250EB0E5051EB045111F559
:101BF000801F5CBF41EA0C01F0BD4CF07F6141F0F9
:101C0000E0410020F0BDBD076D0840EA0E5041F4F0
:101C10008011D4F10104B4F120060ADAC4F12006DF
:101C20000200E04001FA06F3E1401843B2401543D8
:101C30000EE0342C13DCC6F1200445EA40056D08A3
:101C400020FA06F2154321FA06F0A1400D430021C7
:101C500075F1004250F1000051EB0C01F0BD002085
:101C60005FEA0C01F0BDCFB992185B41B3FA83F77C
:101C700004BFB2FA82F6BF190B3FB7F120062FBF9F
:101C800002FA06F3BB40C7F1200622FA06F638BF77
:101C90003343BA401CB1E419641E33E77F4231F08C
:101CA0000041B1FA81F404BFB0FA80F6A4190B3CEC
:101CB000B4F120062FBF00FA06F1A140C4F12006BE
:101CC00020FA06F638BF3143A0403C1B1AE7AC426D
:101CD0001ABF05EA1357AF4212E050EA41061CBF93
:101CE00052EA4306BFE750EA4107304661461CBF4F
:101CF00041EA0551F0BD52EA430C08BFC143F0BDB3
:101D000000204FF4001616EB410F98BF16EB430F5F
:101D100008BF16EB410F24BFC14305E016EB430F8C
:101D20000CBF61464CEA0551F0BD0000400D49185A
:101D300040EA81200CD2490DA1F58061491C40F098
:101D4000004005DBD1F11F0154BFC840C0177047E8
:101D500000207047014648B1B0FA80F18840C91CA4
:101D6000C1F58461090501EBD021400570470120D0
:101D700000F0BEB87047000070B44FF0004591EA23
:101D8000030F7FF545AE6B40841A71EB030604D256
:101D90006E40001BB141121973414FF4001C1CEB43
:101DA000410F34BF7CEB430682E00C0DA4EB1356CD
:101DB000362E7BDC012E45EAC32341DC43EA525335
:101DC00012BFD20292025B08240545EAC12141EA12
:101DD0005051D2EBC020994125D407D1B0FA80F6FA
:101DE00010FA06F162D00020203608E0B1FA81F640
:101DF000B140C6F1200220FA02F21143B0404FEA8E
:101E0000F474B4EB465434F001064FEA74040AD873
:101E1000D6F50016760D04F00044F04061FA06F2A3
:101E20005040F1404840C00A40EA415021F0004192
:101E300028BF5FEA500550F1000044EBD12135E0A6
:101E4000DB0A45EAC121C90AB6F120050EDD42EAE6
:101E50000242120CC5F1200603FA06F6EB4042EAF4
:101E600006056D42984161F100010DE062FA06F548
:101E7000F240554063FA06FC82EA0C02F3405A40F5
:101E80006D42904161EB030111F4801F05D1641E86
:101E9000620502D06D004041494121F480114308A0
:101EA00075F1004350F1000041EB045170BC7047E4
:101EB0001CEB410F15D223F0004352EA43060BD02E
:101EC0004FEA4C0CBCEB410F04D80C0D661E342EAF
:101ED000B7DDEBE7801A994150EA410608BF0021BF
:101EE000E4E708BF1CEB430F28BF6FF00001DDE7FC
:101EF00080B5AFF30080024A11001820ABBEFBE7AB
:101F000026000200F8B5044600262CB304F13C0577
:101F1000287818B96E70204600F0F6FA00F025F91E
:101F20002068026842F00102026000F015FC0746DA
:101F300020684168CA0711D400F00EFCC01B0B28B2
:101F4000F6D300F01AF9F2BD00F006FC801B0B2856
:101F50003DD3F6E7042028700120F2BD4168CA078E
:101F6000F8D5A1690129E16908BF80260129216A04
:101F700008BF46F040060129616A08BF46F0200606
:101F80000129A16A08BF46F010060129E16A02682A
:101F900008BF46F00806012908BF46F0040622F0F3
:101FA000FC0216430660A168E068226801432069CC
:101FB0000143606901436068401E0143D1612068AC
:101FC000016849084900016000F0C6FB0646206828
:101FD0004168CA07B8D44068C107BBD40021696012
:101FE000012028700020F2BDF8B54A690468012379
:101FF00003FA02F204F5007318684D6A20F47C506D
:1020000040EA052040F001001860D543D869284017
:10201000D861C86980B9DE682E4000F03DF8CF680D
:1020200000F040F8D1F800C08F684E691FFA8CFCB0
:102030004CEA074740F83670C86901280ED1DE68BF
:10204000164300F029F80F6800F02CF8CF688E686E
:102050004C69BFB247EA064740F83470886918B93E
:102060005C682C405C6002E0586810435860086966
:1020700018B95C6925405D6102E0586910435861F8
:10208000086A012802D1D9690A43DA611868400850
:10209000400018600020F2BDDE6004F51070D1F839
:1020A00004C070474E691FFA8CFC4CEA074740F8A1
:1020B000367004F51170704718B50B0000F13C0242
:1020C0000BD11378222B1CBF1478422C16D0137816
:1020D000622B1CBF1478722C10D001290BD11378FD
:1020E000322B1CBF1478522C08D01378622B1CBFE3
:1020F0001478722C02D05378012B01D1022012BD2A
:10210000012454700B0013780AD1122B04D0322B07
:102110000FD0522B0FD001E042230FE022230DE01D
:10212000122B04D0222B04D0422B04D005E05223E2
:1021300004E0622302E0722300E0322313700023E4
:10214000536003685C6944F40F4444F001045C612B
:10215000002353700029006841690CBF41F00A0157
:1021600041F050014161002012BD0220287020681A
:10217000016821F0020101607047032028700020EF
:10218000687003207047F8B5044600202268D568BF
:10219000002100265369ED0605D51B0703D5102342
:1021A0004FF40076D360226815695369ED0605D5B2
:1021B0005B0603D5102346F48066136104F13C05E9
:1021C00022685369DF0748D597686C4B1F409F42D0
:1021D0009768694B08BF01201F409F429768684B72
:1021E00008BF01211F409F420CBF01230023084369
:1021F000184332D09068916893684008490A00F00B
:10220000010001F00101084303F0010318431DD050
:1022100050694008400050612978122904D1206893
:10222000416921F40F4141612878422808D05228A1
:1022300004D072280CBF6220012002E0322000E0AE
:1022400022202870204600F08DFA01E046F4006656
:1022500021684C488A6802438A602068C1684069E6
:1022600011F0030F05D0800703D50021204600F0B0
:102270008DF820680169406911F0030F05D0C00690
:1022800003D50121204600F081F8686806436E609E
:102290002068836941694269DB0707D5C90505D50F
:1022A000110403D5696841F00101696083694169DE
:1022B00042699B0707D5890505D5110403D56968CF
:1022C00041F0020169608369416942695B0707D592
:1022D000490505D5110403D5696841F00401696019
:1022E000816901F070014B1E416942699B41DB0F1E
:1022F0002FD109052DD511042BD5816901F070016D
:1023000010290AD020290CD030290ED0402910D015
:10231000502912D0602914D017E0696841F00801F3
:1023200012E0696841F010010EE0696841F0200197
:102330000AE0696841F0400106E0696841F0800107
:1023400002E0696841F480716960816921F070017F
:102350008161686870B12268042151600120287091
:10236000216809484A6902404A612046BDE8F240B6
:1023700000F06DB9F1BD000000010008010000048B
:102380000000011009050100A470FFFF38B50A0024
:1023900002680CBF436B836B0C0102F5D8752A5998
:1023A00012F004029A60056805F5D87503D12A5920
:1023B000520D1A6002E02D59ED085D60026802F5C9
:1023C000D8752D5905F00205DD6002682244D2F867
:1023D000B421196202F00F021A6102682244D2F895
:1023E000B421C2F30722DA6102682244D2F8B8218C
:1023F0001A7502682244D2F8B821120A5A75056883
:102400002A19D2F8B821120C9A7505682A19D2F83F
:10241000B821120EDA7500F04EF81A7602682244DE
:10242000D2F8BC21120A5A7600F045F8120C9A76BE
:1024300000F041F8120EDA760B00026806D1202374
:10244000D3600268536923F00A0305E02024146175
:102450000268536923F05003536190F83C20222A0C
:1024600018BF322A04D10268536923F40F43536121
:10247000002990F83C100AD142290FD0622902D0DD
:10248000722902D010E032210FE052210DE05229D2
:1024900004D0622904D0722904D005E0122104E09E
:1024A000222102E0422100E0012180F83C1000F0EE
:1024B000C7F8002032BD05682A19D2F8BC21704740
:1024C00080B5864886490160032141600021816012
:1024D000C1604FF4002101614FF48011416100217E
:1024E00081610121C161002101624162816201219A
:1024F000C162FFF707FD30B1BDE804405FF04D0158
:102500007DA000F0CFB901BD00687549884200D0B8
:10251000704718B57348744C85B0016841F000717C
:1025200001604FF40061006800F00070009000222C
:10253000009801910292039201A9204600F0BAF995
:102540004FF480500190022103200291049001A9D0
:10255000204600F0AFF900220021142000F0BAFA62
:10256000142000F0D4FA06B010BD000010B55B4C8A
:1025700004F16C00206304F18800606300F00CF843
:1025800000212046FFF798FD00F06EF86BA000F0E8
:102590005CFBBDE810406EE0504800218165C165DC
:1025A00001210166002141648164C16401654165C6
:1025B000012141660E21816600F14401FFF714BD3F
:1025C0002DE9F041044640F6010084424FEA01053E
:1025D0005FA70FF2241806D3D8224146384600F0F0
:1025E00035FCAFF30080414E3068322806DBD9223B
:1025F0004146384600F02AFCAFF3008030683C4981
:1026000041F8305001EBC001401C4C6030600020AC
:10261000BDE8F08170B5354B354C1B68002200E0F9
:10262000521C9A420ADA04EBC2056E68B042F7D136
:10263000084654F832108847012070BD002070BD54
:1026400010B50446616B0868FFF7E4FF05E010B5BC
:10265000224A136804460020586000212046FFF7F4
:102660002BFD00F001F810BD20B12068416941F058
:102670000A014161704710B51E4C21460020FFF74A
:102680009FFF21460120FFF79BFF21460220FFF715
:1026900097FF21460320FFF793FF21460420FFF711
:1026A0008FFF21460520FFF78BFF21460620FFF70D
:1026B00087FF21460720FFF783FF21460820FFF709
:1026C0007FFF21460920FFF77BFF21460A20FFF705
:1026D00077FF2146BDE810400B2071E7200800205D
:1026E000006400401C10024000080140240A002041
:1026F000C8050020D5600008433A5C5573657273C5
:102700005C77616E6779756E7875616E5C44657330
:102710006B746F705C526F626F636F6E5C70726F20
:102720006772616D5C656E636F6465722D7A687542
:10273000615C5372635C63616E2E630063616E2043
:1027400072656164792121210D0A0D0A00000000E3
:10275000746573740000000001484068704700BF52
:10276000740400207047000080B500F081FB00F089
:102770003AF800F08FFB00F00DFC00F001FA00F0D9
:1027800051FC00F01FFC00F0D5FCFFF799FE002281
:102790000121252000F09EF9252000F0B8F9002243
:1027A0000221142000F096F9142000F0B0F900F096
:1027B00035FDFFF7DBFE0FF2A1014FF4A170FFF72B
:1027C000FFFE00BF38A000F040FA00F0E1FD00F08D
:1027D00014FE3049304A01200860106000F080FA91
:1027E00000F091FEFAE700B500218FB001200791BB
:1027F000059002210C914FF48030069001220D903B
:102800004FF4E01109920E9105A800F0DDFE00B131
:10281000FEE70F2102200091019000214FF480601B
:102820000291039004916846022101F05BF800B127
:10283000FEE701F005F94FF47A71B0FBF1F000F01A
:1028400070F9042000F081F9002200214FF0FF30E0
:1028500000F040F90FB000BD82B0002143181B7D8D
:102860000DF80130491C0829F8DB9DF800000B49E0
:10287000312808BF012009D0322806D03328084962
:1028800008BF012002D0342801D10020086002B026
:1028900070470000500A0020040400200C040020AF
:1028A00010040020FEE700007374617274210D0AA9
:1028B000000000002DE9F84F83460F4600208046B7
:1028C0006749684A684B4FF00F094FF0010A3C68AE
:1028D0000AFA08F606EA040EB64540F0AE807C68B7
:1028E0003CB3012C1AD0022C1DD0032C2ED0112C5D
:1028F00016D0122C1AD05D4DAC421CBF5C4DAC42C0
:1029000017D05C4DAC421CBF5B4DAC4211D05B4D4F
:10291000AC421CBF5A4DAC420BD018E0F86816E030
:10292000F868001D13E0F868083010E0F8680C3013
:102930000DE0B86808B9042009E0012819BF082093
:10294000CBF814600820CBF8106000E00020BEF542
:10295000807F03D2DC464FEA880404E0A8F1080433
:102960000BF1040CA400DCF8005009FA04F6B5439E
:1029700000FA04F42C43CCF800407C68E4005CD5F9
:102980001C6844F001041C604FEA980C1D6805F0B7
:1029900001050095009C52F82C604FEA880404F071
:1029A0000C0409FA04F526EA0505364EB34508BFBE
:1029B000002618D0344EB34508BF012613D0334E3D
:1029C000B34508BF02260ED0314EB34508BF0326DB
:1029D00009D0304EB34508BF042604D02E4EB3456F
:1029E0000CBF0526062606FA04F42C4342F82C40B8
:1029F0006FEA0E067C68E50304D50D684EEA05050E
:102A00000D6002E00C6834400C607C68A5034C68E3
:102A10004CBF4EEA040434404C607C68E5028C688C
:102A20004CBF4EEA040434408C607C68A502CC683C
:102A30004CBF4EEA04043440CC6008F10108B8F100
:102A40000F0F7FF644AFBDE8F18F81B002B90904E2
:102A5000016101B07047C2685140C1607047000019
:102A6000000401400800014018100240000011104D
:102A70000000121000002110000022100000311090
:102A80000000321000080140000C0140001001401D
:102A90000014014000180140001C0140090102001F
:102AA00081B006D52F4A00F00F00104400F8041C36
:102AB00001E02D4B195401B070472C4A13684FF6B2
:102AC000FF0100020B4000F4E0601843284908436E
:102AD0001060704738B5254B1C68C4F30223C3F15E
:102AE0000704052C28BF04241D1D072D34BF002317
:102AF000DB1E012505FA04F4641E2140994005FA05
:102B000003F35B1E1A401143BDE83440C6E70122BF
:102B100000F01F01174BFFE78A40400943F82020CF
:102B2000704710B5401EB0F1807F01D3012010BD69
:102B3000114C60600F214FF0FF30FFF7AFFF002214
:102B4000A26007202060002010BD04280A4904D19B
:102B5000086840F00400086070470A6822F0040228
:102B60000A60704718ED00E000E400E00CED00E0C2
:102B70000000FA0500E100E010E000E000F07EBC9B
:102B800010B5874C8748E0614FF4E13020620020A7
:102B90006062A062E0620C20206300206063A0639A
:102BA00004F11C0000F082FF18B14B2188A0FFF750
:102BB00079FE04F1180104F11C00BDE81040012267
:102BC00001F009B830B5044685B0206875498842DF
:102BD00039D17548754D016841F4804101604FF469
:102BE0000071006800F4804000900222009801917A
:102BF00003200490029201A92846FFF75BFE4FF4E0
:102C000080600021019002910391284601A9FFF7FD
:102C100051FE674D67482860102068600020A8605A
:102C20008020E860002028616861A8614FF40050AE
:102C3000E861284601F0B2F918B1772164A0FFF7E6
:102C400031FE25636C6205B030BD0EB418B5024686
:102C5000534C03AB652104F15C0001F04DFB82B2E3
:102C60004FF47A7304F15C0104F11C0000F05AFF88
:102C700011BC5DF810FB10B5494B0068494A598BEF
:102C800090421AD10A0418D4187E4C0404D50A289C
:102C900012D141F4004110E00D28474C05D141F418
:102CA0008041C1F30D02A05407E0C1F30D02491C9D
:102CB000A05488B2C82800DB002159830122BDE856
:102CC000104003F1180103F11C0000F084BF3448E8
:102CD00000F1180101221C3000F07DBF000000004F
:102CE0007CB52F4C608B010431D5800404D100F0F9
:102CF00067F80021618373BD304D2F482A4669462D
:102D000000F098FA00286FF001060FD510F1030FBC
:102D100019D0B04208BF0FF2001004D010F1010F1B
:102D200011D100BF41A0FFF790FF0CE000982946A9
:102D300000F0B1FA002808D5B04204D1D5F800104F
:102D40003EA0FFF782FF00F03BF80020608373BDD8
:102D50001FB5134C00F034F80620E07010210D2050
:102D60002075A1700A206075211D009A0A6001A8D3
:102D700004F1080102680A6002A804F10C0102686B
:102D80000A6003A804F1100102680A604FF47A7324
:102D90001622214604F11C0000F0C4FE1FBD0000F5
:102DA000840400200038014018100240000801404F
:102DB000CC0800204400024058070020D009002021
:102DC000012204F1180104F11C0000F004BF00000E
:102DD000433A5C55736572735C77616E6779756EA3
:102DE0007875616E5C4465736B746F705C526F6272
:102DF0006F636F6E5C70726F6772616D5C656E633E
:102E00006F6465722D686561645C5372635C757391
:102E10006172742E63000000C3FCC1EEB2CECAFD25
:102E2000B3A4B6C8B9FDB3A40D0A0000C3FCC1EE3B
:102E3000B2CECAFDB9FDB6E00D0A0000CEB4D5D2BF
:102E4000B5BDC3FCC1EE25730D0A000000B583B00B
:102E50000091019202906A4604491820ABBE0028F6
:102E600001D1FEF784FF03B000BD00BF10100200C7
:102E700080B50748016841F0100101600320FFF7A9
:102E80001CFE002001F056FA01F074FA002002BD89
:102E90000020024078B53548354C364D364E85B069
:102EA000016841F020010160026802F020020492F2
:102EB0000499016841F004010160026802F0040213
:102EC00004920499016841F008010160026802F06F
:102ED0000802049200220499016841F01001016087
:102EE0004021006800F01000049004982046FFF78D
:102EF000ACFD00224FF460612846FFF7A6FD0122D9
:102F000048F204012846FFF7A0FD00228021304648
:102F1000FFF79BFD402000F035F800F02FF88020EF
:102F2000002100900191029100F028F848F6046019
:102F300000F028F8284600F022F8802000F022F85F
:102F4000304600F01CF801224FF480512846FFF76C
:102F50007CFD4FF4805000900121022001910390EC
:102F600069462846FFF7A6FC06B070BD181002405F
:102F700000080140000C0140001001402046694655
:102F8000FFF798BC012100900191002002210290DE
:102F90000391704780B50A48016841F00101016062
:102FA0000022006800F001000090002100980E202F
:102FB000FFF790FDBDE802400E20FFF7A8BD00BF5F
:102FC000141002404FF0804030B57A4C82A520604A
:102FD0008BB000206060A06000214FF6FF70E060C1
:102FE000039100202061A0610591032002900691C9
:102FF000012004900791089009910A91204602A9A6
:1030000001F051FA10B14C2100F04FF800F050F8E7
:1030100010B1532100F049F81821204601F08CFA34
:103020000BB030BD644830B5644C00BF6AA5206069
:1030300089B0012060600020A06040F6B830E060F8
:1030400000202061A061204601F004FA10B1672140
:1030500000F02BF800F02CF810B16E2100F025F8EC
:10306000602000210290039104910691002202A9A0
:10307000204601F07BFA10B1772100F016F8042207
:1030800002A9204601F072FA10B17C2100F00DF87F
:10309000204600F03EF80021204601F0E8F9042126
:1030A000204601F0E4F909B030BD2846FFF7FABB2D
:1030B0000020009001906946204601F06FBC006836
:1030C000B0F1804F00D0704700B53D4885B0016831
:1030D00041F0010101600321006800F0010000904F
:1030E00000220098374801910292039201A91DE045
:1030F00081B000683049884209D13148016841F007
:1031000004010160006800F004000090009801B024
:10311000704700682849884200D07047F8B5C02140
:10312000022000910190039069462748FFF7C2FBF7
:1031300005B000BD254838B5254C00BF26A5206048
:1031400086B0472060600020A06042F20F70E0600F
:10315000002020616061A061204601F059F918B19A
:1031600040F20111FFF7A1FF4FF48050029002A935
:10317000204601F06FFA18B140F20711FFF795FFF2
:10318000FFF796FF18B14FF48771FFF78EFF07B076
:1031900030BD81B000680D49884209D10D480168F1
:1031A00041F400610160006800F400600090009844
:1031B00001B070475009002000080040900900202D
:1031C0001C10024000080140000C0140002C01408E
:1031D0001009002018100240433A5C557365727361
:1031E0005C77616E6779756E7875616E5C44657346
:1031F0006B746F705C526F626F636F6E5C70726F36
:103200006772616D5C656E636F6465722D7A687557
:10321000615C5372635C74696D2E630038B5002481
:103220003E4D112001F0E0FB45F82400641C0C2CFD
:10323000F7DB31BDF8B5034600201E7800250127D5
:1032400001E0DE5D67466C1C0D2E1ED0202E07F1BE
:10325000010C0BD10028F4D00C2D00D139E052F82C
:10326000255000262E5425460020EAE710281EBFD0
:1032700052F825402654401CE3D12DE052F8252079
:10328000002313540C600020F2BD50EA0503F5D171
:103290006FF00200F2BDF8B504460D46002654B9A1
:1032A00017E03A6D29462046904781211C4801F0DD
:1032B000BDFB0020F2BD54211A487143471829680C
:1032C000384601F0B7FB0028EBD0761C0C2EF2D369
:1032D00002E04FF0FF30F2BD6FF00100F2BD0000E0
:1032E000F8B5012840F30580BDE8F2400EA0FFF7D5
:1032F000ACBC00240FF2580512A6542109486143C2
:10330000471839463046FFF7A0FC07F11001284660
:10331000FFF79BFC641C0C2CEFD3F1BDD0090020FF
:1033200058070020000000206D73673A0A20686586
:103330006C70C3FCC1EEB2CECAFDB9FDB6E00D0A99
:103340000D0A0000636D643A25730D0A0000000049
:1033500075736167653A25730D0A0D0A0000000058
:1033600040F68C239842884940F6B832C8BF1846C8
:103370000ADC864B984205DA18460A6000F6B83037
:10338000486070470028F8D4101A08604A607047F7
:103390007F480021C1600161416170472DE9F04122
:1033A00001F06EFB7A4D04462869EC60214601F07D
:1033B000A7FB784901F016FC98BF774804D97749F4
:1033C00001F022FC38BF084628612146286801F038
:1033D0002DFC064629696868AE6101F027FC0746A6
:1033E0006969EF61204601F04BFBA96801F01EFC02
:1033F0008046C5F820806C6137E069480021016093
:103400004160816047F6FF706649086070472DE9AA
:10341000F04101F035FB624D044668682C6021469E
:1034200001F06EFB5B4901F0DDFB98BF5A4804D9FF
:103430005A4901F0E9FB38BF084668602146A8698F
:1034400001F0F4FB06466968E869EE6001F0EEFB06
:103450000746A9682F61204601F012FB296A01F096
:10346000E5FB8046C5F81480AC603046394601F073
:1034700047FB4146BDE8F04101F042BB4A4810B568
:1034800001684A4C012902D1E06A401CE0620A202E
:10349000E16A91FBF0F00A2202FB1010A26A1043CD
:1034A00004BF0120A062A06991FBF0F200FB1210A2
:1034B000626A104304BF01206062502291FBF2F265
:1034C000502000FB121129B9A368E26861682068E6
:1034D000FFF73EFCE16A4FF6FD708142A4BF002079
:1034E000E06210BD38B52F4C314920682F4D0818C7
:1034F00001F008FC6860E96801F002FBE86047F64B
:10350000FF70206031BD10B5284CA06A01281AD187
:10351000FFF7E8FF6069012804D1E168A068FFF7C0
:1035200076FF08E021692068012903D16168FFF76F
:1035300035FF00E019B901F0F7FBFFF711FF00F0CC
:1035400003F80020A06210BD10B5184CE169206A94
:103550000A2202FB0101A0680A2908D1154901F0DD
:10356000CFFA154901F03EFB0BD8144809E00129B8
:1035700007D1134901F0C4FA124901F045FB38BFE5
:103580000846A06010BD00003408004074F5FFFF3D
:103590002C0400200100FA440000FA440000FAC4A0
:1035A0005004002024000040500A0020F0030020B6
:1035B0000180FFFF0000FA4301042648000426486A
:1035C0000000FAC3000426C82DE9F8430646DFF8D8
:1035D0009C543078C1074AD5686800F00C00042874
:1035E00007D0686800F00C0008280BD16868C10398
:1035F00008D5296888033AD57068002840F0C08053
:10360000012069E17068B0F5803F0FD038B92968B2
:1036100021F480312960286820F4802009E0B0F589
:10362000A02F296807D141F480212960286840F43F
:103630008030286006E021F4803129602A6822F475
:1036400080222A60706868B1FFF786F8044629680E
:10365000880300F19580FFF77FF8001B6528F6D3FB
:10366000032039E1FFF778F804462868810340F128
:103670008780FFF771F8001B6528F6D3F0E7FFF7A6
:103680006BF8001B022840F2AA80E9E7306970B1AC
:1036900001213960FFF760F804462868810700F1CE
:1036A000DC80FFF759F8001B0228F6D9D8E738600C
:1036B000FFF752F804462868810765D5FFF74CF8F4
:1036C000001B0228F7D9CBE70860FFF745F804464E
:1036D000686A810777D5FFF73FF8001B0228F7D902
:1036E000BEE708B9286A09E00528286A06D140F033
:1036F00004002862286A40F0010005E0400840000C
:103700002862286A20F00400286241F28938F068B3
:1037100068B1FFF721F88146286A810700F1AA8085
:10372000FFF71AF8A0EB09004045F5D398E7FFF73B
:1037300013F88146286A810740F19C80FFF70CF856
:10374000A0EB09004045F5D38AE7FFF705F8001B19
:10375000022840F2A28083E7FEF7FEFF001B02284A
:1037600040F2B5807CE700F0B9F804462868810192
:1037700040F1B180FEF7F0FF001B0228F6D96FE799
:103780003078DFF8F47281071BD5686810F00C0FF1
:1037900009D0686800F00C0008287FF477AF6868EB
:1037A000C1033FF573AF2968880703D53069012845
:1037B0007FF426AF2968706921F0F80141EAC00161
:1037C0002960317808071DD5B069DFF8B0120028EC
:1037D0003FF47AAF01220A60FEF7BEFF0446686A32
:1037E00081077FF54CAFDFF888120868C0084FF4F6
:1037F0007A72B0FBF2F2009200BF0098411E0028DE
:103800000091F9D13078410739D5E8690024C10029
:1038100009D4E86940F08050E8610124E86900F0CB
:10382000805000900098DFF85882D8F80010C80542
:103830001BD4D8F8000040F48070C8F80000FEF7F0
:103840008BFF8146D8F80010C8050ED4FEF784FF20
:10385000A0EB09006528F5D302E72868716920F01C
:10386000F80040EAC1002860ABE7F06801287FF467
:1038700038AF3FE71CB1E86920F08050E861F0699B
:1038800048B3696801F00C0108293FF4B9AE022879
:103890007FF469AF00F022F80446286881013FF503
:1038A00054AF306AB0F5803F05D16968B06821F443
:1038B0000031014369606968306A21F47411014381
:1038C000706A01436960012000F009F80446286825
:1038D00081017FF541AF0020BDE8F283002038660A
:1038E000FEF73ABF2DE9F843664F0546386889462A
:1038F00000F00700484502D200F07AF86CD1297830
:103900005A4C880705D56168A86821F0F001014389
:1039100061602878C10757D56868012802D12168FD
:103920008A0303E0022803D121688A0103D453E00B
:103930002268910750D56168890840EA810060607B
:1039400041F28938FEF708FF0646686801280BD166
:10395000606800F00C00042836D0FEF7FDFE801BE6
:103960004045F5D303202DE0022837D1606800F0F0
:103970000C00082828D0FEF7EFFE801B4045F5D349
:10398000F0E72878410705D56168E86821F4E0612F
:10399000014361602878010706D56068296920F431
:1039A000605040EAC100606000F02CF8626836495F
:1039B000C2F30312895C2E4AC8401060002000F058
:1039C000B9FC0020BDE8F283386800F007008145AB
:1039D000D7D200F00DF8D4D00120F3E7606810F0E2
:1039E0000C0FF1D0FEF7B8FE801B4045F6D3B9E7C7
:1039F0003968C90849EAC1013960386800F0070030
:103A00004845704721491B480A6802F00C03082BFF
:103A100000D0704710B500BF1FA4C2F38343D20388
:103A2000E35C09D5096800BF1FA2C1F340415843B8
:103A3000515CB0FBF1F010BD18461549484310BD6C
:103A40000B48006870470A48104A0068136811491B
:103A5000C3F3022206E006480C4A006813680D49C9
:103A6000C3F3C222895CC8407047000000100240C6
:103A70008004002000127A0000004242800442428A
:103A80000070004000200240B861000804100240AD
:103A900000093D00EC62000802030405060708095E
:103AA0000A0B0C0D0E0F10100102000038B50400B7
:103AB00001D1012032BD00F022F808B900F023F84E
:103AC00000F013F800F024F8FFE7416100F001F87E
:103AD00032BD2068C16841F40051C16000206860B7
:103AE00020206870A870002070472420687020682B
:103AF000C16821F40051C160204600F0DAB904F138
:103B0000380568787047002129702046FFF75AB8B9
:103B10002068016921F4904101612068416921F028
:103B20002A0170472DE9F843054605F138070C4690
:103B300078782028164698463CD1002C14BF002ED9
:103B4000012038D03878012834D001213970212063
:103B5000002179607870FEF7FFFDAE848146EE8427
:103B600003E0296814F8010B4860E88C28B3E98C5D
:103B7000481EE8844B46A868CDF80080B0F5805F09
:103B80000DD100F024F870B920882968C0F308002E
:103B900048602869002814BF641CA41CE5E700F0F5
:103BA00016F80028DDD0032005E0202078700020E2
:103BB000387000E00220BDE8F283CDF800804B466B
:103BC0000022402100F005F80028EED0EBE70022AB
:103BD00080212846DBE030B500F138039C78202CAA
:103BE00021D109B1140001D1012030BD1C78012C74
:103BF00019D001251D7081628285C285002159601E
:103C000022219970002119700168CA6842F48072FB
:103C1000CA6001684A6942F001024A610068C168ED
:103C200041F0200101E0022030BDC160002030BD24
:103C3000416921F040014161606B704738B504462D
:103C400025682968EA686B6911F00F0007D18806BA
:103C50005DD590065BD52046BDE83240DEE0D80752
:103C600002D412F4907F52D0C80705D5D00503D5F1
:103C7000E06B40F00100E063480705D5D80703D5A5
:103C8000E06B40F00200E063880705D5D80703D554
:103C9000E06B40F00400E063080705D5D80703D5C2
:103CA000E06B40F00800E063E06B00286ED089060E
:103CB00004D5900644BF204600F0B0F82068406963
:103CC000E16B0A0701D440061BD5204600F091F8AD
:103CD000206841694A060FD5FFF7AAFF60B10FF2CD
:103CE00031114163606B00F09CF900284ED0606B8D
:103CF000416BBDE8344008472046BDE83240FEF73E
:103D0000E6BF2046FEF7E3FF0020E06331BD080672
:103D10002CD510062AD594F83900212836D1A1686F
:103D2000206AB1F5805F0DD10188C1F30801696097
:103D3000206918B9216A881C206207E0206A411CAA
:103D4000216203E0411C216200786860E08C401E23
:103D5000E08480B2D0B92068C16821F08001C160E0
:103D60002068C16841F04001C16031BD48060DD5F1
:103D700050060BD5E86820F04000E860202184F868
:103D800039102046BDE8324000F0E3BF31BD2DE9D7
:103D9000F041069C05460E4690461F46286801687D
:103DA0003140B1420CBF01200020404517D114F131
:103DB000010FF3D024B1FEF7CFFCC01B8442EDD23B
:103DC0002868C16821F4D07100F00CF805F13800C2
:103DD00020214170817000210170032000E000204B
:103DE000BDE8F081C1602868416949084900416126
:103DF00070470168CA6822F49072CA6001684A6913
:103E0000520852004A61202180F83A1070470000A1
:103E1000406A0021C185C184FEF759BF80B590F882
:103E20003A10222943D18268B2F5805F14D1826AA8
:103E3000016941B903685968C1F308011180826AB8
:103E4000911C816218E001684B6803F0FF03138046
:103E5000816A4A1C82620FE001690029816A04D1EB
:103E60004A1C82620268536805E04A1C826202684A
:103E7000536803F07F030B70C18D491EC18589B261
:103E800099B90168CA6822F02002CA600168CA684C
:103E900022F48072CA6001684A69520852004A617D
:103EA000202180F83A10FEF7E6FE002002BD022035
:103EB00002BD2DE9F0470446642521680A69E068DF
:103EC00022F4405202430A611926CA68314802406E
:103ED000A06802432069024360690243CA604A69DC
:103EE000A06922F4407202432B484A6181420ED1FC
:103EF000FFF7B1FD0746FFF7AEFD8046FFF7ABFDCC
:103F00008146FFF7A8FD8246FFF7A5FD0DE0FFF70C
:103F10009AFD0746FFF797FD8046FFF794FD81461F
:103F2000FFF791FD8246FFF78EFD06FB09F96168F8
:103F300089007743B7FBF1F206FB08F7B7FBF1F313
:103F4000B9FBF1F7B7FBF5F705FB17331B0132336C
:103F5000B3FBF5F3B2FBF5F203F0F00303EB02134E
:103F600006FB0AF74643B7FBF1F2B6FBF1F064211A
:103F7000B0FBF1F005FB10252D0132356420B5FBB7
:103F8000F0F0216800F00F00C3188B60BDE8F087E7
:103F900000000000F3E9FFFF0038014030B508B928
:103FA000012030BD0268DFF80C138A4200F12803BB
:103FB00006D2DFF8041300F02DF8DFF8001305E057
:103FC000DFF8FC1200F026F8DFF8F8125961022140
:103FD00080F82110146841686FF30D140C43816858
:103FE0000C43C1680C4301690C4341690C4381696E
:103FF0000C43C1690C431460002119605960996039
:10400000D9601961012180F82110002180F8201069
:10401000002030BD8C181425B4FBF5F4A4009C617D
:104020007047F8B590F821200024022A00F13401ED
:1040300003D00420486001245FE00268DFF8886252
:10404000136823F00E0313604FF48077026815683D
:104050006D086D0015604FF480320368B3424FF471
:10406000805519D9DFF84C62B34208BF012210D045
:10407000DFF85862B34208BF10220AD0DFF850625E
:10408000B34208BF3A4604D0DFF84862B34208BFE3
:104090002A46DFF8443227E0DFF840C263451CD0EF
:1040A000DFF83CC263451AD0DFF838C2634518D048
:1040B000DFF83472BB420EBF2A46DFF83052AB4203
:1040C00010D0DFF82C52AB4208BF4FF4801209D059
:1040D000B34207D14FF0807204E0012202E01022C7
:1040E00000E03A46DFF80C321A60012280F8212005
:1040F00080F82040096801B188472046F2BD2DE9CB
:10410000F84F00F1280204275169744BD1F800E000
:1041100004686D4925689669DFF8BC81DFF8B491C1
:10412000DFF8ACA1DFF8A4B1DFF888C1B7401EEA20
:10413000070F4AD06F0748D52568AD0603D4256818
:1041400025F0040525604FF4802407688F424FF462
:1041500080454FF4806611D9674508BF04240AD012
:104160005F4508BF402406D0574508BF344602D0FB
:104170004F4508BF2C46C8F8004020E09F4217D0AA
:10418000574B9F4216D0574B9F4215D0564B9F42DC
:104190000EBF2C46554B9F420FD0554B9F4208BF38
:1041A0004FF4800409D08F4207D14FF0806404E0BF
:1041B000042402E0402400E034464E490C6051687B
:1041C000002974D0BDE8F44F08470227B7401EEA23
:1041D000070F4FD0AF074DD52568AD0606D425682B
:1041E00025F00A052560012480F821404FF40034B1
:1041F00007688F424FF400554FF4007611D9674598
:1042000008BF02240AD05F4508BF202406D05745C6
:1042100008BF344602D04F4508BF2C46C8F80040BE
:1042200020E09F4217D02E4B9F4216D02D4B9F422D
:1042300015D02D4B9F420EBF2C462C4B9F420FD0CA
:104240002B4B9F4208BF4FF4001409D08F4207D177
:104250004FF0007404E0022402E0202400E0344621
:1042600024490C60002180F820101168F9B1BDE8E4
:10427000F44F0847082101FA06F61EEA060F16D089
:10428000290714D5216821F00E01216001239169CD
:104290008B4051694B6001230021136180F820108D
:1042A00080F82130916811B1BDE8F44F0847BDE8AE
:1042B000F18F000008040240F8FFFDBF000002403B
:1042C000F8FBFDBF00040240800002401C040240D5
:1042D000300402404404024004040240080002404A
:1042E0001C000240300002404400024058000240DE
:1042F0006C0002400400024008B584B00023039320
:1043000000290EBF01930190491E0291009301A95B
:1043100004AB074878441830FBF70AFF019909B14C
:1043200000220A70002858BF039805B000BD00BFE6
:104330006BCFFFFF38B50D4D0D4A297804464FF479
:104340007A70B0FBF1F11068B0FBF1F0FEF7E9FB19
:1043500050B9102C08D2002221464FF0FF30FEF752
:10436000B9FBAC60002032BD012032BD74040020D6
:104370008004002080B52448016841F001010160FB
:10438000026802F0010200920099416841F08051F8
:104390004160406800F08050009000980320FEF7D4
:1043A0008CFB002200216FF00B00FEF793FB002234
:1043B00000216FF00A00FEF78DFB002200216FF054
:1043C0000900FEF787FB002200216FF00400FEF7D2
:1043D00081FB002200216FF00300FEF77BFB00222F
:1043E00000216FF00100FEF775FB002200214FF065
:1043F000FF30FEF76FFB0548016821F0E06141F0F6
:104400000071016001BD00BF1810024004000140AE
:1044100038B5040001D1012032BD00F040F818B9D0
:1044200000F039F8FEF7B5FEFFE702206870211DA5
:10443000206800F07FF901206870002032BD03D1B0
:10444000416C41F400414164026842F001020260A3
:10445000002016BD38B5040001D1012032BD00F0A6
:104460001EF818B900F017F8FEF742FEDDE71CB59C
:1044700000F007F800F00AF81CBFDFF8B41088421B
:10448000DDE704460122206800F07BBA2068DFF8EF
:10449000A41088427047002129702046704704F11B
:1044A0003C0568787047F8B504000E4601D101203C
:1044B000F2BDFFF7F4FF18B9FFF7EDFFFEF7FFFDC0
:1044C0000220687020688168C908C9008160211DC8
:1044D000206800F02FF92168DFF828028A688F69C8
:1044E0000B6A0740B0680743B06947EA0027DFF866
:1044F00018020740F0680743F06947EA002730696F
:1045000047EA0017306A47EA0037706823F0AA03C9
:104510000343706943EA0013306802438A602068ED
:104520008761012021680B6268700020F2BD0000E5
:1045300000340140002C014010B5044609B10429A3
:1045400001D1012203E000F00CF8012204212068CF
:1045500000F017FA2068016841F0010101600020B5
:1045600010BD20680122002100F00BBA70B500F0E8
:1045700065F801D1022070BD00F067F832B1042A5D
:1045800017D0082A28D00C2A39D04AE030682946AA
:1045900000F00AF93068816941F0080100F04AF83A
:1045A00021F00401816131688A69286902438A61C6
:1045B00037E03068294600F020F93068816941F41D
:1045C000006100F037F821F4806100F033F82A69C7
:1045D00041EA0221816124E03068294600F03DF97A
:1045E0003068C16941F0080100F020F821F00401B1
:1045F000C1613168CA6928690243CA6111E0306843
:10460000294600F05CF93068C16941F4006100F0AE
:104610000DF821F4806100F009F82A6941EA0221CD
:10462000C161012060700020207070BDC1613068E0
:10463000C16970478161306881697047064606F13B
:104640003C040D462078012870470121217002208A
:104650006070704738B500F062F801D1022032BDB9
:1046600001222270022060702A68DFF898029368A5
:10467000034093600868002837D0102837D02028DE
:1046800037D0302837D040282BD050281ED0602873
:1046900020D070280BD0B0F5805F03D0B0F5005F5C
:1046A0000CD02CE028688168C908C9000CE000F033
:1046B0002DF82868816841F0770105E000F026F8C0
:1046C0002868816841F48041816018E000F023F897
:1046D000502111E0CA684968286800F02EF960216D
:1046E0000AE000F018F8402106E0002104E0102163
:1046F00002E0202100E03021286800F030F914E0C9
:1047000000000000FCFCFFFF0303FFFFCB684A68CA
:10471000896828682BE1CA6849682868FEE0054670
:1047200005F13C04207801287047012060700020CA
:10473000207032BDF0B5DFF8D0C1744F0368744CFF
:10474000744D754E604518BFB84208D0B0F1804F27
:1047500018BFB04203D0A84218BFA0420DD14A688A
:1047600023F070031343604518BFB84207D0B0F17F
:10477000804F1CBFB042A84201D0A04203D1CA68FA
:1047800023F4407313434A6923F080031343036007
:1047900060458A68C2620A68826212BFB8420969CB
:1047A000016301214161F0BDF0B5026A564F574ED9
:1047B000520852000262056A4368846900F079F881
:1047C00025F002051543B84218BFB04207D1CA68A8
:1047D00025F008051543B84225F0040501D0B04284
:1047E00005D14A6923F4407313438A691343436034
:1047F0008461496841630562F0BDF0B5026A424ECA
:1048000022F010020262B042056A436884690A68B5
:1048100024F4E64444EA02248A6825F0200545EAA7
:1048200002153A4A18BF904208D1CF6825F080059A
:1048300045EA0715B04225F0400501D0904206D167
:104840004E698A6923F44063164343EA8603436052
:104850008461496881630562F0BDF0B5026A2A4E41
:1048600022F480720262056A4368C46900F021F88C
:1048700025F4007545EA0225244AB04218BF90424B
:1048800008D1CF6825F4006545EA0725B04225F434
:10489000806501D0904206D14E698A6923F4405365
:1048A000164343EA06134360C4614968C163056265
:1048B000F0BD0A6824F0730414438A68704770B529
:1048C000026A114E22F480520262B042046A4268C7
:1048D000C3690D6823F4E64343EA05238D6824F495
:1048E00000541CBF094EB04244EA053404D14D695E
:1048F00022F4804242EA85124260C3614968016441
:10490000046270BD8800FFFF002C014000340140AC
:10491000000C0040000800400004004010B5036A8D
:10492000046A64086400046223F00A03846924F0C2
:10493000F00444EA021484612CE010B5036A23F009
:10494000100303628369046A23F4704343EA023369
:1049500024F0A004836144EA0114046210BD82685B
:1049600022F07002114341F007018160704710B5D9
:10497000846824F47F442143114341EA0321816088
:1049800010BD10B5036A01248C40A343036202FAF0
:1049900001F1036A1943016210BD000030B500F156
:1049A0003C031A78012A01D1022030BD01241C7079
:1049B00002225A700268546824F07004546004683B
:1049C00065680A68154365600268946824F080048D
:1049D00094600268946848680443946001205870A9
:1049E0000020187030BD000070B5C51DED08AFF394
:1049F0000080ED00072D98BF08250B4E346814B1D8
:104A00002068A84208D200F0A5F900283060F4D14F
:104A1000AFF30080002070BD61193160451B0D604F
:104A2000AFF30080204670BD580A0020002200F03D
:104A3000A7B9000081EA00039B0717D1820707D0BE
:104A400010F8012B11F8013BBAB19A42F6D014E0EC
:104A500002680B689A42A2F1013301BF934313F03D
:104A6000803F50F8042F51F8043FF3D010F8012B89
:104A700011F8013B0AB19A42F8D0D01A70470000F1
:104A800090EA010F40F1428081F00041421A3CBFA0
:104A9000801A89184FF0004CC0F3C752FF2A24D067
:104AA000C1F3C75313B3D21AD2F1190327DD4CEA6D
:104AB00001214CFA03F321EA0303D140C20D4CEA71
:104AC0000020401834BF20EA0C004CEA5000D20508
:104AD00053EA006373EB0C0C52EB1020420012F10E
:104AE000807F38BF7047C00DC0057047490212BFB4
:104AF0009A4200EB5120F8E7D2F11703D9D570475D
:104B000090EA010F7FF5C2AF81F00041431A4FF0E8
:104B100000423EBF5340C01AC91800BFD3095FEA24
:104B2000D05C13EB400F34BFB3EB410F40E07CEBA4
:104B3000D1530CD342EA012122D8D1EB402009D332
:104B4000400A28BF5FEA500140EBCC507047401A42
:104B500015D04002B0FA80F2521C9040400A4FEA51
:104B60003C23B3EB026384BF00EB730007E040F427
:104B700000001A16DB07C2F10102D040184370474B
:104B8000182BFCDC31FA03F202FA03F3591A38BF8E
:104B900042F00102D2EB40203CBF4000ACF1010CDE
:104BA0005FEACC5CC20572F100414CEB50207047CB
:104BB00013EB400F0FD2C94209D0ACEBD153022BFB
:104BC00003DB4902172BDDDD70479143401AC042D9
:104BD000D5D10020704713EB410FD0D36FF0000008
:104BE000704700004FF0807C1CEB400F94BF1CEB23
:104BF000410F05E040EA010C1CEB0C0F01D2814291
:104C0000704718BF884270474FF0807C1CEB400F04
:104C100094BF1CEB410F05E040EA010C1CEB0C0FAC
:104C200001D28842704718BF81427047FF2212EAC2
:104C3000D05C1DBF12EAD153944593422BE09C44B3
:104C4000D30780EA01021A4043EA002043EA012127
:104C5000A1FB0030C04238BF40007CF17F010BDB7C
:104C6000FE294ADA5B0842EAC15153EA006373F154
:104C7000004C51EB10207047D1F1080CDCF1200101
:104C80002FDB5B0810FA01F10B4320FA0CF073F1F3
:104C900000415041704794451CBF02EAD1539342F2
:104CA00080EA010202F000421DD0400019D0490004
:104CB00017D05BB9634514D00902B1FA81F399406A
:104CC000BCEB030CC00140F00040C1E70002B0FAA9
:104CD00080FC10FA0CF0B3EB0C0CC90141F0004160
:104CE000B6E71000704740000AD0490008D010F124
:104CF000807F94BF11F1807F02E042F0FF40704757
:104D0000D0437047C2175040801AB0FA80F10AD0E1
:104D10008840D1F19D01D20742EAC151020672F1E9
:104D2000004241EB10207047C0F3C7517E390EDDC1
:104D3000C217D1F1200106DD000240F00040C8405A
:104D4000104450407047D04380F00040704700202E
:104D5000704770470749086808B100207047064847
:104D6000C008C00008600549C908C900091A0160E7
:104D7000704700BF5C0A0020670E00206010002012
:104D8000401810F0030308D0C91A1FD3DB0748BF2F
:104D900000F8012D28BF20F8022D130030B414466E
:104DA0001546103928BF20E93C00FAD8490728BF2A
:104DB00020E90C0048BF40F8042D890028BF20F8E6
:104DC000022D48BF00F8012D30BC7047C91818BF2C
:104DD00000F8012DCB0728BF00F8012D7047000017
:104DE0007CB51D4621F000431446B3F5801F20F02A
:104DF000000209D20026B34208BFB24200960ED08C
:104E00006A46FCF7C7FC0AE0DFF8C06306EB135202
:104E10000092DFF8BC33DFF8BC231140194322466F
:104E20002B46FCF7E5FB0B465A00009C520DA418DC
:104E30003AB1002C05DD40F2FF72944200DB4EE0F7
:104E400048E021F00043002420F00002A3420EBFFE
:104E5000A242009AFCF706FD7CBD7CB51D4621F000
:104E600000431446B3F5801F20F0000209D200264B
:104E7000B34208BFB24200960ED06A46FCF78AFCE5
:104E80000AE0DFF8486306EB13520092DFF8403384
:104E9000DFF840231140194322462B46FCF722FE3F
:104EA0000B465A00009C520DA4183AB1002C05DDA7
:104EB00040F2FF72944200DB11E00BE021F000436E
:104EC000002420F00002A3420EBFA242009AFCF789
:104ED000C9FC7CBD6FF31E5343EA04517CBDBE4B3D
:104EE00001F0004040EA030100207CBD2DE9F84CB0
:104EF000002A82468B461F4600F0BA802BF0004500
:104F000000202AF00004854208BF844200F0B080EF
:104F10004FEA4B004015401C08BF5FEA0B3100F020
:104F2000A7800020002AAD4911D55242B4A6082519
:104F30001446002C18BF002D4FD0E20744BFD6E91D
:104F40000023FCF755FB640808366D1EF1E777DD9A
:104F5000ABA608241546EA0744BFD6E90023FCF7B0
:104F600047FB6D100836641E002D01DD002CF2D1C8
:104F700002460B4650465946FFF732FF8B468246A3
:104F80002BF0004300202AF00002834208BF824237
:104F90002C4655D04FEA4B004015401C08BF5FEA35
:104FA0000B314DD0002C4BDD504659468C4A8D4B71
:104FB000FFF716FF21F00045002220F00003954284
:104FC00008BF93423AD04A005215521C01D10B033C
:104FD00034D0641E002CE9DC30E002460B4650461B
:104FE0005946FFF73AFF8B4682462BF000430020DC
:104FF0002AF00002834208BF824221D04FEA4B00D0
:105000004015401C08BF5FEA0B3119D0C4B15046AF
:105010005946754A754BFFF7E3FE21F00045002223
:1050200020F00003954208BF934207D04A00521572
:10503000521C01D10B0301D0641EEAD182468B467B
:105040002BF0004300202AF00002834208BF824276
:1050500007D04FEA4B004015401C08BF5FEA0B31F8
:1050600006D1AFF300801FB1386840F0010038600E
:1050700050465946BDE8F48C2DE9F94987B01F0028
:105080001CBF0020386004920C46079D07A800F062
:10509000DBF8C11020F0080001F0010101280591A2
:1050A0002FD10220009001AB07992246284600F03C
:1050B0005DF9040002D1002000211DE00298FCF7F8
:1050C0008DFC022C18DB0DF10C08661EDFF820B1F8
:1050D00002460B4600205946FCF78AFA044658F867
:1050E000040B0D46FCF77AFC22462B46FCF744FEE7
:1050F000761E02460B46EDD1049A019C3B46A2184F
:105100004DE002284ED1009001AB07992246284677
:1051100000F010FA040002D10020002119E00298EA
:10512000FCF75CFC022C14DB0DF10C08661EDFF8AA
:10513000C4B000225B46FCF75BFA044658F8040B47
:105140000D46FCF74BFC22462B46FCF715FE761E5F
:10515000EFD1019B0C466200520D03EB020511D00A
:10516000002D0FDD40F2FF72954206DB1A4B01F075
:10517000004040EA030100200FE06FF31E5444EAB0
:1051800005510AE021F00045002620F00004B54258
:105190000EBFB4421A46FCF765FB049A3B46FFF784
:1051A000A5FE0CE0032802D100200B4907E00428EB
:1051B00007BF4FF0FF306FF0004100200021059A3B
:1051C0000AB181F0004109B0BDE8F08902FCFFFF9F
:1051D0000000E03FFFFF0F800000F07F0000F03F85
:1051E0003CBF737FDD4F1575436FAC642806C80A5A
:1051F00065CDCD410000B0410023002200213BE7F6
:1052000000000000000024400000000000005940A1
:10521000000000000088C3400000000084D79741D0
:105220000080E03779C34143176E05B5B5B89346A2
:10523000F5F93FE9034F384D321D30F94877825A6E
:105240003CBF737FDD4F15752DE9F84305460C46CD
:105250002E68002700E0761C307800F079FA0028EC
:10526000F9D130782D280CBF08272B2800D1761CC7
:10527000307840F020016E2927D1707840F020006E
:10528000612802BFB07840F020006E2802D02E685E
:10529000002746E0F61CB046042798F800002828AE
:1052A0003FD118F8019F484600F05CFA0028F8D179
:1052B000A9F130000A28F4D398F800005F28F0D054
:1052C00029282ED108F101062BE069292CD170780C
:1052D00040F020006E2802BFB07840F02000662821
:1052E00002D02E6800271CE016F8030F40F02000C3
:1052F000692802BF707840F020006E2847F003074D
:105300000FD1B07840F02000692802BFF07840F05B
:105310002000742805D1307940F02000792808BF9A
:10532000761DF4B126601CE0302802BF707840F092
:105330002000782813D1B01C01782E2908BF401C0A
:105340000078A0F16101062921BFA0F14102062ADF
:1053500030380A2803D2B61C47F0020701E047F0B4
:1053600001072E603846BDE8F28300002DE9F14FB9
:105370008CB09246169A02EBC20200202D2AC8BFBA
:105380002D22186083465860002501E0491C012544
:105390000C78302CFAD000241F460B78A3F130068D
:1053A0000A2E80F09780944207DB3B685B1C3B60D1
:1053B0000B78302B05D0012003E0303B0DF8043092
:1053C000641C491C0125E8E73868401E3860761CDB
:1053D000012530783028F7D03078A0F130010A2943
:1053E00080F08780444507DA30380DF80400641CEB
:1053F0003968491E396003E0302818BF4FF00109B1
:10540000761C0125E8E70DF1FF31095D49B93A68DD
:10541000521C3A60641E002CF5DC04BF8DF800B00D
:10542000012400284BD0092394FBF3F3C4F10901B4
:1054300003EBC3035918092291FBF2F202EBC202FB
:10544000DC468A1A18BF4FF0010B5A468B46A4451A
:105450005DDA09219BFBF1F11DF80C3001EBC10174
:10546000BBEB01011DBF57F8221001EB810103EBDB
:105470004103521C47F822300BF1010B0CF1010CD7
:10548000E5E700240025DFF8A8C0314608E06545BF
:1054900004DA05EB850402EB4405303D491C012488
:1054A0000A78A2F130060A2EF1D30E46BEF12D0F76
:1054B000396808BF6D426D183D6004B91E46BAF1E7
:1054C000000F03D000B90C9ECAF8006058460DB01A
:1054D000BDE8F08F0E4690468146FBF783FE406A9A
:1054E00031780278914208BF761C002C7FF474AFAB
:1054F0006FE75FEA090128468DD00DF1FF310DF10C
:10550000FF3211F80810491C02F8081083E73178BF
:1055100041F0200165299346D1D1334616F8011F89
:105520002B2916BF2D2916F801EB4FF02B0EA8E7FB
:1055300000E1F5052DE9FD4E8BB00024DDF8589013
:105540001C60C9EBC909B9F1230FC8BF4FF023098B
:105550005C60A24602E0491C4FF0010A087830283E
:10556000F9D000BF0FF2B81573A0A3460A950990B1
:105570000F461E46397816222846FBF79BFE002868
:1055800000F09A80D94503DA3068401C306007E0AB
:105590000A9A0999801A085C0DF80B000BF1010BAF
:1055A0007F1C4FF0010AE5E73068401E30607F1C29
:1055B0004FF0010A38783028F6D03978162228467C
:1055C000FBF778FE002800F08480D9450ADB00BF95
:1055D00059A1401B085C0DF80B000BF1010B316861
:1055E000491E31607F1C4FF0010AE6E70DF1FF32E2
:1055F000525C4AB933685B1C3360491E0029F5DCF4
:1056000004BF8DF80040012132689200BAF1000F0A
:10561000326046D04FF0070C91FBFCFCC1F107054E
:10562000CCEBCC0C6544072295FBF2F20023C2EBD5
:10563000C202AA1A18BF0124A4468B425CDA0722D0
:1056400095FBF2F21DF80340C2EBC202AA1A1ABF80
:1056500056F82C2004EB02140CF1010C46F82C40F7
:105660006D1C5B1CE9E7002300252C48394608E047
:10567000854204DA05EB850307EB4305303D491C01
:1056800001230F78A7F13009B9F10A0FF0D30F46C3
:10569000BCF12D0F316808BF6D426D18356003B93C
:1056A00017460C9921B1BAF1000F08BF0B9F0F608C
:1056B00020460EB0BDE8F08EFBF794FD406A3978C5
:1056C0000278914208BF7F1CBBF1000F7FF475AFD9
:1056D00070E75946894591DA1DF80910072906DD5A
:1056E0000DF1FF3212F80910491C02F80910494661
:1056F0003268521C326081E7397841F0200170290C
:105700006446CED13A4617F8011F2B2916BF2D2922
:1057100017F801CB4FF02B0CA5E7000000E1F505D1
:105720003031323334353637383961626364656617
:1057300041424344454600000001020304050607B8
:1057400008090A0B0C0D0E0F0A0B0C0D0E0F0000B2
:1057500010B50446FBF712FD01462046096ABDE874
:105760001040084710B50446FBF708FD01462046E7
:105770000969BDE8104008472DE9804000F019F89C
:10578000BDE80240B4A0FDF760BA10B500F010F813
:1057900000F0C4F800F0B8F99549086010BD10B5E4
:1057A00000F006F8606800F06FFA9249086010BDDA
:1057B0000C464FF480519048FDF74DB9F8B50F46AF
:1057C00084B000F041F88D4C8D4D8E4EFDF743F9BD
:1057D0007868FFF711FD00F097F92060B868FFF7CF
:1057E0000BFD00F091F92860F868FFF705FD00F067
:1057F0008BF9306021688448416029688160316894
:10580000C16000F06FFA306800F00CFB00F066F841
:1058100000F05FF802460B4692A056E038B500F063
:1058200012F87A4DFDF717F900F078F800F06CF9EE
:10583000286000F0F7FA0B46BDE832404FEA00025C
:105840008EA0FDF702BA0C464FF480516A487047AB
:1058500010B5FFF7ADFF606800F016FA6C490860FC
:1058600010BD0000F8B50F4684B0FFF7EDFF694C9E
:10587000694D6A4EFDF7EFF87868FFF7BDFC00F060
:1058800043F92060B868FFF7B7FC00F03DF92860E5
:10589000F868FFF7B1FC00F037F9306021685A482A
:1058A0000161296841613168816100205C490860BB
:1058B00000F018FA306800F0B5FA00F00FF800F0C8
:1058C00008F802464FEA010372A0FDF7BEF905B0E1
:1058D000F0BDCDE90001206800F0A4BACDE90201D5
:1058E000286800F09FBA70B5FFF7ADFF4D4D4E4EE2
:1058F000FDF7B1F800F012F800F006F92860A06892
:10590000FFF77AFC00F000F9306029683E48C16179
:1059100031680162BDE8704000F0E4B96068FFF7EB
:105920006BBC10B5FFF744FFFFF7F8FF00F0ECF891
:105930003E49086010BD000038B5FFF784FF324DC6
:10594000FDF789F8D4F8044057A100F07FF868B15A
:1059500057A100F07BF810B94FF07E5006E000BF71
:1059600055A100F073F810B94FF08040286000BFD7
:1059700053A100F06BF808B92D480CE052A100F0DB
:1059800065F810B94FF0814005E000BF50A100F06C
:105990005DF808B9274828604FA100F057F808B90A
:1059A00025480BE04EA100F051F808B9234805E066
:1059B0004DA100F04BF810B94FF08240286000BFB5
:1059C0004BA100F043F808B91D480AE04AA100F0D5
:1059D0003DF808B91B4804E049A100F037F808B9C0
:1059E0001948286000F07EF9BDE83140FCF7BEBDE3
:1059F000F003002000040020000C01402C040020D3
:105A00003004002034040020000A0020F8030020A5
:105A100004040020680400206C04002070040020AE
:105A20005404002024040020280400202004002026
:105A3000000040400000A0400000C0400000E040E6
:105A40000000104100002041000030412046FEF7D8
:105A5000F1BF00F079B9000068656C6C6F20776F5A
:105A6000726C640073706565645F7069643D25667F
:105A70002025662025660D0A00000000746172670B
:105A800065745F706F736974696F6E3D25660D0A8A
:105A900000000000706F735F7069643D256620250B
:105AA000662025660D0A00004C465F736964650038
:105AB0004C465F68697000004C465F6B6E65650020
:105AC00052465F736964650052465F686970000002
:105AD00052465F6B6E6565004C425F73696465009A
