:020000040800F2
:1000000038100020057A00083D7900083F79000883
:100010004179000843790008457900080000000094
:100020000000000000000000000000004779000808
:1000300049790008000000004B7900084D7900085C
:100040002F7A0008337A0008377A00083B7A0008D4
:100050003F7A0008437A0008477A00084B7A000884
:100060004F7A0008537A0008577A00085B7A000834
:100070005F7A0008637A000867790008677A0008E9
:100080006B7A00086F7A0008737A0008777A0008A4
:100090005B7900087B7A00087F7A0008837A000881
:1000A000877A00088B7A00088F7A0008937A000814
:1000B000977A00089B7A00089F7A0008A37A0008C4
:1000C000A77A0008AB7A0008AF7A0008B37A000874
:1000D000B77A000861790008BB7A0008BF7A000887
:1000E000C37A0008C77A0008CB7A0008CF7A0008E4
:1000F000D37A0008D77A0008DB7A0008DF7A000894
:10010000E37A0008E77A0008EB7A0008EF7A000843
:10011000F37A0008F77A0008FB7A0008FF7A0008F3
:10012000037B0008077B00080B7B00080F7B00089F
:100130002DE9F84F74A7A2B0D7E90045CDE90045F5
:100140002C9EDFF8307C04918DF843605FF0000155
:100150006FA40D9112944FF0FF3682469046994657
:100160000FE0C3462C461BF8011B0498D04700281B
:10017000049000F0B2800D98401C641E0D90F2D1E6
:10018000A84498F80000252807D10021079108917C
:1001900009910A910B910C910DE06A463146404657
:1001A00001F01CF8050001D10D98B5E0D9D5012565
:1001B000E6E741F0010118F8010F2028F9D02328C3
:1001C0000CD02B2804D02D2805D0302809D086E06B
:1001D00041F00201EFE741F00401ECE741F00801D2
:1001E000E9E741F01001E6E700200F900AE00F98E0
:1001F000B84205DA00EB800302EB4302303A0F927B
:1002000008F1010898F80020A2F130000A28EED386
:1002100098F800002E2818BF0E9629D118F8010F63
:100220002A280BD1D9F80000C9F8000008F101080C
:1002300050F8042BC9F800000E9219E02D280CBFCD
:1002400018F8010B002000220E920BE040B90E9A24
:10025000BA4205DA02EB820403EB4403303B0E930F
:1002600008F1010898F80030A3F130020A2AEDD312
:10027000ADF84010129898F8001000F0B9FF08B1DE
:1002800018F8010B8DF842009DF84200682804BF61
:1002900098F80010682903D162208DF8420008E028
:1002A0006C2804BF98F800006C2804D171218DF8E7
:1002B000421008F1010813A806904A4618F8013BBD
:1002C00002A9504600F068F838B913AA02A95046AE
:1002D00000F0CAF900287FF554AF30461CE02A2808
:1002E00082D1D9F80020C9F8002052F8040BC9F8CF
:1002F000002000280F9003D540420F9041F00401E8
:1003000008F1010884E70000000000000000000080
:10031000686A6C747A4C000023B0BDE8F08F6228E4
:1003200020D0682811D06A2803D06C2827D07128E3
:1003300025D10868C01D20F007000860D0E900231F
:1003400008300860194610467047002A0A680A609B
:10035000106803D0121D0A6000B217E0121D0A6077
:1003600080B217E0002A0A680A60106803D0121DE4
:100370000A6040B20AE0121D0A60C0B20AE0002A18
:100380000A680A60106803D0121D0A60C11770471E
:10039000121D0A60002170477CB50D4611461C46AF
:1003A0002E69B4F1250200F04D811C3A00F08680E0
:1003B000121F022A40F282800E3A00F00781521F7B
:1003C0005AD0093A7AD0921E16D0521E35D0521EFB
:1003D000022A73D9121F30D0521F00F09A80521E89
:1003E0004AD0521E00F0E480D21E00F0FD80921E22
:1003F00042D0D21E40D02BE195F83A206C2A09D089
:100400006869421C6A610A680A6052F8043B0A6023
:10041000335427E10A680A6052F8043B0A6000215D
:10042000009301914FF0FF322A6329466A4600F09B
:1004300096F9002840F1168101E195F83A00012271
:10044000FFF76DFFC5E900010023994204DA6869EE
:10045000411C69612D210DE0288F810704D5686951
:10046000411C69612B2105E0C00722D56869411C48
:100470006961202131541CE095F83A000022FFF711
:100480004EFFC5E9000195F83800010711D5D5E9FF
:1004900000230020834208BF82420AD044F020009B
:1004A000782806D1686930213154401C411C6961AB
:1004B0003454214668693044E86083E00868C01D10
:1004C00020F007000860D0E9002308300860C5E983
:1004D0000023D5E90001C80F04D06869411C696197
:1004E0002D210DE0288F810704D56869411C6961C1
:1004F0002B2105E0C00704D56869411C69612021F2
:10050000315468693044E8602146284600F032FAE8
:10051000A8E005F13A02507820B14FF0FF340FF611
:10052000243070E01078622808D0682824D06A2827
:1005300012D06C282ED071280ED02BE00A680A60E9
:1005400052F8040B0A6020B94FF0FF340FF60C305C
:1005500059E0E96A017085E00A680A6052F8040B04
:100560000A6020B94FF0FF340FF6F0204BE0EA6A42
:10057000D317C0E9002375E00A680A6052F8040B3B
:100580000A6020B94FF0FF340FF6D0203BE0E96A53
:10059000018067E00A680A6052F8040B0A6020B91B
:1005A0004FF0FF340FF6B4202DE0E96A016059E006
:1005B0000A680A6052F8040B0A600021C5E90001CC
:1005C000EE607821284600F029F94BE06C2285F88E
:1005D0003A200B680B6053F8042B0B6052BB4FF0B2
:1005E000FF340FF6AC200EE095F83A206C2AF0D0DC
:1005F0000868086050F8044B0860EC603CB94FF0A4
:10060000FF340FF6702000F00DFE201A76BD2E6B21
:10061000002E04D5204600F025FE044608E03246B0
:100620000021204600F046FE002814BF041B34467B
:10063000AC6117E0294600F092F8002812D54FF07F
:10064000FF3076BD6869411C69612521315409E09C
:100650006969481C686125227254210002D0411C3E
:1006600069613454002076BD2DE9F0410E460546FF
:10067000716B7069B46A091A306A091AB069091A8B
:10068000706A091AF069091A96F838000C1B4107BC
:1006900090460DD4002C0BDD2746B0682021A847DA
:1006A0000028B06057D0F06A401C7F1EF062F4D181
:1006B000736942463146284600F0ACFC00284AD116
:1006C000376A002F0ADDB0683021A8470028B060E3
:1006D00041D0F06A401C7F1EF062F4D1B369F26829
:1006E0003146284600F096FCA8BB776A002F09DD4A
:1006F000B0683021A847B06068B3F06A401C7F1E24
:10070000F062F5D1F068B169F369421831462846C4
:1007100000F080FCF8B9B76A002F09DDB06830211D
:10072000A847B060B8B1F06A401C7F1EF062F5D1F6
:1007300096F8380041070BD5002C09DDB068202160
:10074000A847B06038B1F06A401C641EF062F5D171
:100750000020BDE8F0814FF0FF30BDE8F0812DE9C9
:10076000F8470D46A3B02F6B002F8146904648BF37
:100770006FF0004700F0CAFD696B40180FF62C11AE
:100780008128D1E90023CDE9012328BF4FF0FF30B4
:100790003ED20024002F2FDDD8F8001001AA6846B1
:1007A00000F01EFD0646002E35D4D8F8000008B92A
:1007B000761E30D4B7421FDB6869301881280AD30F
:1007C0000020686303AA29464846FFF74DFF04004E
:1007D00012D40020686103A8D5F814A032466946F7
:1007E000504400F099FDB244C5F814A058F8040B29
:1007F000002818BFBF1BCDD12CB903AA29464846F3
:10080000FFF732FF044614B9002068616863204690
:1008100024B0BDE8F0874FF0FF34F8E72DE9FC473E
:1008200007468A463E69BAF16F0F08BF082405D013
:100830004AF02001782914BF0A2410243C25D7E966
:100840000023BAF1640F18BFBAF1690F90469946B8
:1008500006D100218B4203DAD8F1000869EB49097F
:100860000020814508BF80451FD1386BE8B9082CAE
:100870004CD197F83800010748D530203B2586F841
:100880003B0043E000280ED597F8380000F0140034
:10089000102808D17A6B7869121A386A121A511A1C
:1008A0000029C8BF3962BDE8F3878DF800A0404633
:1008B00049462246E31700F083FD3032D0B26D1E68
:1008C0003A28019504DB9DF80000A0F151018A1837
:1008D0007255404649462246E31700F071FD8046B6
:1008E00089460020814508BF804503D0F86871190A
:1008F0008842DCD3082C09D197F83800010705D5C8
:10090000715D302902D06D1E30207055C5F13C015B
:10091000B9617019F860386B8142B3DA411A3962F3
:100920004FF6EF70398F01403987BDE8F3872DE925
:10093000D04306460F4614464FF00008DFF83894BF
:1009400012E0E00707D542464B463046394600F0F4
:100950004FFE06460F464046494642464B4600F08B
:1009600047FE641080468946002CEAD1304639465D
:10097000BDE8D0832DE9F34F054641F020048DB04A
:10098000D5E90089612C02AE09D0286B002848BF48
:10099000062003D408BF672C01D101202863D5E9C4
:1009A000002358004015401C0ED119030CD0032021
:1009B000A8619DF8380061381A2802D20FF2F4615C
:1009C00011E00FF2F4610EE058004015401C0FD109
:1009D00019030DD10320A8619DF8380061381A2849
:1009E00014D30FF2DC61E868032200F095FCD3E138
:1009F000194621F00043B3F5801F10460DD20027A1
:100A0000BB4208BFBA42019703D111E00FF2AC61BB
:100A1000E9E701AA00F0BEFE0AE0DFF8607307EB29
:100A20001352DFF85C3301921940DFF85833194351
:100A3000C5E90001612C0ED1E86830210170811CEC
:100A4000E9609DF8381061290CBF78215821417068
:100A50006869801C6861D5E900AB2BF00043002079
:100A60002AF00002834204BF8242002300F05A8130
:100A7000612C40F0A980286B00284CBF2120401C2D
:100A800000904046009F7F1C49460022002300F052
:100A9000B9FED94601988DF8082038BF89F0004981
:100AA000001F0190002FD0460DF1090040F349814D
:100AB00040F2FF71DFF8D0B20C910646404649463D
:100AC0000022002300F0B6FE80F03A814800400D7D
:100AD00000F11C0210D0002A0EDD0C98824205DBCA
:100AE00009F0004040EA0B01002013E0A448084050
:100AF00040EA025140460DE029F00043002028F072
:100B00000002834208BF82420FBF40461C2240467B
:100B100000F0A8FE8046894600F042FFFF1F002F2C
:100B2000044609DD00F05AFF02460B46404649469E
:100B300000F066FF80468946F01D072104E004F0BE
:100B40000F0200F8012D2411002C01DD491EF6D5FD
:100B5000491E5CBF002200F8012DF9D5ECE0002011
:100B6000194602AA0A4400E05B1E12F80149491E18
:100B70008442F9D00F2804D10DF10900425C521CC7
:100B80004254002904D50198001D02AE5B1C01905F
:100B9000591E12D49DF838007218147804F13008E8
:100BA0005FFA88F4392CC4BFA0F13A04A044491E6E
:100BB00002F80189F1D58DF83800286B002840F142
:100BC000B080591E2963ACE040464946002200230C
:100BD00000F018FE019938BF89F0004947F297509C
:100BE00041436A4A91FBF2F20192D2F1070204DD1D
:100BF00040464946FFF79BFE0AE052420020644906
:100C0000FFF795FE02460B464046494600F06AFF54
:100C10008046662C286BDFF87CB106BF019F0A373F
:100C200006273F18142FC8BF142730208DF808005E
:100C300089460DF1090000E03046002F34DD0646FC
:100C40004046494601F072F801460A4606F108039B
:100C500004200A26B2FBF6F606EB860EA2EB4E0245
:100C6000303203F8012C0A22B6FBF2F202EB820EBC
:100C7000A6EB4E063036401E03F8026DE9D1083F60
:100C8000002F03F10806D7DD084601F063F802469D
:100C90000B464046494600F0B3FE00225B4600F09A
:100CA000A7FC80468946CBE70DF10901401A0DF1FA
:100CB000090604E00199491E401E0191761C317815
:100CC0003029F7D0662C02D10199491C03E0652C2C
:100CD0000CBF012100212B6BCB189842B8BF431EDB
:100CE000002B1ED4834204DAF05C3528A8BF3920DB
:100CF00000DA30201946721E02EB010800E05B1E8C
:100D000018F80199491E8145F9D0392802D1705C43
:100D1000401C7054002904D50198401C16465B1CE9
:100D20000190019800B200901BB29DF83810324635
:100D3000284600F035F82FE0C61D002F3FF7BEAE65
:100D400030460DF10901401A009903468842C8BF98
:100D50000B46002B0DF109063FF52FAF8342BFF67E
:100D6000FEAE0DF10900C05C07287FF7F8AE0F203A
:100D7000F6E60000CBCCCC0C0000244002FCFFFFC8
:100D8000FFFF0F800000E03F0000F07FA086010021
:100D90000000F03F84D797410FB0BDE8F08F00000E
:100DA0002DE9F84783B006468A461746984600F074
:100DB00019FAB8F1000F406A356B90F8009002DC28
:100DC0004FF00108BFA7BDF930404AF02000662867
:100DD00008BF641C15D0672840F0848014F1040F0C
:100DE000C0F28680AC4280F2838096F83800641CA2
:100DF000010702D4A845B8BF454620B22D1A48BF06
:100E000000250FFA84FAF068B169BAF1000F25DC09
:100E10004A1C30234354002D03DC96F838000107A8
:100E200003D5F06800F80290521C15EB0A0FB8BF0A
:100E30006C4220B2441941424445B8BFA046B26159
:100E400071620FFA88F5F561F068B3692A46394690
:100E5000184400F061FA641BB462C4E022B2904509
:100E6000084417DA4246394600F056FAB069404461
:100E7000B061AAEB0801002D716203DC96F838100E
:100E80000A0705D5F16801F80090F069401CF0618F
:100E9000B562A8E0394600F03FFAB069002D504431
:100EA000A8EB040803DC96F838100A0703D5F168AC
:100EB00001F80090401CB0610FFA88F08542F0689C
:100EC000B369B8BFA8460FFA88F207EB0A011844C5
:100ED00000F022FAB0690FFA88F10844B061681A8C
:100EE000706280E0BAF1610F14D14FF0700A16E021
:100EF000A84504DA96F838100A0758BF45466D1E13
:100F000048BF0025BAF1670F14BF4FF0450A4FF0F4
:100F1000650A04E0BAF1410F08BF4FF0500AB16909
:100F2000F368481CB061002D17F8012B5A5403DCFC
:100F300096F838100A071BD5F168431CB36101F815
:100F40000090002D14DDA8F101080FFA88F0854209
:100F5000F068B8BFA8460FFA88F23946184400F086
:100F6000DBF9B0690FFA88F108446D1AB061756257
:100F7000F068B1690844002C80F800A003D42B214C
:100F80004170811C03E02D2141706442811C0020CE
:100F90006A460AE023460A2493FBF4F404EB840532
:100FA000A3EB450302F8013B401C24B2002CF1DC0A
:100FB000012806DC4AF02002652A04BF302201F82D
:100FC000012B48B9302001F8010B07E0401E1DF845
:100FD0000020303201F8012B0028F7DCF068B269FC
:100FE0001044091AF16196F8380000F01400102836
:100FF0000DD17169B0694118706A4118F0694118E2
:10100000B06A4118706B8142BCBF411A316204B0B2
:10101000BDE8F087F8B505460E4617461C46002089
:1010200074B117F8011BB068A847B06030B1F06A1E
:10103000401CF0620020641EF3D1F2BD4FF0FF307F
:10104000F2BD00007072696E74665F733A20256E9F
:1010500020646973616C6C6F776564007072696E8F
:1010600074663A2062616420256E20617267756D36
:10107000656E74007072696E74665F733A206261A7
:101080006420257320617267756D656E74000000C1
:101090007072696E74665F733A2062616420256CB9
:1010A0007320617267756D656E740000000000004A
:1010B000000000006E616E004E414E00696E6600D9
:1010C000494E46003000F0B4024610689568131887
:1010D000506803EB5004C00721D54D441FE0F0BC1D
:1010E00002F10C00704713F8017B05F8017B491EE3
:1010F000F9D1A0B1B60813F8011B06F00306032EC0
:1011000008BF13F8016B01EB06214942801C2944FA
:1011100005D011F8016B05F8016B401EF9D1A3420F
:10112000DDD013F8016B16F0030104BF13F8011BA7
:10113000C91C30090F28DAD113F8010B0F30D6E79C
:10114000613807E005E0A0F161011A2901D2012010
:10115000704741381A288041C00F7047A0F109013B
:10116000052901D3202801D10120704700207047B4
:10117000A0F141011A2938BF203070471A48704742
:1011800030B45368D418042B09DA41B1057804F857
:10119000015B10F8015B15B15B1C491EF3E753605E
:1011A00030BC704738B514461D4661B1FFF7E8FF03
:1011B00061686A6B204690476FF00102811A02D085
:1011C000491E03D005E06FF0010032BD4FF0FF3043
:1011D00032BD0021616032BDDA6B1047024BE1E79E
:1011E000014BF9E70148704734070020FC06002056
:1011F0000278C9B28A421AB11CBF10F8012FF9E770
:1012000018BF00207047B1F5807F02D34FF0FF3048
:1012100070470170012070470078401E8041C04334
:10122000C00F704780B500B906A005490B681BB117
:1012300022220021984701E000F099FD222002BD02
:101240002C0C0020636F6E73747261696E74206879
:10125000616E646C65723A20626164206D657373BF
:101260006167650000F10103810704D010F8011BDC
:1012700089B18107FAD10268B2F10131914311F0CD
:10128000803F04BF50F8042FF6E710F8011B11B19E
:1012900010F8011BFBE7C01A70478268521C82607D
:1012A000426832B10268531C036011704168491EE4
:1012B00041607047C9B2830706D0521E22D310F88E
:1012C000013B9942F7D11FE0083A13D302F104021F
:1012D00041EA012141EA014150F8043B121F21BFBC
:1012E0004B40A3F1013C2CEA030C1CF0803FF3D0EF
:1012F000C9B2001F083210F8013B521E28BF91EA04
:10130000030FF8D818BF0120401E704780B5FFF7C3
:1013100035FF006C02BD000062B38B0708D0521E7F
:1013200011F8013B00F8013B00F024808B07F6D157
:10133000830740F0208000BF103A07D330B4B1E8F3
:101340003810103AA0E83810F9D230BC530724BF47
:10135000B1E80810A0E8081044BF51F8043B40F879
:10136000043BD20724BF31F8022B20F8022B44BFE4
:101370000B7803707047121F17D35B0009D151F827
:10138000043B20F8023B1B0C121F20F8023BF6D254
:101390000BE051F8043B00F8013B1B0A20F8023B2C
:1013A0001B0C121F00F8013BF3D238BF121D521E56
:1013B00024BF11F8013B00F8013BF8D8704700004A
:1013C000B3BBD9B1B2F5803F7DD2022A1ED98C467B
:1013D000B1FBF2F102FB11C31B0443EA1043B3FB60
:1013E000F2FC02FB1C3380B240EA0343B3FBF2F091
:1013F00002FB103240EA0C4000237047022A05D954
:101400008446B0FBF2F002FB10C270474AB105D12E
:1014100000F0010249085FEA300070470022002313
:10142000704700F0A7BC0B000200002100207047AD
:10143000904271EB030CF6D3B3F5803F2FD2F0B599
:10144000B3FA83F7B1FA81F4A7F10F0E3D1B5340B5
:10145000CEF1200602FA0EF2F3415340B5F10F0728
:1014600046D80F3C2C444140C4F12006A040F14135
:101470004140B1FBF3F603FB1611A2FB0645001B2E
:10148000A94102D2761E8018594180EA010221FA50
:101490000EF362FA0EF200215A403046F0BD30B42D
:1014A000B1FBF3FC03FB1C11A2FB0C45001BA94183
:1014B00003D2ACF1010C8018594130BC02460B46F6
:1014C000604600217047B2F1807F65D3F0B5B2FA73
:1014D00082F7B1FA81F4C7F10F063D1B22FA06F339
:1014E00007F1110EF24120355A40B5F10F07B8D976
:1014F0004140C4F12006A040F1414140B1FBF3FC62
:1015000003FB1C11A2FB0C45001BA94103D2BCF13B
:10151000010C801859410F2F12D30F3FC90341EA24
:101520005041B1FBF3F603FB1611A2FB0645D4EBC9
:10153000C030A94102D2761E8018594146EACC3CFF
:1015400007B34140C7F12006B840F1414140B1FB2B
:10155000F3F603FB1611A2FB0645001BA94102D2BC
:10156000761E8018594180EA010221FA0EF3C7F174
:10157000200462FA0EF20CFA07F05A402CFA04F139
:101580003043F0BD80EA010221FA0EF3002162FA35
:101590000EF260465A40F0BD8C46B1FBF2F102FB00
:1015A00011C31B0243EA1063B3FBF2FC02FB1C33C2
:1015B0001B024CEA002043EA1063B3FBF2FC02FB7F
:1015C0001C331B024CEA002043EA1063B3FBF2FC1D
:1015D00002FB1C331B024CEA002043EA1063B3FBFE
:1015E000F2FC02FB1C324CEA002000237047000092
:1015F000B0B581EA030C0CF0004C40F2FF7515EA1F
:1016000011541DBF15EA1357AC42AF4239E0E4193B
:1016100023EA455343F48013C90241F0004141EAF3
:10162000505EC7021100A7FB020200284FF0000025
:10163000EEFB01204FF00001E3FB072118BF42F051
:101640000102401800214941E3FB0E01A4F580642A
:101650000F0302D252004041494154F101046CDDB4
:10166000470872F1004250F1000051EB0451A1F51E
:1016700080115CBF41EA0C01B0BD4CEA055100206D
:10168000B0BD05EA1357AC4214BFAF4241E050EA87
:10169000410E1CBF52EA430E02E061460020B0BD7D
:1016A00024423C441BD15FEA070EF6D0090302BF77
:1016B00001460020AEF1140EB1FA81F7AEEB07043B
:1016C00001FA07FE0C37C7F1200100FA07F7C840FE
:1016D0004EEA000E23EA455343F48013A2E733F0A9
:1016E0000043B3FA83F704BFB2FA82FE77440B3F9C
:1016F000E41BB7F1200E2FBF02FA0EF3BB40C7F177
:10170000200E22FA0EFE38BF43EA0E03BA40641CD4
:1017100082E750EA410E14BF52EA430E6FF0000117
:101720004FF4001717EB430F8ABF194617EB410F11
:10173000B5E74CEA05510020B0BDD4F10104B4F185
:1017400020070FDAC4F12007520828BF42F0010237
:1017500010FA07F501FA07F7E1BF2A43E0403843E2
:10176000E1400FE0352C98DCC7F1200452EA40023A
:1017700020FA07F218BF42F0010231FA07F0A14047
:101780000A43002172F1004250F1000051EB0C01BC
:10179000B0BD000010B5144600F002F8226010BD84
:1017A000C1F30A5343B14A0012F5001F28D2A3F235
:1017B000FE32A1EB0251704750EA410C20D001F0FB
:1017C000004C31EA0C01B1FA81F204BFB0FA80F3A7
:1017D000D2180B3AB2F120032CBF00FA03F191406A
:1017E00041EA0C013EBFC2F1200C20FA0CF3194370
:1017F0009040524240F2FD33D21A01EB0351704740
:10180000002270474FF4001C1CEB410F94BF1CEBEF
:10181000430F09E041EA030C50EA4C0C52EA0C0C6D
:1018200003D2994208BF9042704714BF8B42824254
:10183000704700004FF4001C1CEB410F94BF1CEBE1
:10184000430F09E041EA030C50EA4C0C52EA0C0C3D
:1018500003D28B4208BF8242704714BF9942904224
:1018600070470000124254D440F2FF7C1CEA11532E
:101870000FD0634531D09B1863453CBF01EB02514B
:10188000704701F0004141EA0C510020AFF30080A5
:10189000704750EA410320D001F0004C91EA0C015E
:1018A0001CD0B1FA81F30B3B9A420DD9D21A994060
:1018B00051EA0C01C3F1200C20FA0CFC6144984061
:1018C000531C40F2FF7CD7E7914041EA0C01C2F182
:1018D000200C20FA0CF3194390407047B0FA80F3C3
:1018E0001533202BE0D3202AEED3203A203B9A4216
:1018F00009D9D21A00FA03F141EA0C010020531C65
:1019000040F2FF7CB8E700FA02F141EA0C01002046
:101910007047524240F2FF7C1CEA11530DD06345E0
:10192000DBD0B2EB030C3CBFA1EB025170470CF1D2
:10193000010221EA035141F4801150EA410CCCD05C
:1019400001F0004C352A27DC30B481EA0C01B2F1F9
:10195000200309DAC2F12003044601FA03F5D0405E
:101960002843D1409C400CE0C3F12002450020FAFE
:1019700003F418BF44F0010421FA03F091400C4332
:10198000002174F1004550F1000051EB0C0124429C
:1019900030BC7FF47BAF70476146002076E70000E3
:1019A000C1F30A5340F2FE329B1A14DDD3F1200337
:1019B0004FEAE17208DDC90241EA505141F00040AE
:1019C000D84080185040704703F2E13010B1D24344
:1019D00082F000407047002070470000C11768B1D6
:1019E0004840401AB0FA80F29040D21CC907C2F5B4
:1019F000846241EA025202EBD021400570470000A8
:101A000070B44FF0004591EA030F40F1BD816B4087
:101A1000841A71EB030603D2001BB1411219734102
:101A20004FF4001C1CEB410F34BF7CEB430442E03D
:101A30000C0DA4EB1356352E4FDC45EAC323DB0A0D
:101A400045EAC121C912B6F120050DDD63FA05F69C
:101A5000EB4086EA0305124218BF45F00105C018A5
:101A600051F100010CD213E062FA06F5F240554044
:101A7000F3415A40B340F3405A408018594107D3CC
:101A800049085FEA30005FEA350528BF45F00105E7
:101A900001F58011420875F1004250F1000041EB60
:101AA00004514E0016F5001F70BC38BF704700206F
:101AB000090D090570471CEB410F10D252EA43068D
:101AC0000BD0BCEB410F05D80C0DAB43661E342E7A
:101AD000B6DD02E0AB438018594170BC704770BC62
:101AE00070470000F0B540F2FF7581EA030C0CF07E
:101AF000004C15EA11541DBF15EA1357AC42AF4212
:101B0000E5E0BC41C1F31301C3F31303801A99410B
:101B100043F4801304D2641E4000494180185941A7
:101B2000C90241EA5051B1FBF3F603FB1611A2FBC7
:101B30000675D7EBC020A94102D2761E8018594104
:101B4000C90241EA5051B1FBF3FE03FB1E11A2FB97
:101B50000E75D7EBC020A94103D2AEF1010E80185B
:101B60005941890241EA9051760546EA8E2EB1FB31
:101B7000F3F603FB1611A2FB0675D7EB8020A941F3
:101B800002D2761E80185941C90241EA50514EEAEC
:101B9000060EB1FBF3F603FB1611A2FB0675D7EB9D
:101BA000C020A94102D2761E80185941C90241EADB
:101BB0005051B1FBF3F703FB1711A2FB0735D3EB31
:101BC000C020A94167F100070CBF004247F00107A0
:101BD00066F3D5274FEA1E31B80814F5806412DD8C
:101BE000BD0775F1004250EB0E5051EB045111F559
:101BF000801F5CBF41EA0C01F0BD4CF07F6141F0F9
:101C0000E0410020F0BDBD076D0840EA0E5041F4F0
:101C10008011D4F10104B4F120060ADAC4F12006DF
:101C20000200E04001FA06F3E1401843B2401543D8
:101C30000EE0342C13DCC6F1200445EA40056D08A3
:101C400020FA06F2154321FA06F0A1400D430021C7
:101C500075F1004250F1000051EB0C01F0BD002085
:101C60005FEA0C01F0BDCFB992185B41B3FA83F77C
:101C700004BFB2FA82F6BF190B3FB7F120062FBF9F
:101C800002FA06F3BB40C7F1200622FA06F638BF77
:101C90003343BA401CB1E419641E33E77F4231F08C
:101CA0000041B1FA81F404BFB0FA80F6A4190B3CEC
:101CB000B4F120062FBF00FA06F1A140C4F12006BE
:101CC00020FA06F638BF3143A0403C1B1AE7AC426D
:101CD0001ABF05EA1357AF4212E050EA41061CBF93
:101CE00052EA4306BFE750EA4107304661461CBF4F
:101CF00041EA0551F0BD52EA430C08BFC143F0BDB3
:101D000000204FF4001616EB410F98BF16EB430F5F
:101D100008BF16EB410F24BFC14305E016EB430F8C
:101D20000CBF61464CEA0551F0BD0000400D49185A
:101D300040EA81200CD2490DA1F58061491C40F098
:101D4000004005DBD1F11F0154BFC840C0177047E8
:101D500000207047014648B1B0FA80F18840C91CA4
:101D6000C1F58461090501EBD021400570470120D0
:101D700000F0BEB87047000070B44FF0004591EA23
:101D8000030F7FF545AE6B40841A71EB030604D256
:101D90006E40001BB141121973414FF4001C1CEB43
:101DA000410F34BF7CEB430682E00C0DA4EB1356CD
:101DB000362E7BDC012E45EAC32341DC43EA525335
:101DC00012BFD20292025B08240545EAC12141EA12
:101DD0005051D2EBC020994125D407D1B0FA80F6FA
:101DE00010FA06F162D00020203608E0B1FA81F640
:101DF000B140C6F1200220FA02F21143B0404FEA8E
:101E0000F474B4EB465434F001064FEA74040AD873
:101E1000D6F50016760D04F00044F04061FA06F2A3
:101E20005040F1404840C00A40EA415021F0004192
:101E300028BF5FEA500550F1000044EBD12135E0A6
:101E4000DB0A45EAC121C90AB6F120050EDD42EAE6
:101E50000242120CC5F1200603FA06F6EB4042EAF4
:101E600006056D42984161F100010DE062FA06F548
:101E7000F240554063FA06FC82EA0C02F3405A40F5
:101E80006D42904161EB030111F4801F05D1641E86
:101E9000620502D06D004041494121F480114308A0
:101EA00075F1004350F1000041EB045170BC7047E4
:101EB0001CEB410F15D223F0004352EA43060BD02E
:101EC0004FEA4C0CBCEB410F04D80C0D661E342EAF
:101ED000B7DDEBE7801A994150EA410608BF0021BF
:101EE000E4E708BF1CEB430F28BF6FF00001DDE7FC
:101EF00080B5AFF30080024A11001820ABBEFBE7AB
:101F0000260002000E49086840F0010008604A6897
:101F10000C4802404A600B680B4803400B6008689D
:101F200020F4802008604FF41F004A6822F4FE026B
:101F30004A6088604FF00060044908607047000004
:101F4000001002400000FFF8FFFFF6FE08ED00E081
:101F50000000000000000000010203040607080959
:101F60002DE9F04D8AB0129C14B1129C0025256019
:101F70001F46164627F00043002226F0000A93422F
:101F800008BF924514D004460D460020DFF86016C5
:101F900022462B4600F088FD0AD0DFF8581600F0E4
:101FA00083FD09D178004015401C05D1390303D1C8
:101FB0000020DFF83C165CE368004015401C0DD0A3
:101FC00025F00041002224F00000914208BF904219
:101FD00004D078004015401C40F0EA8068004015AD
:101FE000401C04D1290302D02046294641E3780051
:101FF0004015401C04D1390302D03046394638E33D
:1020000078004015401C4FF0010C00F080803946EC
:102010004A0042EADA7B002200234FEA4A0A9B4543
:1020200004BF9245CDE9006730461CD040F23342F0
:10203000A2EB5B52352A06DB00F0000201F0004300
:10204000CDE900230FE0202A04DDA2F12000C140E9
:10205000814000E001D1002003E0002AC4BFD0404D
:102060009040CDE90001BB4600229345B24605DA17
:102070004FF00041B2EB0A0A61EB0B0BDDE9000106
:10208000914204DA4FF00043101A63EB01018B45D3
:102090000CBF82459446DDE900014B0043EAD07352
:1020A00042000026B34208BFB24217D040F2344E7D
:1020B000AEEB5352352A04DB00F0000001F0004182
:1020C0000CE0202A03DD203AD140914000E001D10C
:1020D000002003E0002AC4BFD0409040BCF1000FB4
:1020E00015D0DDE90023B34204DA4FF0004BB21AF9
:1020F0006BEB0303B14204DA4FF0004B301A6BEB89
:1021000001018B4206BF8242B4464FF0010C6800C9
:102110004015401C06D1290304D1EC0F1AD1FE0F43
:1021200043D020E078004015401C1DD139031BD15D
:1021300025F00041B1F5801F24F0000020D20023DB
:10214000994208BF984200931FD06A462946FFF77C
:1021500021FB1AE0FE0F03D1BCF1000F25D020E0D7
:10216000BCF1000F09D183E2BCF1000F14BFEC0FEA
:102170000024FE0F13D184B100204FF0004178E21B
:10218000DFF8742402EB11500090FE0F009802D18A
:10219000002809DC01E0002806DD002068E21CB10F
:1021A0000020DFF8581464E20020DFF8541460E2E5
:1021B000394630464B0043EAD07342004FF0000AE4
:1021C000534504BF5245CDE9006719D040F2334C66
:1021D000ACEB5352352A04DB00F0000001F0004163
:1021E0000CE0202A03DD203AD140914000E001D1EB
:1021F000002003E0002AC4BFD0409040CDE9000198
:10220000E80F1ED039465145304605DA4FF00043FD
:10221000BAEB000063EB0101DDE90023534505DA69
:102220004FF0004BBAEB02026BEB0303994208BF7D
:10223000904206D0AFF300804FF0FF306FF00041C6
:1022400017E225F00041B1F5801F24F000000CD208
:10225000514508BF5045CDF808A011D002AA294623
:10226000FFF798FA04460D460AE0DFF88C2302EBEC
:1022700011500290DFF88C13DFF88C0305400D43FA
:10228000E80F3CD0DDE900014B0043EAD073420087
:10229000534508BF524525F000451AD04B0040F287
:1022A000344C43EAD073ACEB5352352A04DB00F0D4
:1022B000000001F000410CE0202A03DD203AD1406B
:1022C000914000E001D1002003E0002AC4BFD040CB
:1022D0009040DDE90023534505DA4FF0004BBAEB9F
:1022E00002026BEB0303514505DA4FF0004BBAEBEA
:1022F00000006BEB01018B4208BF824202D1CDF896
:102300000CA001E001210391029801282FD1204661
:102310002946BE4ABE4BFFF775FA28D24800400D49
:10232000D046DFF8CCB200F1010211D0002A0FDD57
:1023300040F2FF70824206DBB14905F00043002401
:1023400043EA010532E06FF31E5141EA02552DE0E8
:1023500025F0004324F00002434508BF424525D044
:1023600001222046FFF77EFA04460D461EE00020BB
:10237000A84922462B46FFF73BF9DFF888B2002236
:102380005B46FFF7F9FCFFF70BFBA0F12008404686
:10239000FFF724FB0022A04BFFF72AF900225B463F
:1023A000FFF7EAFC82468B464FEA4818204629464A
:1023B00052465B46FFF724FBCDE9000152465B46DF
:1023C00020462946FFF7D8FC02460B46DDE900010E
:1023D000FFF788FBCDE90401DDE90423FFF708F9E5
:1023E000CDE900015246204629465B46FFF708FB2F
:1023F000CDE90601DDE9002388488949FFF7F8F8AF
:10240000884A894BFFF7B8FCDDE90023FFF7F0F8B5
:10241000864A874BFFF7B0FCDDE90023FFF7E8F8B9
:10242000844A854BFFF7A8FCDDE90023FFF7E0F8BD
:10243000824A834BFFF7A0FCDDE90023FFF7D8F8C1
:10244000804A814BFFF798FCDDE90023FFF7D0F8C5
:102450007E4A7F4BFFF790FCCDE9080152460020F1
:1024600063495B46FFF7CCFA0B465A00520D02F166
:10247000010411D0002C0FDD40F2FF72944205DB05
:102480005F4D01F000400024054312E06FF31E533E
:1024900043EA045504460CE021F00043002420F0F8
:1024A0000002A3420EBFA2420122FFF7DBF904465D
:1024B0000D46DDE90023DDE90801FFF799F8DDE9C4
:1024C0000623FFF79DFA22462B46FFF755FCDDE970
:1024D0000423FFF78DF800BF6BA202EB0805DDE9CE
:1024E0000623FFF749FC824602988B46FFF776FAEF
:1024F000D5E90023FFF740FCCDE9000152465548DD
:1025000055495B46FFF774F8DDE90023FFF734FC1B
:1025100032463B46FFF76CF80022504BFFF772F94A
:1025200062D301224E4BFFF785F956D9CA0F1ABF65
:1025300000224C4B334BFFF71FFCFFF731FA0446E8
:1025400032463B4650465946FFF752F882468B4684
:10255000D5E90201D5E90423FFF70EFC32463B46DC
:10256000FFF746F8404A414BFFF742F852465B46B8
:10257000FFF702FC05468B46DDE9000132463B468B
:10258000FFF736F806460F462046FFF727FA0246C1
:102590000B4630463946FFF733FA334A334BFFF7E1
:1025A00027F82A465B46FFF7E7FB129A0AB1146048
:1025B0000024009400220E4B00F086FA21F0004522
:1025C000002220F00004954208BF94420CD04A003B
:1025D0005215521C03D10B0301D100200849039A64
:1025E0002AB181F0004144E000200021F7E740E0FB
:1025F0000000F03F0000F0BF02FCFFFF0000F0FF12
:102600000000F07F0000E03FFFFF0F80CD3B7F66C2
:102610009EA0E63F000050400000903FF7DE29BF3B
:10262000D8F8C23FF4B3FECC1A99C33F62CB68D945
:102630006F46C73FC6C912DAC471CC3F4AE98A94D3
:102640002449D23FF75F97999999D93FBC55555581
:102650005555E53FFE822B654715F73F0000E0C06A
:102660000000E0400000E0BFEF39FAFE422EE63FF6
:1026700000210AB0BDE8F08D1CB500240094FFF7DE
:102680006FFC1CBD00000000000000000000F0BF57
:10269000000000000000008000000000000000803A
:1026A0000000000000000000000000C05294EEBFD7
:1026B00000000048204E51BE000000F86467BCBC1A
:1026C0000000000000000000000000208133EDBF8A
:1026D00000000080B3DB14BE000000506706A3BCFE
:1026E0000000000000000000000000D0E9DCEBBFAB
:1026F00000000008C39259BE00000080B0D3B8BCEF
:10270000000000000000000000000070F98FEABF28
:10271000000000C0A51028BE000000E8BFC0B0BC8B
:10272000000000000000000000000070284CE9BF1D
:1027300000000060134B42BE000000C03D20B8BC4A
:10274000000000000000000000000050FA10E8BF88
:10275000000000C05FF62BBE000000905C71A7BCBB
:10276000000000000000000000000020FCDDE6BFCB
:10277000000000C0F8F154BE00000018E9F6B9BC32
:102780000000000000000000000000D0C3B2E5BF60
:1027900000000070E43254BE00000050DB06B4BC00
:1027A000000000000000000000000010EF8EE4BFF9
:1027B00000000020F36252BE000000C02A879ABCCD
:1027C0000000000000000000000000B02272E3BF23
:1027D000000000F0E8E056BE00000028352DBDBC2A
:1027E0000000000000000000000000000A5CE2BFE2
:1027F000000000B0FA8E41BE00000040AE6FBDBCCC
:10280000000000000000000000000000564CE1BF86
:10281000000000F015CD5FBE00000000141C90BC4D
:10282000000000000000000000000040BD42E0BFCA
:1028300000000030F93457BE000000E06C1E93BC6D
:102840000000000000000000000000E0F57DDEBF99
:10285000000000B08A535EBE00000080DA77AABC98
:102860000000000000000000000000C09D81DCBFEF
:1028700000000000FFA226BE0000006057E2B0BCCE
:10288000000000000000000000000060F98FDABFC7
:10289000000000580A8151BE000000F05F60B8BC23
:1028A00000000000000000000000000098A8D8BF51
:1028B000000000607A7F45BE000000D05433A3BC06
:1028C0000000000000000000000000600FCBD6BF39
:1028D000000000D091CB40BE000000406D1BA0BCAA
:1028E0000000000000000000000000A0FBF6D4BFC4
:1028F00000000098C5CE52BE000000003A397EBCF0
:102900000000000000000000000000E0FE2BD3BF2C
:102910000000004073872BBE00000000926879BC65
:10292000000000000000000000000040C069D1BFAE
:1029300000000058F16353BE00000080438D7CBC52
:10294000000000000000000000000080D85FCFBF42
:10295000000000181F8354BE000000B03F42A2BC1C
:1029600000000000000000000000008067FCCBBFFA
:1029700000000060FAFF53BE00000050E00DB8BC3C
:1029800000000000000000000000000098A8C8BF80
:10299000000000607A7F35BE000000C0543393BC55
:1029A000000000000000000000000000DC63C5BF64
:1029B00000000058D6FF54BE00000000396490BCEF
:1029C0000000000000000000000000C0AD2DC2BFEC
:1029D00000000080A45915BE000000E0484BABBCCD
:1029E0000000000000000000000000801A0BBEBFC5
:1029F00000000050BF3C5ABE000000A0B364B6BC4B
:102A000000000000000000000000008004D6B7BFF6
:102A100000000040BBCF36BE0000008076CEA8BCD0
:102A200000000000000000000000008032BBB1BFC9
:102A3000000000402A0043BE00000028C60CBDBCB8
:102A40000000000000000000000000009473A7BF19
:102A5000000000182B3B59BE000000C0E55DA5BC7E
:102A6000000000000000000000000000EE4397BFDF
:102A7000000000A0E6C340BE00000020958DB5BC5C
:102A800000000000000000000000000000000080C6
:102A90000000000000000080000000000000008036
:102AA000000000000000000090420CD141EA030C3D
:102AB00050EA4C0C07D0994205D14FF4001C1CEB96
:102AC000410F38BF894270472DE9F04D04460D464D
:102AD00068004015401C84B016461F461DD025F0E6
:102AE0000041002224F00000914208BF904214D01F
:102AF00078004015401C10D026F0000037F000414F
:102B000008BF904209D02946914280F28B804FF055
:102B10000043101B63EB010184E068004015401C7A
:102B200002D1290340F0728178004015401C01D188
:102B3000390351D127F00043002026F000028342E0
:102B400008BF824206D168004015401C44D12903C9
:102B500042D10BE078004015401C0ED139030CD156
:102B600068004015401C37D1290335D1AFF30080F0
:102B70004FF0FF306FF000414AE125F000410022A4
:102B8000002324F00000994208BF904227D1394623
:102B900048000C9A400D121880BB27F0004126F027
:102BA0000000994208BF984205D00C9A3946FEF7BA
:102BB00059FE06460F4627F00043002026F000028B
:102BC000834208BF824205D078004015401C03D1E3
:102BD000390301D1AFF300803046394618E168006F
:102BE0004015401C1CD129031AD132463B462046D1
:102BF000294604B0BDE8F04DFEF7FABC002ACCDD52
:102C000040F2FF70824206DB834907F00043002652
:102C100043EA0107CFE76FF31E5141EA0257CAE7C3
:102C200000200AE07D4B9342BCBF4FF0004060EBB8
:102C3000030399429246104602DA07F00041E7E0AA
:102C400077498142BCBF4FF0004363EB01012B4643
:102C50008342224605DA4FF0004BBAEB02026BEBDF
:102C60000303994209DC01DB904206D2AFF30080F6
:102C7000694907F000431943CAE06A486A49224695
:102C80002B46FEF7B5FC694B01F0004E00224EEAE0
:102C90000303FFF771F8FEF783FE8046FEF79EFE02
:102CA00082468B464FF07840614952465B46FEF7BC
:102CB0009FFC02460B4620462946FEF7A1FE04462D
:102CC0000D465C485C4952465B46FEF791FC024665
:102CD0000B4620462946FEF793FE0D4625F000419F
:102CE0000022564BFEF78EFD044602D234463D4686
:102CF00052E022462B462946FEF77AFC82468B4656
:102D00004F48504952465B46FEF772FC4E4A4F4BC5
:102D1000FFF732F852465B46FEF76AFCCDE9020146
:102D200052464B484B495B46FEF762FC4A4A4B4BC6
:102D3000FFF722F852465B46FEF75AFC00223B4B57
:102D4000DFF81CB1FFF718F822462B46FEF750FCBF
:102D500004460D46DDE9020122462B46FFF70CF83A
:102D600000225B46FFF708F8CDE900012246DDE9C5
:102D700002012B46FEF744FE00225B46FEF7FCFFF5
:102D800002460B46DDE90001FEF7ACFE32463B464B
:102D9000FEF72EFC04460D460C9800EB080229466F
:102DA0004800400D02EB000311D0002B0FDD40F274
:102DB000FF70834206DB184905F00043002443EA14
:102DC000010512E06FF31E5141EA03550DE025F0B5
:102DD0000041002624F00000B14208BFB04204D0F8
:102DE0002946FEF73FFD04460D4625F0004300202E
:102DF00024F00002834208BF824205D068004015DB
:102E0000401C03D1290301D1AFF30080204629469D
:102E100004B0BDE8F08D00000000F07F00C89CC049
:102E200000C89C40FE822B654715F73F0000E03F3D
:102E3000422EE63FF2E4D5BCE7E84B3E0000903C72
:102E4000112E5781A03F503F5843128C8F71BC3FC9
:102E50004BE8A541B752013F0BBDF3DAE8708C3F58
:102E60000000F03FF8B5044600262CB304F13C0501
:102E7000287818B96E70204600F0D0FB00F0FEF9FB
:102E80002068026842F00102026000F007FD074678
:102E900020684168CA0711D400F000FDC01B0B2850
:102EA000F6D300F0F3F9F2BD00F0F8FC801B0B281C
:102EB0003DD3F6E7042028700120F2BD4168CA071F
:102EC000F8D5A1690129E16908BF80260129216A95
:102ED00008BF46F040060129616A08BF46F0200697
:102EE0000129A16A08BF46F010060129E16A0268BB
:102EF00008BF46F00806012908BF46F0040622F084
:102F0000FC0216430660A168E0682268014320695C
:102F10000143606901436068401E0143D16120683C
:102F2000016849084900016000F0B8FC06462068C5
:102F30004168CA07B8D44068C107BBD400216960A2
:102F4000012028700020F2BDF8B54A690468012309
:102F500003FA02F204F5007318684D6A20F47C50FD
:102F600040EA052040F001001860D543D8692840A8
:102F7000D861C86980B9DE682E4000F03DF8CF689E
:102F800000F040F8D1F800C08F684E691FFA8CFC41
:102F90004CEA074740F83670C86901280ED1DE6850
:102FA000164300F029F80F6800F02CF8CF688E68FF
:102FB0004C69BFB247EA064740F83470886918B9CF
:102FC0005C682C405C6002E05868104358600869F7
:102FD00018B95C6925405D6102E058691043586189
:102FE000086A012802D1D9690A43DA6118684008E1
:102FF000400018600020F2BDDE6004F51070D1F8CA
:1030000004C070474E691FFA8CFC4CEA074740F831
:10301000367004F5117070472DE9F84F054605F13B
:103020003C0628688268530106D48268130103D4E1
:103030008268D30040F1BE807278012A08BF022066
:1030400000F0BB80012373703278222A04D0322A28
:1030500004D0622A04D005E0422204E0522202E0B9
:10306000722200E0122232708268530148BF0024AD
:1030700004D4826813014CBF0124022400F5C070FF
:103080002201835803F0010383502B6B2F68D3F880
:103090000CA0986807F5C07728B9B8581B684AEAA9
:1030A0004353184308E057F802C05B6840EAC30086
:1030B0004AEA000040EA0C00B8508A46286BDFF864
:1030C000CC83017CDFF8C89301F00F01016128680F
:1030D00000F5C2708158090909018150286800F57E
:1030E000C2718B582F6B3869DFF8A87303438B507C
:1030F000286B837DC17D1B0443EA0163417D007D14
:1031000000F05DF8C0F88831286B837EC17E1B0417
:1031100043EA0163417E007E00F051F8C0F88C3133
:10312000286800F5C070815841F00101815000F01D
:10313000B5FB83462868B4B9806809EA00004845B1
:1031400018D01AF1010FF5D0BAF1000F05D000F038
:10315000A5FBA0EB0B008245ECD203203070286861
:10316000CCB980211DE0012C806810D108EA000054
:103170004045E6D13078422818D0522818D072281D
:103180000CBF6220012030700020707015E03840C4
:10319000B842D6D1EEE7012C0CBF4FF400414FF4FA
:1031A0000001816000207070032006E02220EAE721
:1031B0003220E8E7042030700120BDE8F28F43EAB6
:1031C0000123034328681044704718B50B0000F131
:1031D0003C020BD11378222B1CBF1478422C16D042
:1031E0001378622B1CBF1478722C10D001290BD1DC
:1031F0001378322B1CBF1478522C08D01378622B12
:103200001CBF1478722C02D05378012B01D10220FC
:1032100012BD012454700B0013780AD1122B04D074
:10322000322B0FD0522B0FD001E042230FE022238C
:103230000DE0122B04D0222B04D0422B04D005E049
:10324000522304E0622302E0722300E03223137071
:103250000023536003685C6944F40F4444F00104A4
:103260005C61002353700029006841690CBF41F084
:103270000A0141F050014161002012BD0220287076
:103280002068016821F00201016070470320287066
:103290000020687003207047F8B5044600202268BB
:1032A000D568002100265369ED0605D51B0703D517
:1032B00010234FF40076D360226815695369ED0638
:1032C00005D55B0603D5102346F48066136104F12F
:1032D0003C0522685369DF0748D597686C4B1F404F
:1032E0009F429768694B08BF01201F409F42976823
:1032F000684B08BF01211F409F420CBF01230023E0
:103300000843184332D09068916893684008490A8E
:1033100000F0010001F00101084303F0010318432C
:103320001DD050694008400050612978122904D10D
:103330002068416921F40F4141612878422808D072
:10334000522804D072280CBF6220012002E03220F3
:1033500000E022202870204600F0A6FA01E046F4A2
:10336000006621684C488A6802438A602068C16808
:10337000406911F0030F05D0800703D500212046D6
:1033800000F08EF820680169406911F0030F05D044
:10339000C00603D50121204600F082F86868064384
:1033A0006E602068836941694269DB0707D5C905FA
:1033B00005D5110403D5696841F00101696083698D
:1033C000416942699B0707D5890505D5110403D5D5
:1033D000696841F0020169608369416942695B077C
:1033E00007D5490505D5110403D5696841F00401E5
:1033F0006960816901F070014B1E416942699B411E
:10340000DB0F2FD109052DD511042BD5816901F0D2
:10341000700110290AD020290CD030290ED0402963
:1034200010D0502912D0602914D017E0696841F0FB
:10343000080112E0696841F010010EE0696841F08E
:1034400020010AE0696841F0400106E0696841F046
:10345000800102E0696841F480716960816921F04E
:1034600070018161686870B1226804215160012097
:103470002870216809484A6902404A612046BDE82F
:10348000F24000F086B9F1BD000000000001000824
:10349000010000040000011009050100A470FFFFF5
:1034A00038B50A0002680CBF436B836B0C0102F550
:1034B000D8752A5912F004029A60056805F5D87586
:1034C00003D12A59520D1A6002E02D59ED085D60B2
:1034D000026802F5D8752D5905F00205DD60026815
:1034E0002244D2F8B421196202F00F021A61026874
:1034F0002244D2F8B421C2F30722DA6102682244DE
:10350000D2F8B8211A7502682244D2F8B821120AFA
:103510005A7505682A19D2F8B821120C9A750568EF
:103520002A19D2F8B821120EDA7500F04EF81A7680
:1035300002682244D2F8BC21120A5A7600F045F8FB
:10354000120C9A7600F041F8120EDA760B0002683F
:1035500006D12023D3600268536923F00A0305E0F3
:10356000202414610268536923F05003536190F8DA
:103570003C20222A18BF322A04D10268536923F45E
:103580000F435361002990F83C100AD142290FD013
:10359000622902D0722902D010E032210FE05221BC
:1035A0000DE0522904D0622904D0722904D005E02C
:1035B000122104E0222102E0422100E0012180F8F2
:1035C0003C1000F0DFF8002032BD05682A19D2F85F
:1035D000BC21704780B59248924901600321416047
:1035E00000218160C1604FF4002101614FF480111E
:1035F0004161002181610121C161002101624162BB
:1036000081620121C162FFF72DFC30B1BDE80440A9
:103610005FF04D0189A000F04CBA01BD00688149FE
:10362000884200D0704718B57F48804C85B001684B
:1036300041F0007101604FF40061006800F000701B
:1036400000900022009801910292039201A9204665
:1036500000F036FA4FF480500190022103200291CD
:10366000049001A9204600F02BFA0022002114202A
:1036700000F036FB142000F050FB06B010BD000037
:1036800010B5674C04F16C00206304F1880060639E
:1036900000F00CF800212046FFF797FD00F086F8B7
:1036A00077A000F0D8FBBDE8104086E05C48002120
:1036B0008165C16501210166002141648164C164A5
:1036C00001654165012141660E21816600F14401D9
:1036D000FFF73ABC10B5524B1C6B20600020E06035
:1036E000A06022611C6B0A5C0444401C08282275FF
:1036F000F8DB64211846FFF78FFC401E8041C00FA5
:1037000010BD00002DE9F041044640F6010084425E
:103710004FEA01055FA70FF2241806D3D8224146CD
:10372000384600F097FCAFF30080414E30683228F5
:1037300006DBD9224146384600F08CFCAFF300800E
:1037400030683C4941F8305001EBC001401C4C60EE
:1037500030600020BDE8F08170B5354B354C1B68FA
:10376000002200E0521C9A420ADA04EBC2056E689D
:10377000B042F7D1084654F832108847012070BD96
:10378000002070BD10B50446616B0868FFF7E4FFC8
:1037900005E010B5224A1368044600205860002155
:1037A0002046FFF712FD00F001F810BD20B120689F
:1037B000416941F00A014161704710B51E4C214634
:1037C0000020FFF79FFF21460120FFF79BFF2146C6
:1037D0000220FFF797FF21460320FFF793FF2146C2
:1037E0000420FFF78FFF21460520FFF78BFF2146BE
:1037F0000620FFF787FF21460720FFF783FF2146BA
:103800000820FFF77FFF21460920FFF77BFF2146B5
:103810000A20FFF777FF2146BDE810400B2071E733
:10382000D4090020006400401C1002400008014040
:10383000D80B00207C07002065780008433A5C55CF
:10384000736572735C77616E6779756E7875616E9A
:103850005C4465736B746F705C526F626F636F6E04
:103860005C70726F6772616D5C656E636F646572C8
:103870002D7A6875615C5372635C63616E2E6300C0
:1038800063616E2072656164792121210D0A0D0A40
:103890000000000074657374000000000148406877
:1038A000704700BF280600207047000080B500F078
:1038B000E3FB00F03AF800F0F1FB00F06FFC00F0E1
:1038C00065FA00F0B3FC00F081FC00F037FDFFF773
:1038D00081FE00220121252000F002FA252000F0BF
:1038E0001CFA00220221142000F0FAF9142000F042
:1038F00014FA00F097FDFFF7C3FE0FF2A1014FF499
:10390000A070FFF7FFFE00BF6AA000F0A4FA00F06D
:1039100045FE00F079FE61490120086000F0E6FAFA
:1039200000F0BCFF00F056F8F8E700B500218FB0BA
:1039300001200791059002210C914FF480300690F0
:1039400001220D904FF4E01109920E9105A800F0AC
:10395000CFFF00B1FEE70F2102200091019000216E
:103960004FF480600291039004916846022101F0B7
:103970004DF900B1FEE701F0F7F94FF47A71B0FBB1
:10398000F1F000F0D4F9042000F0E5F90022002164
:103990004FF0FF3000F0A4F90FB000BD82B000215D
:1039A00043181B7D0DF80130491C0829F8DB9DF8F0
:1039B00000003B49312802D10120086008E032288C
:1039C00002D10120486003E0332804BF0120886051
:1039D00002B07047F8B5324D324C2868012808D142
:1039E000696911B1052902D10320206068610020B6
:1039F000286040F241166868012826A713D169693A
:103A0000012904D00DD3032908D003D309E00320F2
:103A1000206001E000F048F8002001E0206005206F
:103A2000686100206860A86801280DD169690229D1
:103A300002D0042903D005E00320206001E02060CB
:103A4000002068610020A860E868012814D1696935
:103A5000012902D0052907D00CE001220EA1304631
:103A6000FFF738FE022004E000F01EF8032020607B
:103A7000002068610020E8602869012808D1696990
:103A8000032903D100F010F80420686100202861A8
:103A9000F1BD00003200000031000000200C0020C9
:103AA000000C0020CC050020012239463046FFF7EB
:103AB00011BEFEE77374617274210D0A00000000EC
:103AC0002DE9F84F83460F46002080466749684A33
:103AD000684B4FF00F094FF0010A3C680AFA08F6EC
:103AE00006EA040EB64540F0AE807C683CB3012C7B
:103AF0001AD0022C1DD0032C2ED0112C16D0122C33
:103B00001AD05D4DAC421CBF5C4DAC4217D05C4D31
:103B1000AC421CBF5B4DAC4211D05B4DAC421CBFF4
:103B20005A4DAC420BD018E0F86816E0F868001D5A
:103B300013E0F868083010E0F8680C300DE0B86861
:103B400008B9042009E0012819BF0820CBF8146047
:103B50000820CBF8106000E00020BEF5807F03D283
:103B6000DC464FEA880404E0A8F108040BF1040CD9
:103B7000A400DCF8005009FA04F6B54300FA04F496
:103B80002C43CCF800407C68E4005CD51C6844F011
:103B900001041C604FEA980C1D6805F001050095B2
:103BA000009C52F82C604FEA880404F00C0409FAD7
:103BB00004F526EA0505364EB34508BF002618D0A1
:103BC000344EB34508BF012613D0334EB34508BF6A
:103BD00002260ED0314EB34508BF032609D0304E21
:103BE000B34508BF042604D02E4EB3450CBF0526AE
:103BF000062606FA04F42C4342F82C406FEA0E061F
:103C00007C68E50304D50D684EEA05050D6002E009
:103C10000C6834400C607C68A5034C684CBF4EEACD
:103C2000040434404C607C68E5028C684CBF4EEA6A
:103C3000040434408C607C68A502CC684CBF4EEA1A
:103C400004043440CC6008F10108B8F10F0F7FF68E
:103C500044AFBDE8F18F81B002B90904016101B040
:103C60007047C2685140C1607047000000040140C5
:103C7000080001401810024000001110000012104E
:103C8000000021100000221000003110000032104E
:103C900000080140000C01400010014000140140E8
:103CA00000180140001C01400901020081B006D546
:103CB0002F4A00F00F00104400F8041C01E02D4BC7
:103CC000195401B070472C4A13684FF6FF010002E7
:103CD0000B4000F4E0601843284908431060704727
:103CE00038B5254B1C68C4F30223C3F10704052C27
:103CF00028BF04241D1D072D34BF0023DB1E012512
:103D000005FA04F4641E2140994005FA03F35B1E92
:103D10001A401143BDE83440C6E7012200F01F01FC
:103D2000174BFFE78A40400943F82020704710B541
:103D3000401EB0F1807F01D3012010BD114C6060A6
:103D40000F214FF0FF30FFF7AFFF0022A2600720E6
:103D50002060002010BD04280A4904D1086840F002
:103D60000400086070470A6822F004020A60704785
:103D700018ED00E000E400E00CED00E00000FA05C2
:103D800000E100E010E000E000F07FBC10B5864CE0
:103D90008648E0614FF4E130206200206062A0625A
:103DA000E0620C20206300206063A06304F11C002B
:103DB00001F010F818B14B2187A0FFF77AFE04F14B
:103DC000180104F11C00BDE81040012201F097B871
:103DD00030B5044685B020687449884239D17448AA
:103DE000744D016841F4804101604FF40071006836
:103DF00000F480400090022200980191032004907A
:103E0000029201A92846FFF75BFE4FF48060002173
:103E1000019002910391284601A9FFF751FE664DDA
:103E200066482860102068600020A8608020E86054
:103E3000002028616861A8614FF40050E8612846BD
:103E400001F0C4FA18B1772163A0FFF732FE2563B1
:103E50006C6205B030BD0EB418B50246524C03ABCF
:103E6000652104F15C0001F0ABFC82B24FF47A737F
:103E700004F15C0104F11C0000F0E8FF11BC5DF8E6
:103E800010FB10B5484B0068484A598B90421AD134
:103E90000A0418D4187E4C0404D50A2812D141F41F
:103EA000004110E00D28464C05D141F48041C1F39A
:103EB0000D02A05407E0C1F30D02491CA05488B2C2
:103EC000C82800DB002159830122BDE8104003F11E
:103ED000180103F11C0001F012B8334800F1180179
:103EE00001221C3001F00BB8000000007CB52E4C04
:103EF000608B010431D5800404D100F065F8002105
:103F0000618373BD2F4D2E482A46694600F096FA0C
:103F100000286FF001060FD510F1030F19D0B04241
:103F200008BF0FF2FC0004D010F1010F11D100BF47
:103F300040A0FFF790FF0CE00098294600F0AFFA90
:103F4000002808D5B04204D1D5F800103DA0FFF7F5
:103F500082FF00F039F80020608373BD1FB5124C5A
:103F600000F032F80620E07010210D202075A170BD
:103F70000A206075211D009A0A6001A804F1080159
:103F800002680A6002A804F10C0102680A6003A832
:103F900004F1100102680A602146162204F11C0097
:103FA00000F0DAFF1FBD0000380600200038014095
:103FB0001810024000080140800A0020440002401E
:103FC0000C090020840B0020012204F1180104F1E7
:103FD0001C0000F094BF0000433A5C557365727397
:103FE0005C77616E6779756E7875616E5C44657338
:103FF0006B746F705C526F626F636F6E5C70726F28
:104000006772616D5C656E636F6465722D7A687549
:10401000615C5372635C75736172742E630000009F
:10402000C3FCC1EEB2CECAFDB3A4B6C8B9FDB3A4F9
:104030000D0A0000C3FCC1EEB2CECAFDB9FDB6E068
:104040000D0A0000CEB4D5D2B5BDC3FCC1EE2573B8
:104050000D0A000000B583B00091019202906A46FB
:1040600004491820ABBE002801D1FDF780FE03B043
:1040700000BD00BF1010020080B50748016841F084
:10408000100101600320FFF71EFE002001F0B6FBC7
:1040900001F0D4FB002002BD0020024078B5354875
:1040A000354C364D364E85B0016841F02001016037
:1040B000026802F0200204920499016841F00401B0
:1040C0000160026802F0040204920499016841F060
:1040D00008010160026802F00802049200220499BB
:1040E000016841F0100101604021006800F01000FB
:1040F000049004982046FFF7AEFD00224FF4606163
:104100002846FFF7A8FD012248F204012846FFF7E0
:10411000A2FD002280213046FFF79DFD402000F0E7
:1041200035F800F02FF880200021009001910291D5
:1041300000F028F848F6046000F028F8284600F05F
:1041400022F8802000F022F8304600F01CF801220E
:104150004FF480512846FFF77EFD4FF480500090C9
:10416000012102200191039069462846FFF7A8FC2F
:1041700006B070BD1810024000080140000C01405C
:104180000010014020466946FFF79ABC01210090CB
:1041900001910020022102900391704780B50A48E6
:1041A000016841F0010101600022006800F0010097
:1041B0000090002100980E20FFF792FDBDE802401C
:1041C0000E20FFF7AABD00BF141002404FF0804040
:1041D00030B57A4C82A520608BB000206060A06072
:1041E00000214FF6FF70E060039100202061A06184
:1041F00005910320029006910120049007910890F8
:1042000009910A91204602A901F0B1FB10B14C219D
:1042100000F04FF800F050F810B1532100F049F8C9
:104220001821204601F0ECFB0BB030BD644830B5DE
:10423000644C00BF6AA5206089B001206060002046
:10424000A06040F6B830E06000202061A061204608
:1042500001F064FB10B1672100F02BF800F02CF89E
:1042600010B16E2100F025F860200021029003912A
:1042700004910691002202A9204601F0DBFB10B157
:10428000772100F016F8042202A9204601F0D2FBA3
:1042900010B17C2100F00DF8204600F03EF800211E
:1042A000204601F048FB0421204601F044FB09B000
:1042B00030BD2846FFF7FDBB002000900190694605
:1042C000204601F0CFBD0068B0F1804F00D07047AC
:1042D00000B53D4885B0016841F00101016003214E
:1042E000006800F00100009000220098374801911A
:1042F0000292039201A91DE081B000683049884212
:1043000009D13148016841F004010160006800F002
:1043100004000090009801B0704700682849884266
:1043200000D07047F8B5C0210220009101900390A1
:1043300069462748FFF7C4FB05B000BD254838B5DE
:10434000254C00BF26A5206086B047206060002075
:10435000A06042F20F70E060002020616061A06107
:10436000204601F0B9FA18B140F20111FFF7A1FFA0
:104370004FF48050029002A9204601F0CFFB18B103
:1043800040F20711FFF795FFFFF796FF18B14FF4C2
:104390008771FFF78EFF07B030BD81B000680D490F
:1043A000884209D10D48016841F40061016000684C
:1043B00000F400600090009801B07047040B0020EA
:1043C00000080040440B00201C100240000801407F
:1043D000000C0140002C0140C40A002018100240CB
:1043E000433A5C55736572735C77616E6779756E7D
:1043F0007875616E5C4465736B746F705C526F624C
:104400006F636F6E5C70726F6772616D5C656E6317
:104410006F6465722D7A6875615C5372635C746950
:104420006D2E630038B500243E4D112001F040FD93
:1044300045F82400641C0C2CF7DB31BDF8B50346AD
:1044400000201E780025012701E0DE5D67466C1C18
:104450000D2E1ED0202E07F1010C0BD10028F4D018
:104460000C2D00D139E052F8255000262E54254657
:104470000020EAE710281EBF52F825402654401CB1
:10448000E3D12DE052F82520002313540C600020C6
:10449000F2BD50EA0503F5D16FF00200F2BDF8B5A8
:1044A00004460D46002654B917E03A6D29462046C9
:1044B000904781211C4801F01DFD0020F2BD5421D0
:1044C0001A48714347182968384601F017FD00283B
:1044D000EBD0761C112EF2D302E04FF0FF30F2BD8C
:1044E0006FF00100F2BD0000F8B5012840F305802F
:1044F000BDE8F2400EA0FFF7AEBC00240FF2580555
:1045000012A6542109486143471839463046FFF73F
:10451000A2FC07F110012846FFF79DFC641C112C3A
:10452000EFD3F1BD840B00200C0900200000002017
:104530006D73673A0A2068656C70C3FCC1EEB2CE39
:10454000CAFDB9FDB6E00D0A0D0A0000636D643ABC
:1045500025730D0A0000000075736167653A2573C5
:104560000D0A0D0A0000000040F68C239842DFF887
:10457000401340F6B832C8BF18460BDCDFF83433BE
:10458000984205DA18460A6000F6B830486070476D
:104590000028F8D4101A08604A607047DFF8180342
:1045A0000021C1600161416170472DE9F04101F0D6
:1045B000CBFCC14D04462869EC60214601F004FDA6
:1045C000BE4901F073FD98BFBD4804D9BD4901F053
:1045D0007FFD38BF084628612146286801F08AFD22
:1045E000064629696868AE6101F084FD074669697D
:1045F000EF61204601F0A8FCA96801F07BFD804630
:10460000C5F820806C6137E0AF480021016041604F
:10461000816047F6FF70AD49086070472DE9F041B1
:1046200001F092FCA84D044668682C60214601F018
:10463000CBFCA24901F03AFD98BFA14804D9A14999
:1046400001F046FD38BF084668602146A86901F0C0
:1046500051FD06466968E869EE6001F04BFD0746CA
:10466000A9682F61204601F06FFC296A01F042FD24
:104670008046C5F81480AC603046394601F0A4FC91
:104680004146BDE8F04101F09FBCF8B59048914C1F
:104690000168012902D1E06A401CE0620A21E26A55
:1046A00092FBF1F10A2000FB1121A06A084304BF2C
:1046B0000123A362606992FBF0F300FB1322606A9E
:1046C000024304BF0122626251B9A768E6686568C7
:1046D000206A01F07BFD3B4632462946FFF73EFC4F
:1046E000E16A4FF6FD708142A4BF0020E062F1BD97
:1046F00038B5764C78492068764D081801F066FD8B
:104700006860E96801F060FCE86047F6FF702060CF
:1047100031BD2DE9F84F6F4CDFF8C0910546E068D8
:104720000F46904601F064FD461B48BF76423F1A93
:10473000A16948BF7F424FF07C5001F0DBFC82460C
:10474000E4694046FDF74AF9B74280460D461ADB58
:1047500076007642304601F039FD214601F05EFDDB
:1047600001F0DAFD00F030F800F034F800F037F82E
:1047700001F0F6FD22465B46FCF73AFF0022584B5B
:10478000FDF7FAFA15E07F007F42384601F01EFD82
:10479000214601F043FD01F0BFFD00F015F800F0E7
:1047A00019F800F01CF801F0DBFD22465B46FCF72F
:1047B0001FFF42462B46FDF73DF89CBF4046294669
:1047C000BDE8F44FFDF7ECB802460B4645484649B4
:1047D000FDF752BF06460F46504601F09DBD044608
:1047E0008B460020494632463B46FDF709B900009A
:1047F0002DE9F843FFF77CFF364DD5F80C90D5F83E
:1048000034802F6B2868394E01F0F2FC0246A86B09
:10481000032837D8DFE800F002041822384614E0F5
:1048200041463846FFF775FF04466F6BE86801F0B4
:10483000DFFC381AE96B48BF4042884222DA022086
:10484000A8630120F0601DE0404601F0BFFC49462E
:10485000FFF7E4FE01F0CCFC044613E03946404685
:10486000FFF757FF2F6B0446E86801F0C1FC644274
:10487000381AE96B48BF4042884203DA0020A86337
:104880000120306120466D6801F0A0FC2946FFF749
:104890008CFE01F0ADFCBDE8F24365E610B50D4CB1
:1048A000A06A012803D1FFF7A3FF0021A16210BD78
:1048B0003408004074F5FFFFE00500200100FA44D1
:1048C0000000FA440000FAC404060020240000405E
:1048D000200C0020940500200180FFFF0000F03F25
:1048E00000004E409B91048B0ABF0540000C002045
:1048F0002DE9F8430646DFF89C543078C1074AD5C5
:10490000686800F00C00042807D0686800F00C000C
:1049100008280BD16868C10308D5296888033AD5EF
:104920007068002840F0C080012069E17068B0F52F
:10493000803F0FD038B9296821F480312960286878
:1049400020F4802009E0B0F5A02F296807D141F4B8
:1049500080212960286840F48030286006E021F436
:10496000803129602A6822F480222A60706868B148
:10497000FEF794FF04462968880300F19580FEF74E
:104980008DFF001B6528F6D3032039E1FEF786FF73
:1049900004462868810340F18780FEF77FFF001BF3
:1049A0006528F6D3F0E7FEF779FF001B022840F2F6
:1049B000AA80E9E7306970B101213960FEF76EFF26
:1049C00004462868810700F1DC80FEF767FF001BC2
:1049D0000228F6D9D8E73860FEF760FF0446286859
:1049E000810765D5FEF75AFF001B0228F7D9CBE7F0
:1049F0000860FEF753FF0446686A810777D5FEF723
:104A00004DFF001B0228F7D9BEE708B9286A09E064
:104A10000528286A06D140F004002862286A40F080
:104A2000010005E0400840002862286A20F00400E8
:104A3000286241F28938F06868B1FEF72FFF81469D
:104A4000286A810700F1AA80FEF728FFA0EB090081
:104A50004045F5D398E7FEF721FF8146286A810794
:104A600040F19C80FEF71AFFA0EB09004045F5D30A
:104A70008AE7FEF713FF001B022840F2A28083E7BB
:104A8000FEF70CFF001B022840F2B5807CE700F027
:104A9000B9F804462868810140F1B180FEF7FEFEB6
:104AA000001B0228F6D96FE73078DFF8F47281072F
:104AB0001BD5686810F00C0F09D0686800F00C0076
:104AC00008287FF477AF6868C1033FF573AF2968A2
:104AD000880703D5306901287FF426AF29687069FB
:104AE00021F0F80141EAC0012960317808071DD59D
:104AF000B069DFF8B01200283FF47AAF01220A60F3
:104B0000FEF7CCFE0446686A81077FF54CAFDFF8FC
:104B100088120868C0084FF47A72B0FBF2F2009273
:104B200000BF0098411E00280091F9D1307841075C
:104B300039D5E8690024C10009D4E86940F0805003
:104B4000E8610124E86900F0805000900098DFF8E7
:104B50005882D8F80010C8051BD4D8F8000040F4DB
:104B60008070C8F80000FEF799FE8146D8F8001062
:104B7000C8050ED4FEF792FEA0EB09006528F5D318
:104B800002E72868716920F0F80040EAC100286057
:104B9000ABE7F06801287FF438AF3FE71CB1E86964
:104BA00020F08050E861F06948B3696801F00C01B9
:104BB00008293FF4B9AE02287FF469AF00F022F86B
:104BC0000446286881013FF554AF306AB0F5803F54
:104BD00005D16968B06821F40031014369606968F2
:104BE000306A21F474110143706A01436960012045
:104BF00000F009F80446286881017FF541AF0020E4
:104C0000BDE8F28300203866FEF748BE2DE9F84380
:104C1000664F05463868894600F00700484502D2CD
:104C200000F07AF86CD129785A4C880705D561686C
:104C3000A86821F0F001014361602878C10757D5C9
:104C40006868012802D121688A0303E0022803D1A1
:104C500021688A0103D453E02268910750D5616826
:104C6000890840EA8100606041F28938FEF716FE4B
:104C70000646686801280BD1606800F00C00042823
:104C800036D0FEF70BFE801B4045F5D303202DE008
:104C9000022837D1606800F00C00082828D0FEF701
:104CA000FDFD801B4045F5D3F0E72878410705D589
:104CB0006168E86821F4E0610143616028780107D8
:104CC00006D56068296920F4605040EAC100606040
:104CD00000F02CF862683649C2F30312895C2E4A50
:104CE000C8401060002000F089FD0020BDE8F2837C
:104CF000386800F007008145D7D200F00DF8D4D015
:104D00000120F3E7606810F00C0FF1D0FEF7C6FD4C
:104D1000801B4045F6D3B9E73968C90849EAC101A3
:104D20003960386800F007004845704721491B4842
:104D30000A6802F00C03082B00D0704710B500BFC2
:104D40001FA4C2F38343D203E35C09D5096800BF03
:104D50001FA2C1F340415843515CB0FBF1F010BDBC
:104D600018461549484310BD0B48006870470A486B
:104D7000104A006813681149C3F3022206E006488E
:104D80000C4A006813680D49C3F3C222895CC8400D
:104D900070470000001002403406002000127A0024
:104DA0000000424280044242007000400020024065
:104DB000501F00080410024000093D00207A00083E
:104DC00002030405060708090A0B0C0D0E0F10104C
:104DD0000102000038B5040001D1012032BD00F00D
:104DE00022F808B900F023F800F013F800F024F8D6
:104DF000FFE7416100F001F832BD2068C16841F46D
:104E00000051C1600020686020206870A8700020F8
:104E10007047242068702068C16821F40051C16087
:104E2000204600F05EBA04F138056878704700212A
:104E300029702046FEF7CCBF2068016921F490411B
:104E400001612068416921F02A0170472DE9F8438A
:104E5000054605F138070C4678782028164698460E
:104E60003CD1002C14BF002E012038D03878012806
:104E700034D0012139702120002179607870FEF74B
:104E80000DFDAE848146EE8403E0296814F8010B21
:104E90004860E88C28B3E98C481EE8844B46A86833
:104EA000CDF80080B0F5805F0DD100F024F870B926
:104EB00020882968C0F3080048602869002814BFCA
:104EC000641CA41CE5E700F016F80028DDD00320E0
:104ED00005E0202078700020387000E00220BDE856
:104EE000F283CDF800804B460022402100F005F807
:104EF0000028EED0EBE700228021284657E130B5AC
:104F000000F138039C78202C21D109B1140001D183
:104F1000012030BD1C78012C19D001251D70816243
:104F20008285C28500215960222199700021197063
:104F30000168CA6842F48072CA6001684A6942F036
:104F400001024A610068C16841F0200101E00220CD
:104F500030BDC160002030BD70B5044604F1380595
:104F600013466878202831D109B1180001D10120F9
:104F700070BD2878012829D001222A702162A384DB
:104F8000E3840020686021206870226B0FF2A1107A
:104F90009062226B0FF2C510D062226B0FF2C51027
:104FA00010630020266B70632068021D206B00F0E8
:104FB00050FA21686FF040000860002028702068D7
:104FC000416941F080014161002070BD022070BD47
:104FD000416921F040014161606B704738B504467A
:104FE00025682968EA686B6911F00F0007D1880607
:104FF0005DD590065BD52046BDE8324026E1D80756
:1050000002D412F4907F52D0C80705D5D00503D53D
:10501000E06B40F00100E063480705D5D80703D5F1
:10502000E06B40F00200E063880705D5D80703D5A0
:10503000E06B40F00400E063080705D5D80703D50E
:10504000E06B40F00800E063E06B00286ED089065A
:1050500004D5900644BF204600F0F8F82068406967
:10506000E16B0A0701D440061BD5204600F0DAF8B0
:10507000206841694A060FD5FFF7AAFF60B10FF219
:10508000C1114163606B00F01EFA00284ED0606BC6
:10509000416BBDE8344008472046BDE83240FEF78A
:1050A0001CBF2046FEF719FF0020E06331BD080653
:1050B0002CD510062AD594F83900212836D1A168BC
:1050C000206AB1F5805F0DD10188C1F308016960E4
:1050D000206918B9216A881C206207E0206A411CF7
:1050E000216203E0411C216200786860E08C401E70
:1050F000E08480B2D0B92068C16821F08001C1602D
:105100002068C16841F04001C16031BD48060DD53D
:1051100050060BD5E86820F04000E860202184F8B4
:1051200039102046BDE8324001F093B931BD00008E
:10513000416A00680268930644BF084601F089B9D5
:105140000020C8840868426922F080024261086831
:10515000C16841F04001C16070470000406A01F041
:1051600079B9000038B5446A2068406904F139050E
:105170002978212906D1000604D50020E0842046A4
:1051800000F047F8206840696978222906D1400676
:1051900004D50020E085204600F044F8E06B40F0A4
:1051A0001000E0632046BDE83240FEF796BE2DE9D0
:1051B000F041069C05460E4690461F462868016849
:1051C0003140B1420CBF01200020404517D114F1FD
:1051D000010FF3D024B1FEF761FBC01B8442EDD276
:1051E0002868C16821F4D07100F00CF805F138008E
:1051F00020214170817000210170032000E0002017
:10520000BDE8F081C16028684169490849004161F1
:1052100070470168CA6822F0C002CA60202180F885
:10522000391070470168CA6822F49072CA60016838
:105230004A69520852004A61202180F83A107047AA
:10524000406A0021C185C184FEF747BE80B590F851
:105250003A10222943D18268B2F5805F14D1826A64
:10526000016941B903685968C1F308011180826A74
:10527000911C816218E001684B6803F0FF03138002
:10528000816A4A1C82620FE001690029816A04D1A7
:105290004A1C82620268536805E04A1C8262026806
:1052A000536803F07F030B70C18D491EC18589B21D
:1052B00099B90168CA6822F02002CA600168CA6808
:1052C00022F48072CA6001684A69520852004A6139
:1052D000202180F83A10FEF7D4FD002002BD022004
:1052E00002BD2DE9F0470446642521680A69E0689B
:1052F00022F4405202430A611926CA68314802402A
:10530000A06802432069024360690243CA604A6997
:10531000A06922F4407202432B484A6181420ED1B7
:10532000FFF72DFD0746FFF72AFD8046FFF727FD13
:105330008146FFF724FD8246FFF721FD0DE0FFF7D0
:1053400016FD0746FFF713FD8046FFF710FD814667
:10535000FFF70DFD8246FFF70AFD06FB09F96168BC
:1053600089007743B7FBF1F206FB08F7B7FBF1F3CF
:10537000B9FBF1F7B7FBF5F705FB17331B01323328
:10538000B3FBF5F3B2FBF5F203F0F00303EB02130A
:1053900006FB0AF74643B7FBF1F2B6FBF1F06421D6
:1053A000B0FBF1F005FB10252D0132356420B5FB73
:1053B000F0F0216800F00F00C3188B60BDE8F087A3
:1053C00000000000F3E9FFFF0038014030B508B9E4
:1053D000012030BD0268DFF880138A4200F1280303
:1053E00006D2DFF8781300F02DF8DFF8741305E02B
:1053F000DFF8701300F026F8DFF86C135961022112
:1054000080F82110146841686FF30D140C43816813
:105410000C43C1680C4301690C4341690C43816929
:105420000C43C1690C4314600021196059609960F4
:10543000D9601961012180F82110002180F8201025
:10544000002030BD8C181425B4FBF5F4A4009C6139
:105450007047F8B50446002594F82000012801D1D2
:105460000220F2BD94F821000126012884F8206072
:1054700024D1022684F8216004F12C06F56020680E
:1054800007687F087F000760204600F087F92168E1
:10549000306820B10A6842F00E020A6008E008682D
:1054A00020F0040008602068016841F00A010160F2
:1054B0002068026842F00102026002E084F8205095
:1054C00002252846F2BDF8B590F821200024022AD2
:1054D00000F1340103D00420486001245FE0026839
:1054E000DFF88862136823F00E0313604FF48077AF
:1054F000026815686D086D0015604FF4803203680E
:10550000B3424FF4805519D9DFF84C62B34208BF5B
:10551000012210D0DFF85862B34208BF10220AD02F
:10552000DFF85062B34208BF3A4604D0DFF8486261
:10553000B34208BF2A46DFF8443227E0DFF840C212
:1055400063451CD0DFF83CC263451AD0DFF838C28F
:10555000634518D0DFF83472BB420EBF2A46DFF82D
:105560003052AB4210D0DFF82C52AB4208BF4FF4A0
:10557000801209D0B34207D14FF0807204E00122BB
:1055800002E0102200E03A46DFF80C321A600122F5
:1055900080F8212080F82040096801B18847204622
:1055A000F2BD2DE9F84F00F1280204275169744B30
:1055B000D1F800E004686D4925689669DFF8BC8180
:1055C000DFF8B491DFF8ACA1DFF8A4B1DFF888C14F
:1055D000B7401EEA070F4AD06F0748D52568AD06C9
:1055E00003D4256825F0040525604FF4802407685E
:1055F0008F424FF480454FF4806611D9674508BF4C
:1056000004240AD05F4508BF402406D0574508BF90
:10561000344602D04F4508BF2C46C8F8004020E071
:105620009F4217D0574B9F4216D0574B9F4215D0E1
:10563000564B9F420EBF2C46554B9F420FD0554BA9
:105640009F4208BF4FF4800409D08F4207D14FF02A
:10565000806404E0042402E0402400E034464E4923
:105660000C605168002974D0BDE8F44F0847022748
:10567000B7401EEA070F4FD0AF074DD52568AD06DE
:1056800006D4256825F00A052560012480F821400C
:105690004FF4003407688F424FF400554FF4007602
:1056A00011D9674508BF02240AD05F4508BF2024EE
:1056B00006D0574508BF344602D04F4508BF2C4698
:1056C000C8F8004020E09F4217D02E4B9F4216D0D2
:1056D0002D4B9F4215D02D4B9F420EBF2C462C4B7D
:1056E0009F420FD02B4B9F4208BF4FF4001409D0AC
:1056F0008F4207D14FF0007404E0022402E020241E
:1057000000E0344624490C60002180F82010116824
:10571000F9B1BDE8F44F0847082101FA06F61EEA80
:10572000060F16D0290714D5216821F00E0121603B
:10573000012391698B4051694B6001230021136162
:1057400080F8201080F82130916811B1BDE8F44F45
:105750000847BDE8F18F000008040240F8FFFDBFD4
:1057600000000240F8FBFDBF000402408000024040
:105770001C0402403004024044040240040402407D
:10578000080002401C000240300002404400024079
:10579000580002406C0002400400024038B5046C1E
:1057A0000125A540C46B65600468636040681028EB
:1057B00002D1A260E16031BDA160E26031BD0000B4
:1057C00008B584B00023039300290EBF0193019014
:1057D000491E0291009301A904AB07487844183090
:1057E000FAF7A6FC019909B100220A70002858BFF7
:1057F000039805B000BD00BFA3BAFFFF38B50D4D3B
:105800000D4A297804464FF47A70B0FBF1F1106824
:10581000B0FBF1F0FEF78BFA50B9102C08D2002241
:1058200021464FF0FF30FEF75BFAAC60002032BD3E
:10583000012032BD280600203406002080B524480F
:10584000016841F001010160026802F0010200926A
:105850000099416841F080514160406800F08050FB
:10586000009000980320FEF72EFA002200216FF02E
:105870000B00FEF735FA002200216FF00A00FEF758
:105880002FFA002200216FF00900FEF729FA00220A
:1058900000216FF00400FEF723FA002200216FF0D0
:1058A0000300FEF71DFA002200216FF00100FEF751
:1058B00017FA002200214FF0FF30FEF711FA0548D9
:1058C000016821F0E06141F00071016001BD00BF9D
:1058D000181002400400014038B5040001D1012035
:1058E00032BD00F040F818B900F039F8FEF755FD68
:1058F000FFE702206870211D206800F07FF9012079
:105900006870002032BD03D1416C41F40041416414
:10591000026842F001020260002016BD38B50400A2
:1059200001D1012032BD00F01EF818B900F017F8BF
:10593000FEF7E2FCDDE71CB500F007F800F00AF81E
:105940001CBFDFF8B4108842DDE70446012220685E
:1059500000F07BBA2068DFF8A4108842704700216D
:1059600029702046704704F13C0568787047F8B507
:1059700004000E4601D10120F2BDFFF7F4FF18B973
:10598000FFF7EDFFFEF79FFC02206870206881683A
:10599000C908C9008160211D206800F02FF9216825
:1059A000DFF828028A688F690B6A0740B0680743EE
:1059B000B06947EA0027DFF818020740F06807439C
:1059C000F06947EA0027306947EA0017306A47EA7A
:1059D0000037706823F0AA030343706943EA001399
:1059E000306802438A6020688761012021680B6269
:1059F00068700020F2BD000000340140002C01401E
:105A000010B5044609B1042901D1012203E000F0D8
:105A10000CF801220421206800F017FA20680168C0
:105A200041F001010160002010BD20680122002129
:105A300000F00BBA70B500F065F801D1022070BD1E
:105A400000F067F832B1042A17D0082A28D00C2AAF
:105A500039D04AE03068294600F00AF93068816997
:105A600041F0080100F04AF821F004018161316839
:105A70008A69286902438A6137E03068294600F064
:105A800020F93068816941F4006100F037F821F4B1
:105A9000806100F033F82A6941EA0221816124E043
:105AA0003068294600F03DF93068C16941F00801CD
:105AB00000F020F821F00401C1613168CA69286949
:105AC0000243CA6111E03068294600F05CF9306891
:105AD000C16941F4006100F00DF821F4806100F02B
